:100000000C943F110C9470110C9470110C9470119D
:100010000C9470110D94C9190D94001A0D946E1A58
:100020000D94371A0C9470110C9470110C9470117B
:100030000C9470110C9470110C9470110C9470113C
:100040000D945B1C0D94CB1B0D94301C0C94701103
:100050000C9470110C9470110C9470110C9470111C
:100060000C9470110D94DB1C0D941F1D0C947011D9
:100070000C9470110C9470110C9470110C947011FC
:100080000D94C91A0C9470110C9470110C94701189
:100090000C9470110C9470110C9470110D949D19A6
:1000A0000C9470110C9470110C9470110C947011CC
:1000B0000C9470110C9470110C9470110C947011BC
:1000C0000C9470110C9470110C9470110C947011AC
:1000D0000C9470110C9470110C9470110D94A51A5D
:1000E0000C9470110D94B20F0D94F4000D947E02D7
:1000F0000D94D4080D9446020D94FC0F0D949802B3
:100100000D94820E0D9492020D949B2A0D943C0244
:100110000D9484020D9442020D9491010D9470028D
:100120000D94DD020D9480010D94AC010D949F019E
:100130000D946A020D94A5010D9486010D94C505D8
:10014000AED580A83FD300408D142000A1C8DA129C
:1001500081CFD9F1DB40A4A6AF9CCE003264E2F19E
:10016000003264645A505A6450463C46649C141EE3
:10017000465A54656D702E20726164696F1F744019
:10018000430046726565205372616D1F7862004DB1
:10019000697865721F726D73004C63642053656EDD
:1001A000641F726D7300477569204275696C641F26
:1001B000726D730050726F746F636F6C1F72757322
:1001C000004D6178004D696E00436F6D7075746508
:1001D000000150726F702E0001303A33363000014A
:1001E0004E622072807080746974696F6E200001A5
:1001F000566F696520004E756D80726F0001416316
:10020000746966005820414E590001508072696F30
:10021000646500014E756D5278005B426E645D004E
:100220005B5072745D006D5700202020202D4249E4
:100230004E442D2020202020005246494420203AC0
:100240000006455445494E445245203F00012A2AA4
:100250002A004461746500456E632E526F742E004F
:1002600050657273005661726961626C65732047F4
:100270006C6F62616C65730001547970650048654C
:10028000757265004E2F4400494E54455253005339
:100290004F4E0047415A00454550524F4D00414C8A
:1002A00045525445005B52415A5D00476172646596
:1002B000722054696D65727300537461746973744C
:1002C0006971756573005280696E69742E2054805F
:1002D0006C806D2E005280696E69742E2054696D99
:1002E000657232005280696E69742E2054696D65A2
:1002F0007231005280696E69742E20766F6C0053E3
:1003000075707072696D6572004480706C616365B0
:100310007200436F7069657200496E738072657216
:1003200020617072817300496E7380726572206102
:1003300076616E74004564697465720053757070FF
:1003400072696D6572204D6F64816C6500448070C8
:100350006C61636572204D6F64816C6500436F70E2
:10036000696572204D6F64816C65004372806572AF
:10037000204D6F64816C650053806C6563742E2022
:100380004D6F64816C650001436F7572616E74001E
:100390000154656E73696F6E004C6F6E676974759A
:1003A0006465004C61746974756465005253534907
:1003B000204D696E2E0043616C69622E204261748B
:1003C000746572696500536175766567617264650D
:1003D000202E2E2E0003415252455420454E2043DC
:1003E0004F55525300496E766572736572204761AE
:1003F0007A3F004445425547005354415453004707
:100400004142415249545300014C696D6974650081
:1004100054454C454D455355524500464F4E435467
:10042000494F4E5320535045432E00494E54455298
:1004300053204C4F472E00434F5552424500434FE7
:100440005552424553004C494D495445530044527E
:100450002F4558504F00434F4E462E48454C4900BB
:1004600050484153455320444520564F4C00504876
:1004700041534520444520564F4C00434F4E462E95
:10048000204D4F44454C45004D4F44454C4553008D
:1004900043414C4942524154494F4E00414E415311
:1004A00000494E544552530056455253494F4E0051
:1004B00045434F4C414745000142696E64206175D8
:1004C000746F0001467280712E736572766F000141
:1004D00054806C806D80747269650001416A757327
:1004E000742E667280710001467280712E207669CA
:1004F00064806F00015375702E2042696E640001A4
:100500004E756D2E20766F696573000150756973A5
:1005100073616E63652052460053504952664D6FB9
:10052000640001436F72722046415300434F4E46B0
:10053000494720524144494F00055472696D732068
:100540003D3E205375627472696D73004480706122
:100550007373656D656E7420454550524F4D00466E
:100560006F726D617461676520454550524F4D0053
:10057000454550524F4D20636F72726F6D707565B7
:1005800000546F7563686520706F757220636F6EBD
:1005900074696E75657200416C61726D657320449B
:1005A000807361637469768065730047617A207037
:1005B00061732082207A80726F00546F7563686562
:1005C00020706F75722069676E6F726572004545A5
:1005D00050524F4D20706C65696E65210050560079
:1005E0004D4F44454C45004348005452005B4D4537
:1005F0004E555D20706F757220726573657400755D
:1006000073001F665345531E544D311F66544D32BF
:100610001E47415A1F66475A25004E4F20444154F9
:1006200041004163633A0054783A0052783A00043A
:10063000424F5547455220535449434B532F504F37
:10064000545300085245474C4552204E455554528C
:10065000455300065B4D454E555D20504F55522089
:100660004445425554005472696D2D202B0043615E
:100670006C004D756C7469706C69657572004D6FB6
:100680006465062520536F7572636500456C81763D
:1006900065004F7264726520766F696573205258E9
:1006A00000014C65206D6F64816C6520657374205A
:1006B000616C6C756D8000566172696F00436F6F7D
:1006C00072646F6E6E80657300416A7573742E205C
:1006D0006865757265206175746F00467573656134
:1006E0007520686F726169726500416C657274652E
:1006F00020696E7400416C657274652067617A00D0
:100700004C6F676F2064276163637565696C0001D6
:10071000447572806500528074726F80636C616989
:10072000726167650001506572736973742E000110
:100730004269702066696E0001426970206D696EC1
:100740002E004E6176696720456E63526F7400011A
:1007500053696C656E636500014D806D6F697265EC
:1007600020706C65696E650001496E61637469761D
:100770006974800001426174746572696500506C2F
:1007800061676520626174746572696500416C61BE
:10079000726D657300436F6E747261737465005699
:1007A0006962726575720001546F6E616C69748064
:1007B0000001447572806500536F6E00456372617D
:1007C0006E20000150616C657300446F6E6E806531
:1007D000730001416C61726D650001506C61676569
:1007E0000041005647004342004D495845555200CC
:1007F00052616C656E746920686175740052616C39
:10080000656E746920626173005265746172642060
:10081000686175740052657461726420626173006E
:100820004F7080726174696F6E004F464600416C74
:100830006572746500506861736500436F7572621C
:10084000650044526578005472696D00014480630C
:10085000616C61676500436F7480004578706F005C
:10086000526174696F0001536F757263650045448E
:1008700049544552204D495841474500494E53453A
:10088000524552204D4958414745004D6178206DF1
:100890006978616765732061747465696E7421009D
:1008A0004D6178206578706F732061747465696E2E
:1008B000742100014D6F646500496E762E20636FD0
:1008C0006C6C656374696600496E762E206C617489
:1008D0008072616C00496E762E206C6F6E67697451
:1008E00075642E004C696D697465204379636C2EC4
:1008F00000436F6C6C6563746966005479706520A1
:10090000646520506C61742E000656807269660A18
:100910005472696D7300286480666175742900469D
:100920006F6E6475204F464600466F6E6475204FAB
:100930004E005472696D7300496E746572006D7378
:10094000005472616D652050504D000150726F74FB
:100950006F2E00426970732063656E74720054726A
:10096000696D2067617A0053776974636820476115
:100970007A00536F757263652047617A0050617326
:10098000205472696D005472696D732080742E005A
:100990004C696D697465732080742E004368726FB2
:1009A0006E6F20004E6F6D004368617267656D6504
:1009B0006E742E2E2E004480706C6163656D656EC2
:1009C000742E2E2E00436F7069652E2E2E00535507
:1009D000505052494D4552204D4F44454C450064BE
:1009E00069737000065B4D454E555D205155414E73
:1009F000442050524554005B4D454E555D085B45C3
:100A00005849545D00034F46464F4E00032D2D2D8F
:100A1000494E56040134434801364348013843489F
:100A2000313043483132434831344348313643480A
:100A300005417563756E416C61726D4E6F4B6579E2
:100A4000546F757400034E6F6E52456152456203D8
:100A5000524561524562034F4646202B3D203A3DA8
:100A600003434831434832434833434834064578CA
:100A7000706F0020457846696E0046696E00202040
:100A80004D6F79656E0047726F73002001445047C7
:100A9000413132336162044F46460042746E734303
:100AA00074726C546F75734F4E00032D2D2D783E6C
:100AB00030783C307C787C663E30663C307C667CAE
:100AC00008416A6F75746500204D756C7469706CAF
:100AD0002E52656D706C616365022B3D2A3D3A3D77
:100AE000034F46464F4E0044697250726647617A22
:100AF00041696C052D2D2D0020613D780020617B22
:100B0000780020613E780020613C7800207C617C88
:100B10003E787C617C3C7845540020204F55002075
:100B2000204F55580020613D620020613E62002048
:100B3000613C6200205E7D7800207C5E7C7D785484
:100B4000656D700042697374000D52656D706C2E96
:100B50000020202020202045636F6C616765002005
:100B6000202020205472696D20696E7374616E7448
:100B70002E52656D69736520822030002020416A05
:100B800075737465720020202020204A6F7565728D
:100B900020736F6E002020204A6F75657220666991
:100BA00063680020204A6F756572206C657320327F
:100BB00000204C6972652076616C65757200205664
:100BC0006172696F00202020202020205669627207
:100BD0006575720020202020205B4C6F67732053C6
:100BE000445D00202020528074726F80636C2E0060
:100BF000202020044368723143687232546F757448
:100C000054656C6D5245610052456200044270317A
:100C100000427032004270330057726E3157726E6C
:100C20003243686565526174615469636B536972DC
:100C30006E52696E6753636946526F62744368729D
:100C400070546164614372636B416C726D042D2D4D
:100C50002D00426174744368723143687232547873
:100C60000020527800204131002041320020416CA8
:100C7000740052706D00436172625431002054322E
:100C800000205669740044697374416C7447456C64
:100C9000656D56656C6D56666173436F7572436E14
:100CA000736D507569734163635841636359416360
:100CB000635A4361700056697456566974416445BD
:100CC000540041312D0041322D00416C742D416C96
:100CD000742B52706D2B54312B0054322B005669FB
:100CE000742B4473742B5669412B456C6D2D456CE8
:100CF000732D5666732D4375722B5075692B4163A6
:100D00006300546D7073035600204100206D2F73F3
:100D10002D00206B6D686D00204000202500206DA7
:100D200041006D416857002007417563756E2020B2
:100D30004875620020202057534848696768532E41
:100D4000506F72740004444D53004E4D4541032DC5
:100D50002D2D41310041320046415343656C054120
:100D60006C746900416C74692B566172696F413112
:100D70000020204132000456616C2E426172730FD4
:100D80005375707072204D69786167657300203407
:100D900020566F6965732073696D706C6500436FD1
:100DA00075707572652047617A00202020456D704E
:100DB000656E6E616765205600202020456C657663
:100DC0006F6E5C44656C7461002020654343504D38
:100DD00000202020202020202020436F6E662E201F
:100DE00048806C69636F00202054657374205365DC
:100DF00072766F0020202020042D2D2D20313230DE
:100E0000203132305831343020393000054D656E94
:100E100075004578697400426173002048617574FB
:100E20000044726F69744761756368032D2D2D4905
:100E30004430494431494432544852525544454C57
:100E40004541494C47454154524E7444677444648B
:100E50007450627450687447627447687441677470
:100E6000416452454152454252454E5844305844DF
:100E7000315844324C31004C32004C33004C340079
:100E80004C35004C36004C37004C38004C39004C87
:100E900031304C31314C31324C31334C31344C31B6
:100EA000354C31364C31374C31384C31394C32308D
:100EB0004F4E00556E042D2D2D0044697200507266
:100EC000660047617A0041696C0050310020503261
:100ED00000205033002052456100524562004D41D0
:100EE00058004359433143594332435943335472B1
:100EF0006D4454726D5054726D4754726D4133504D
:100F00004F53034F46464F4E00475A73475A2547A3
:100F10005A740C4F464600202020202020202056C6
:100F20006F6C0020202020202020205265736574E3
:100F3000204D616E75656C0553772E2D2D4C312D2E
:100F40004C344C312D4C3853772E342053772E3877
:100F50002053772E313605302500202032352500EC
:100F60002033372E3525353025002000000000FFC6
:100F7000FFFF80E060FF00181818FFFF6060FFFFB0
:100F800060606060FF3E7F417F3E00427F7F406245
:100F900073594F4641497F7F36181C127F7F276760
:100FA000457D393E7F497B3201797D0703367F4994
:100FB0007F36064F693F1EFF3636FFFF7E7F097F73
:100FC0007E7F7F497F783E7F7F41417F7F417F3EAB
:100FD0007F7F4949417F7F0909013E7F4159797FE0
:100FE0007F087F7F417F7F41FF3070417F3F7F7F60
:100FF0001C77637F7F4040FF7F071F077F7F7F0154
:101000007F7E3E7F417F3E7F7F090F063E7F412FDF
:101010005E7F7F197F78464F5D7931017F7F01FFC9
:101020003F7F407F3F7F7F603F1F7F3F103F7F6359
:10103000771C7763070F787F0F71795D4F47747462
:10104000547C7C7F7F447C7C7C7C4444447C7C441A
:101050007F7F7C7C545C5C087F7F09FF5C5C547CF8
:101060007C7F7F047C7C447D7D40FF40447D3DFF50
:101070007F7F2844FF417F7F40FF7C0C3C0C7C7CC1
:101080007C0C7C78387C447C387C7C243C3C3C3C2C
:10109000247C7C7C7C0C1C185C5C7C74743F7F44DE
:1010A00040FF7C7C607C7C7C7C603C1C7C3C103CFD
:1010B0007C446C386C445C5C507C7C4464745C4C58
:1010C00080400000000000103878FCCC8404040C40
:1010D000040C0CDCFCFC7C1C080040E0E0F0B0B030
:1010E0003030303060E0C080000000808080808040
:1010F000808080808080808080800080C0C0606030
:101100006060E0C08080000000000000000000007F
:101110000000000000000000000008080808444427
:101120003C30202020A0A0E0C8C898F0C0C040F00B
:10113000E0C00018788800E838004868F80040F0FF
:10114000E040000000000000000000000000F0F09F
:10115000E0E0C1C38302000000000006040D0D0999
:101160001B1B1B1B1B0F0F0F000E1F3F312161614B
:1011700061C1C1E1FBFFFF0701F8FEFF03000000B2
:101180000000000103FFFE0003FEFEFC0C0C0C0C33
:101190000C0C1818B8F0E000C0E0F0F0B89898997E
:1011A0009991B1F1E1E080000031F1E0E0E06063AD
:1011B00061606040C08383000003020301000001FE
:1011C00000000000000000000000000000E0FFFF41
:1011D000FFFFFFFFFFF880000000000CFCFCFCFCA0
:1011E000C0000000000000000000E0E0C0C0C0C07F
:1011F000000000808181838280838FBF387070609F
:101200007030381C1E0F03000E070707070606067E
:10121000060606020303010001030707040D0D0D76
:101220000D0D0D0D050100000000030F1F0E000045
:101230000000000010180F0F0F0600000000000053
:10124000000000000000000000000000F0FFFFFFB1
:10125000FF1F1FFFFFFFFF8000000000030FFFFFC5
:10126000FFFFF000000000000000FFFFFFFFFFFF96
:101270000000000007FFFFFFFFFFFFFF0F0F0F0F32
:101280000F0F0F0F0E0E1E3E3CFCFCF8F8F0F0E0C6
:10129000C0000000000000000080C0E0E0F0F0F0BE
:1012A000F0F8F8F8F8F8F8F8F8F8F8F8F0F0F0F0E6
:1012B000F0F0F0F0F0E0E0C0C080000000000000BE
:1012C0000000000000000000000080F0FFFFFF7F32
:1012D00003000003FFFFFFFFF0000000000007FF16
:1012E000FFFFFFFE00000000E0FEFFFFFF3F0F00DA
:1012F0000000000000FFFFFFFFFFFFFFF0F0F0F035
:10130000F0F0F0F0F8F8F8F8FCFFFFFFBF1F1F0F38
:101310000F0000000000F0FEFFFFFFFFFFFF3F0F88
:1013200007030101000000000000000000000101AF
:1013300001010181818181818101000000000000A3
:101340000000000000000000C0E0FFFFFFFFFFF80A
:10135000F8F8F8F8FDFFFFFFFFFE000000000001B5
:10136000FFFFFFFFFEE0F8FFFFFF3F070100000067
:1013700000000080FFFFFFFFFFFF070303030303DD
:10138000030303030307FFFFFFFFFFFFFFFF00004F
:101390000000000000003F7FFFFFFFFFFFFFF8F0AD
:1013A000E0E0E0E0E0E0E0E0E0F0F0F0FCFFFFFF94
:1013B000FFFFFF7F7F1F0F070000000000000000FD
:1013C000000000000000607C7F7F7F0F01010101B1
:1013D0000101010101017F7F7F7F7C00000000008F
:1013E000031F7F7F7F7F7F7F0701000000000000D9
:1013F0000000203F3F3F3F3F3F1F00000000000034
:101400000000000000001F9F9F9F9F9F9F9F9F9C29
:1014100098D0C0C0C0C0C0C0C0C1C1C1E3E3E3E355
:10142000E7E7676767677773737373333333393904
:1014300038383818181C1C1C1C1C0C0C0E0E0E0EF8
:101440000E060000080C0C0C0C0C0C0C0C0C0C0CFC
:101450000C0C0C0C0C0C0C0C0C0C0E0E0E0E0E0EC0
:101460000E0E0E0E0E0E0E0E0606060606060606DC
:101470000606060606060606070707070707070308
:101480000303030303030303030303030303010130
:101490000101010101010101010000000000000043
:1014A000000000000000000000000000000000003C
:1014B000000000000000000000000000000000002C
:1014C000000005030706060D0505507431507432FF
:1014D00050743342617400000300020202020009EA
:1014E0000D20BF81BFA0A0202020101F0000001FE2
:1014F0001010101F1C1F1E1F1E1F1F1E1F1E1F004F
:1015000002020001FF000000FF000000FF000000D9
:101510000000FF0000000000000000FF01120800B2
:1015200010381010103810000010440092004410C1
:10153000000000000044FE4400000010440092003F
:10154000441000001044009200441000000044FECB
:1015500044000000000010440092004410000010FD
:1015600038101010381000DAD14A64115B07576F39
:1015700066E3560052535349000100FF0100FF018A
:10158000000001FF00000000FF0003000202020251
:101590000002020202793D00783D00707400707410
:1015A0002700000003010000FF0202020202020203
:1015B0000202020202000000FF010101010101011B
:1015C00001010101010004032D3D312B3D310000DB
:1015D00003000505050505050505050505050505C2
:1015E0000505002F3430002F31360044696666004F
:1015F00000000001010500000000000000050000DF
:1016000000000005003C5D00000002000000020038
:1016100000000001000000000006080102020002B4
:10162000000000001B20FC04040404040484C4849F
:1016300004E4F4E40484C4C40404040404040404BA
:10164000FCFF000000FCFE00FFFFFF80FFFFFF80AB
:10165000FFFFFF0000008080800000FFFF0000000F
:10166000FFFFFFFFFFFFFFFFFFFFFFFFFFFFF8FC94
:10167000FF3F0F030000FF3F2020202127272F2FAF
:101680002F2B272F2F2F2F2F2F27232020202020D5
:10169000203F46573A204F70656E415652632D4D9C
:1016A0006567614D696E691E564552531F1B3A208E
:1016B000332E312E301E444154451F1B3A20323008
:1016C00032322D30392D31381E54494D451F1B3AC9
:1016D0002031373A34393A35361E454550521F1BB2
:1016E0003A203332005F2D2E2C0003010200040546
:1016F00006070001020300020103030102000302C6
:1017000001001B1E272D36394B4E636C7278878D76
:10171000939CB1B4C6C9D2D8E1E400FF0000000038
:101720000001180800000000101010100000101038
:101730001010000010101010000000000000000049
:101740000082FE820024322A24007C82824400002F
:101750000000000000103810101038100010381071
:1017600010101000103854FE5438100000000044CF
:10177000FE4400000010381010101000103854FE05
:101780005438100000103854FE5438100010101057
:1017900010381000000044FE4400000000103854CF
:1017A000FE543810001010101038100010381010AF
:1017B0001038100000103854FE5438100010381043
:1017C00010101000103854FE543810000010385417
:1017D000FE5438100010101010381000103854FE4D
:1017E000543810007C004A7A186353BA4AF41263E2
:1017F0001563F7E0FB57D5CBE375C46C6F58000653
:10180000070D0E12131700403CA800443CA80170BD
:1018100051A8017451A80348453A0400D02D055041
:10182000E32D00423CA800463CA8017251A8017675
:1018300051A8034A453A047AD02D0552E32D0220DF
:1018400052A8022452A8034C453A047CD02D0554DA
:10185000E32D022252A8022652A8034E453A047EE6
:10186000D02D0556E32D0000000000000000000010
:10187000000101010101010102020202020303034E
:1018800003040404040505050606060707080808FE
:1018900009090A0A0A0B0B0C0C0D0D0E0E0F0F1086
:1018A0001111121213131415151617171819191AE6
:1018B0001B1B1C1D1D1E1F20202122232424252626
:1018C000272829292A2B2C2D2E2F30303132333442
:1018D00035363738393A3B3C3D3E3F404142434440
:1018E000454647494A4B4C4D4E4F5051535455561F
:1018F0005758595B5C5D5E5F6162636466676869E7
:101900006B6C6D6E70717273757677797A7B7D7E94
:101910007F818283858687898A8B8D8E9091929430
:10192000959798999B9C9E9FA1A2A4A5A6A8A9ABB8
:10193000ACAEAFB1B2B4B5B7B8BABBBDBEC0C1C32F
:10194000C4C6C7C9CACCCECFD1D2D4D5D7D8DADC99
:10195000DDDFE0E2E4E5E7E8EAECEDEFF0F2F4F5F4
:10196000F7F8FAFCFDFF48FCB8FC28FD98FD08FEDE
:1019700078FEE8FE58FFC8FF3800A800180188016B
:10198000F8016802D8024803B803460A0212462842
:1019900001104B0A0110410A0110460A0210000012
:1019A0000000460A011046140110461E01100000F6
:1019B0000000780A0110780600007A0603017C0610
:1019C0000302781E0310780F0310780F0311780FAD
:1019D0000312460A010046140100461E01005A0F78
:1019E0000502640F0502640A028278050A0A780576
:1019F00032020A1405428040201008040201080245
:101A00000C0000032050504D5350504D534255533D
:101A1000002B04100000034B00000000034241595A
:101A2000414838533358313641495244524448446E
:101A3000340000005F3DF1A6233A16AAAF1CB26243
:101A4000EBE0210807BE1A5F15AF0A4F24AD485ED0
:101A500034ED8C06C9F2521836DF9D127CB1F5D5F3
:101A6000D77098B73351DB674ED95B0A45E4A5E6DA
:101A7000E726ABBD79C3208E00004834A79BBB8B03
:101A8000E1858C3E1E45E618246BABE728384B8178
:101A900061D494F403251D698BFEA79B178B202925
:101AA0005F8BB16191D3017438219F12A0B3882953
:101AB000CA23CBC06C0C29B3A1A0160AD0A99E00E2
:101AC0007602CF091027141E28323C46505A646E05
:101AD0007882483130374833303148353031002949
:101AE000817F405E0749425057494250505342500F
:101AF00057534250500039817F00460712345678C0
:101B0000182736454182365784136572876415322B
:101B10007684135271628435718643521431404980
:101B20004949494949495354442E5639583956363A
:101B3000583656393132435832300049817F0000DF
:101B400007FF62002500FFFF00000000FFFF050007
:101B5000509E4B0002162B124F6280FFFF2A32C3A9
:101B60001F1EFF00FF00003B0017478003014518C0
:101B700000010FFF42001400FFFF00000000FFFF04
:101B80000500509E4B0002162B1200628080000A56
:101B900032C30F13C300FF00003B0017478003014F
:101BA000451800010FFF63FF0FFFFFFFFFFFFFFF5F
:101BB000FFFF0504FFFFFFFFFFFF2BFFFF6280FF1A
:101BC000FF0AFFFF0717FFFFFFFFFFFFFFFF47FFB2
:101BD000FFFFFFFFFFFFFF2F006E00DB00900328D9
:101BE00009A518F927B2342F2E2F07D391FF0445EA
:101BF000000012005C85E83D3B73737A01073008F2
:101C00001D1CC740B0876BF8B610EA0A00114F5090
:101C100054494D494E490019807F000007292E067E
:101C200007D391FF040500D106005C4EC45BF803A6
:101C300023F847073018166C434091876BF856100D
:101C4000A90A00114100597F3F81350B445353537A
:101C5000204653530018807F000007160717301ED8
:101C6000871F6B20F82A7F2B3F0B090C000D5D0EA0
:101C7000930FB1102D11201273132214F80ACD15F1
:101C80005021B622101818191D1A1C1BC71C001D44
:101C9000B223EA240A2500261129592C882D312E39
:101CA0000B07050805094306FF0413051808807F84
:101CB00000000727AD02000064C846006400000071
:101CC000FBF687C70000180A0000E0020B01D308EA
:101CD00000004CFE87C70055AA5AA50055AA5AA570
:101CE000000000891112239B322446AD573665BF90
:101CF00074488CC19D5AAFD3BE6CCAE5DB7EE9F750
:101D0000F88110080193331A22A5562C47B7753E67
:101D100064C99C408DDBBF52AEEDDA64CBFFF9762F
:101D2000E802218B30100299132667AF763444BD48
:101D3000554AADC3BC588ED19F6EEBE7FA7CC8F50F
:101D4000D983310A2091121803A7772E66B5543C27
:101D500045CBBD42ACD99E508FEFFB66EAFDD874EF
:101D6000C904428D5316619F702004A9153227BB08
:101D7000364CCEC5DF5EEDD7FC6888E1997AABF3CF
:101D8000BA85520C4397711E60A1142805B3373AE7
:101D900026CDDE44CFDFFD56ECE9986089FBBB72AF
:101DA000AA06638F7214409D512225AB343006B9C8
:101DB000174EEFC7FE5CCCD5DD6AA9E3B8788AF18F
:101DC0009B87730E6295501C41A3352A24B11638A7
:101DD00007CFFF46EEDDDC54CDEBB962A8F99A706F
:101DE0008B088481951AA793B62CC2A5D33EE1B780
:101DF000F04008C919522BDB3A644EED5F766DFF57
:101E00007C899400859BB712A6ADD224C3BFF1365E
:101E1000E0C1184809D33B5A2AE55E6C4FF77D7E36
:101E20006C0AA583B4188691972EE3A7F23CC0B53F
:101E3000D14229CB38500AD91B666FEF7E744CFD16
:101E40005D8BB502A499961087AFF326E2BDD0341E
:101E5000C1C3394A28D11A580BE77F6E6EF55C7CF6
:101E60004D0CC685D71EE597F42880A1913AA3B3FF
:101E7000B2444ACD5B5669DF78600CE91D722FFBD6
:101E80003E8DD604C79FF516E4A9902081BBB332DE
:101E9000A2C55A4C4BD7795E68E11C680DF33F7AB6
:101EA0002E0EE787F61CC495D52AA1A3B03882B1BF
:101EB00093466BCF7A5448DD59622DEB3C700EF996
:101EC0001F8FF706E69DD414C5ABB122A0B992309E
:101ED00083C77B4E6AD5585C49E33D6A2CF11E7876
:101EE0000F020606000606170C0E181818061E2309
:101EF0000704040801013E01010B0A080C00000D53
:101F00005C5C0E76800F2700107B7B1161F812134A
:101F100003132323147A7A1551530158382D396D40
:101F200053004C425420464343204C4254324643D3
:101F30004332003B807F000007170018180619077E
:101F40000508050B080D5C0E760F2710AA11391233
:101F5000111323147A154209807F000007170C180B
:101F60001806FF070408050B080D5C0E580F9D109E
:101F7000AA111012931323147A154109807F0000CF
:101F800007013443682D396D530019161A6C1B4331
:101F90001C401D912156221023A9240A2500261138
:101FA00029592C882D312E0B0307090000006400ED
:101FB000E80331068D0FA61810272D3100D57FAA12
:101FC000FE2B815429FC5683D702A87D52872DF819
:101FD000AC79D3067BAE04D18550FA2FA471DB0E09
:101FE0005A8F25F08D58F22773A60CD9F623895CF9
:101FF00008DD77A2DF0AA07521F45E8B9D48E237E9
:1020000063B61CC9B461CB1E4A9F35E0CF1AB065D8
:1020100031E44E9BE633994C18CD67B239EC4693C8
:10202000C712B86D10C56FBAEE3B91446BBE14C1B8
:102030009540EA3F42973DE8BC69C316EF3A9045A8
:1020400011C46EBBC613B96C38ED4792BD68C21798
:1020500043963CE99441EB3E6ABF15C04B9E34E188
:10206000B560CA1F62B71DC89C49E33619CC66B378
:10207000E732984D30E54F9ACE1BB16472A70DD868
:102080008C59F3265B8E24F1A570DA0F20F55F8A58
:10209000DE0BA17409DC76A3F722885DD603A97C48
:1020A00028FD5782FF2A805501D47EAB8451FB2E38
:1020B0007AAF05D0AD78D20753862CF9C8643219AF
:1020C000FFFA96321900005400000018152C015830
:1020D000028403B004DC050807340860098C0AB8E0
:1020E0000BE40C100E3C0F681094116BD6C7E5A1E1
:1020F0002952A423468C73E6A7254AF803F303E389
:1021000003E703C703CF038F039F03FF007F003F55
:10211000003F031F030F038703C303FC00F300E723
:1021200000CF00CC039C033C033303F003E00383A4
:102130000307031C0398038C033803C7007300676D
:1021400000E300F8007C001F000F00CC00C3006318
:10215000003300300318030C0303033C007800F045
:1021600000E000C000C00380030003600070003086
:1021700000380018001C000C00070001FC8CFF8DCB
:10218000FFA8FFA9FFC0FFC1FFD4FFD5FFE4FFE513
:10219000FFF0FFF1FFF8FFF9FFFCFFFDFF04000572
:1021A0000008000900100011001C001D002C002D6B
:1021B000004000410057005800FF032000000000CD
:1021C0000020204E4F484F4C445341564500466135
:1021D000696C73616665005472616D652050434D92
:1021E000005374616E656B00436162656C6C2056D0
:1021F0003300426179616E670048554253414E0099
:102200004146484453324100466C79736B7900482B
:102210006974656300436F726F6E6100536B79611F
:1022200072746563004672536B792D580046725381
:102230006B792D5638004672536B792D440043520A
:1022400053460046555450434D314B0050504D536A
:10225000494D0050504D31360050504D0061EC2337
:10226000FC0A004F70656E41565263206973206C02
:102270006F6164696E67202E2E2E00008400112489
:102280001FBECFEFD1E2DEBFCDBF00E00CBF1AE032
:10229000A0E0B2E0EEE2F1E602E00BBF02C0079080
:1022A0000D92AE32B107D9F72AE1AEE2BAE001C031
:1022B0001D92A63DB207E1F711E1CFE3D1E100E0C5
:1022C00006C021970109802FFE010F94222BCE33E7
:1022D000D10780E00807A9F70F948B1F0D94972D65
:1022E0000C94000080913E1485FF0DC02E988091C3
:1022F00080008F7C8093800080916F008B7F809323
:102300006F00B29A08952E9AF2CF4091301A8091C0
:102310002C1A86FB662760F970E0842F869590E082
:102320005EE1569FF001579FF00D1124E80FF91F51
:10233000EE5BF54E808140FF82958F7090E0880FB4
:10234000991F85539F4D092E000CAA0BBB0BABBFE9
:10235000FC018791969160918A0070918B00860FA5
:10236000971F90938B0080938A0080912C1A86FB94
:10237000222720F930E0F901E45DF54E828148170B
:1023800020F44F5F4093301A08958FEF8093301AF6
:10239000128290912C1A892F8F7B96FF80648093F4
:1023A0002C1A8091950020919400909195008913AA
:1023B000F8CF982F822F89549E4F90936D1280935F
:1023C0006C128091F11382608093F11340E040938E
:1023D000301A089590910501977F9093050190918F
:1023E000D00095FFFCCF8093D6008091D00087FF6E
:1023F000FCCF8091D6008091D00085FFFCCF609308
:10240000D6008091D00087FFFCCF8091D6008091CC
:102410000501886080930501089590910501977FDB
:102420009093050180689091D00095FFFCCF809338
:10243000D6008091D00087FFFCCF8091D60080919C
:10244000D00085FFFCCF1092D6008091D00087FF8E
:10245000FCCF8091D6009091050198609093050182
:102460000895CF93DF93C82FEFEFE80FD0E0E73068
:1024700020F4F0E0ED5BFD4FD0818CEA9FE1A0E01D
:10248000BB272C2F30E0220F331FA901330F660B1F
:10249000770B840F951FA61FB71FABBFFC01479199
:1024A000569150936F1240936E12C093B31A6D2FD2
:1024B0008EE3DF91CF918ECF80912E1481FF08C0E3
:1024C00081E08093B41A9091B31A98130AC00895CA
:1024D00080913E148F718093B41A9091B31A98171B
:1024E000B1F3BFCF8F929F92AF92BF92CF92DF9204
:1024F000EF92FF928AE89FE1A0E0BB276C017D018B
:102500004C015D0192E2890E911CA11CB11CEBBE35
:10251000F6018791B701A6014F5F5F4F6F4F7F4F65
:102520006BBFFA01679156DFA2E0CA0ED11CE11C15
:10253000F11C8C149D04AE04BF0449F7FF90EF908A
:10254000DF90CF90BF90AF909F908F900895EF92C3
:10255000FF920F931F93CF93DF938091B81A9091BE
:10256000BB1A890F9927991F6AE070E00F94D12A4E
:10257000EC018091B91A9091BA1A890F9927991F85
:102580006BE070E00F94D12A875B082F10E0E4E540
:10259000FAE120E08CEEE82EF12C0DC08A35910591
:1025A00089F08C3D910571F02F3288F440832F5FC4
:1025B000C00FD11F3196CE01B7010F94D12AAC01C3
:1025C000009761F7AC014F5F5F4F2F3278F31082B5
:1025D000213369F7DF91CF911F910F91FF90EF9019
:1025E00008958F929F92AF92BF92CF92DF92EF9217
:1025F000FF92CF93C82F89E39FE1A0E0BB276C0136
:102600007D014C015D019EE1890E911CA11CB11C54
:10261000EBBEF6018791B701A6014F5F5F4F6F4F89
:102620007F4F6BBFFA016791D5DEA2E0CA0ED11CC5
:10263000E11CF11C8C149D04AE04BF0449F752DF69
:1026400060913C142091AA1A862F062E000C990B3B
:102650002817190621F06093AA1A8CE0BBDE81E0EE
:1026600000DF6091B81AC11163E089E0B3DE8091A8
:102670000501877F809305018091D00085FFFCCF05
:102680008BE38093D6008091D00087FFFCCF8091B0
:10269000D600809105018860809305018091050135
:1026A000877F809305018091D00085FFFCCF8AE36E
:1026B0008093D6008091D00087FFFCCF8091D60018
:1026C0008091050188608093050180910501877FD5
:1026D000809305018091D00085FFFCCF86E3809335
:1026E000D6008091D00087FFFCCF8091D6008091EA
:1026F0000501886080930501CF91FF90EF90DF90F6
:10270000CF90BF90AF909F908F9008958F929F929F
:10271000AF92BF92CF92DF92EF92FF929C01462F31
:1027200081EE9CE1A0E0BB276C017D01662369F18D
:10273000415050E04F5F5F4F420F531F90E080E0E9
:10274000782F6627F9012F5F3F4F892F9927E08166
:102750008E27880F991F46015701880E991EA11CCC
:10276000B11CD501C401ABBFFC01879196918627AE
:1027700097272417350721F7FF90EF90DF90CF9030
:10278000BF90AF909F908F90089590E080E0F4CF3D
:10279000CF93DF9390910501977F909305019091DE
:1027A000D00095FFFCCF96E39093D6009091D00097
:1027B00097FFFCCF9091D60090910501986090937F
:1027C0000501C82FD0E0FE01E850F64E608185E299
:1027D00001DECC5AD54E68818AE0DF91CF91FACDE7
:1027E00080910501877F809305018091D00085FF4E
:1027F000FCCF86E38093D6008091D00087FFFCCF8A
:102800008091D600809105018860809305018091B8
:10281000B71A882309F44FC08091B61A682F660F43
:10282000660F680F660F8AE0D5DD80910501877F0E
:10283000809305018091D00085FFFCCF8BE38093CE
:10284000D6008091D00087FFFCCF8091D600809188
:10285000050188608093050180910501877F809341
:1028600005018091D00085FFFCCF83E38093D600E3
:102870008091D00087FFFCCF8091D6008091050128
:1028800088608093050180910501877F8093050111
:102890008091D00085FFFCCF85E38093D6008091A6
:1028A000D00087FFFCCF8091D60080910501886021
:1028B000809305010895E091B61AF0E0EC5AF54EC8
:1028C00060818AE087DDB1CF48E050E020E813C0A6
:1028D00090910201926090930201909102019460A4
:1028E00090930201909102019B7F909302012695A3
:1028F0004150510949F0982F922351F790910201CC
:102900009D7F90930201E9CF0895909105019F7BEF
:10291000909305019091D00095FFFCCF8093D60055
:102920008091D00087FFFCCF8091D600000080917D
:10293000D00085FFFCCF6093D6008091D00087FF48
:10294000FCCF8091D60080910501806480930501C1
:102950000895CF93C82F809105018F7B8093050147
:102960009091D00095FFFCCF80EF8093D60090919E
:10297000D00097FFFCCF8091D60080910501806444
:10298000809305011092D2001092D1008091050130
:102990008F7B8093050185E497DF809101018D7F16
:1029A00080930101ECE2FAE16C2F70E0645D754EFA
:1029B00028E030E040E090E88091000181FD492B63
:1029C00080910201846080930201809102018B7FDB
:1029D0008093020196952150310971F74193E617D2
:1029E000F70731F78091050180648093050180919C
:1029F000010182608093010180EC8093D20088E124
:102A00008093D100CF9108951092D2001092D100FE
:102A1000909105019F7B90930501806455DF809123
:102A200001018D7F8093010128E030E080E040E8E3
:102A30009091000191FD842B9091020194609093FC
:102A40000201909102019B7F9093020146952150D3
:102A5000310971F79091050190649093050190916F
:102A6000010192609093010190EC9093D20098E163
:102A70009093D10008950F931F93462F572FBC01B9
:102A8000809105018F7B809305018091D00085FFA7
:102A9000FCCF86E08093D6008091D00087FFFCCFEA
:102AA0008091D600072F1127222733278091D0004D
:102AB00085FFFCCF0093D6008091D00087FFFCCF2C
:102AC0008091D6008B01222733278091D00085FF8B
:102AD000FCCF0093D6008091D00087FFFCCF80917F
:102AE000D600052F162F272F33278091D00085FF82
:102AF000FCCF0093D6008091D00087FFFCCF80915F
:102B0000D6008091D00085FFFCCF4093D600809105
:102B1000D00087FFFCCF8091D600809105018064B2
:102B2000809305011F910F910895CF93DF93C82FD4
:102B30008FEF8C0FD0E0873068F490E0FC01E45C0C
:102B4000FD4FD081DD0FDD0FDD0F8B5C9D4FFC0154
:102B50006081D62B87ED9BE1A0E0BB272C2F30E0D6
:102B6000220F331FA901330F660B770B840F951FBC
:102B7000A61FB71FABBFFC014791569150936F1230
:102B800040936E12C093B31A6D2F88E2DF91CF91FC
:102B9000BCCE80912E1481FF08C081E08093B41ACE
:102BA0009091B31A98130AC0089580913E148F71C2
:102BB0008093B41A9091B31A9817B1F3B6CFCF930C
:102BC000DF9380913C149091AA1A282F082E000CB4
:102BD000330B9217130619F4DF91CF910895809368
:102BE000AA1A2CEE829FC001112464E670E00F94B3
:102BF000D12AEB012196CC0FDD1F6BE481E185DE4C
:102C00006D2F82E182DE6C2F83E1DF91CF917DCE4B
:102C1000909105019F7D9093050180629091D00075
:102C200095FFFCCF8093D6008091D00087FFFCCF2A
:102C30008091D6009091D00095FFFCCF6093D60094
:102C40009091D00097FFFCCF9091D6009091050114
:102C50009062909305010895382F209105012F7DF2
:102C6000209305012091D00025FFFCCF80EA8093BE
:102C7000D6002091D00027FFFCCF8091D60066239C
:102C8000C1F0E32FF92F6150AF014F5F5F4F460F47
:102C9000511D21919091D00095FFFCCF2093D6003B
:102CA0009091D00097FFFCCF9091D600E417F507E4
:102CB00081F7909105019062909305010895382F56
:102CC000209105012F7D209305012091D00025FF43
:102CD000FCCF81E68093D6002091D00027FFFCCF67
:102CE0008091D6006623C9F0E32FF92F9F012F5F53
:102CF0003F4F6150260F311D4FEF9091D00095FF4F
:102D0000FCCF4093D6009091D00097FFFCCF9091DC
:102D1000D6009193E217F30781F790910501906235
:102D2000909305010895CF92DF92EF92FF928091E8
:102D30002E1481FF0CC081E08093B41A9091B31AD5
:102D400098130EC0FF90EF90DF90CF900895809180
:102D50003E148F718093B41A9091B31A981791F31F
:102D60004EEB5AE160E07727282F30E0220F331F27
:102D70006901330FEE08FF084C0D5D1D6E1D7F1DB0
:102D80006BBFFA014791569150936F1240936E12A8
:102D90006091AA1A697F2670622B6093AA1A8093A9
:102DA000B31A86E0FF90EF90DF90CF9031CFE5E04F
:102DB000F1E0808188608083808180618083808170
:102DC00080628083808180648083E4EDF0E0118202
:102DD000108280EC8093D20088E18093D100118230
:102DE000108208959C01809154198871803121F1DD
:102DF0002F5F3F4F8091E1198F33F9F08F5F9091F2
:102E0000E219981741F0E091E119F0E0EF55F64E24
:102E100030838093E1198091E1198F3381F08F5FC6
:102E20009091E219981741F0E091E119F0E0EF5527
:102E3000F64E20838093E119089580E0E0CF80E092
:102E4000EFCF5F926F927F928F929F92AF92BF92DD
:102E5000CF92DF92EF92FF920F931F93CF93DF9366
:102E600000D0CDB7DEB76B01742E1B821A82198297
:102E70004EEF57E160E07727882E912C880C991C43
:102E8000092C000CAA08BB08480D591D6A1D7B1DA2
:102E90006BBFFA014791F42E8EEF97E1A0E0BB27BC
:102EA0002FEF821A920AA20AB20A880D991DAA1D52
:102EB000BB1DABBFFC018791E12C841708F485C0D2
:102EC0003CE0632E5524539421C06D5F7F4FFA017F
:102ED0001995882309F49AC08B81F601F0FE94C0FD
:102EE0008183E394E71408F070C0EE24E394F39434
:102EF0008EEF97E1A0E0BB27880D991DAA1DBB1D91
:102F0000ABBFFC0187918F1508F45FC00F2D10E057
:102F100080918C1990918D19A0918E19B0918F1973
:102F20000F2C04C0B695A795979587950A94D2F76C
:102F300080FFDDCF86E098E1A0E0BB27000F111FE6
:102F4000000F111F012E000C220B330BB901A80139
:102F50004F5F5F4F6F4F7F4F840F951FA61FB71FA7
:102F6000ABBFFC01879146E058E160E07727400F56
:102F7000511F621F731F6BBFFA01979146E058E122
:102F800060E077270E5F1F4F2F4F3F4F400F511FBD
:102F9000621F731F6BBFFA0147915691923060F127
:102FA000943051F15092B800BE01933008F48DCFA7
:102FB0006F5F7F4FFA011995882309F189819A8102
:102FC000F60191838083E394E39481E08093B800D9
:102FD0008E2D0F900F900F90DF91CF911F910F9139
:102FE000FF90EF90DF90CF90BF90AF909F908F9029
:102FF0007F906F905F9008956092B800D5CF8981DF
:103000009A8180959095DCCF80836BCF8B81809562
:103010008B8363CFCF92DF92EF92FF920F931F9338
:10302000CF93DF938C01EB01009771F5209749F165
:103030009B0177FDA6C020FD98C060E070E0CB0149
:1030400096958795779567953595279560FF32C05A
:10305000032E000C440B550B0F94E42A2F3F31052F
:103060004105510509F008F483C020E031E0D7FFA5
:103070005AC017FD8BC0C9019A5F2115324009F073
:1030800058C090E080E055C0FC0197FD65C06F011D
:10309000AE01D7FD57C09A01E417F507B4F4BF019C
:1030A000FF0F880B990B982F872F762F662720FF0D
:1030B00003C0CECF20FDCCCF9695879577956795A9
:1030C0003595279560FFF6CFC3CF052E000C660B14
:1030D000770B962F852F742F6627E0FF03C00AC059
:1030E000C0FC08C09695879577956795D594C79449
:1030F00060FFF6CF0D2C000CEE08FF08A70196012B
:103100000F94E42A2F3F31054105510511F008F0D5
:10311000ACCFF901EA59F74EE49120E032E02E1BE2
:103120003109D7FDA6CF17FD29C080E092E0821BB0
:10313000930BDF91CF911F910F91FF90EF90DF9054
:10314000CF900895442755274C1B5D0B9A01E41737
:10315000F5070CF0BACFA3CFEE27FF27E81BF90B3A
:103160006F01AE01D7FF97CFEDCF20E030E0A9018E
:103170002A59374EF901249130E0D3CFC9019E5F1F
:10318000D8CF22273327261B370B55CF80E096E078
:10319000821B930BCECFA82FB0E0FD01E954FD4E6A
:1031A0008081860F80839091971076E09923C9F0F3
:1031B00080E1989F90011124F901EA0FFB1FEE0FA7
:1031C000FF1FE253F84E40815181493E83E058078A
:1031D0008CF087E1840F8917C8F198E1940F715042
:1031E00029F7FD01EE0FFF1FE253F84E4081518198
:1031F00030E020E0F901EA0FFB1FEE0FFF1FE25362
:10320000F84E88E06802B0011124460F571F48317C
:103210008CEF580714F448E15CEF493E83E058070F
:1032200014F048EE53E05183408380912D14806167
:1032300080932D142FB7F894809176139091771383
:103240002FBF90931A0C8093190C0895982FC7CF15
:10325000CF93DF93FC01EB01BA01481759071CF02B
:103260008C179D074CF5613871050CF4E05841E06E
:1032700050E0E7FD36C00E2E000CFF0B96E0222337
:1032800099F080E2289FD0011124AE0FBF1FAE52EB
:10329000B84E3C913A375CF086E8830F8217B0F065
:1032A00027E8230F915059F7EE52F84E308134033E
:1032B000F001359FF00D1124CF01EC17FD0764F0EC
:1032C000681779072CF0DF91CF910895282FEACF66
:1032D000CB01DF91CF910895CE01681779079CF754
:1032E000F7CFE0954FEF5FEFC6CFDB0168387F4F38
:1032F00014F4A8E8BFEFA937B10514F0A8E7B0E0CF
:10330000282F30E096E0442399F080E2489FF001B6
:103310001124E20FF31FEE52F84E80818A3794F1A8
:1033200056E8580F541760F147E8480F915059F785
:1033300090E080E0880F991F82959295907F982762
:10334000807F9827820F931FFC01EE52F84E8081F8
:10335000082E000C990B8A179B0789F0A083809197
:103360002D14806180932D142FB7F89480917613DB
:10337000909177132FBF90931A0C8093190C089596
:10338000452FD4CF842F440F990BD4CF462F50E034
:103390009A0182508A3298F4E82FF0E08827E756A5
:1033A000F24D8E4F0D94222B4D5751099A01220F49
:1033B000331F220F331F240F351F220F331FC90164
:1033C000089585E0689F90011124C90108959A012C
:1033D000220F331F220F331F220F331F245F314070
:1033E000EECF9A012E513109EACF9A01220F331FF5
:1033F000E6CF82E3689F90011124E1CF9A01220F6A
:10340000331F220F331F220F331FD9CF84E1689F50
:1034100090011124D4CF84E6689F90011124CFCF6E
:10342000882399F087FD0AC08B316CF08532B4F0A7
:1034300089326CF08C324CF4895A0895863E84F4BB
:1034400081958B319CF7805C089580E20895E82F88
:10345000880FFF0BE054F94E849108958B5E089518
:10346000E0E6E81B8E2F08958823C9F0E82FF0E0EE
:10347000E358F94E408195E0899F90011124240F73
:10348000311D47FD3A952A57394E41E0480F8F3F8D
:1034900071F1499FC00111244150550B06C050E005
:1034A00040E085E090E026E836E14258594EFA01C6
:1034B0004081840F911D47FD9A958A5A9D4F805DEA
:1034C0009B4E821B930B80FF08C08F7790E09795EF
:1034D00099279795B901892B089586958F5F8F77E6
:1034E00091E0979599279795B901892B089586E5DD
:1034F00092E0E5CF8F929F92AF92BF92CF92DF92F0
:10350000EF92FF920F931F93CF93DF9300D000D0E1
:10351000CDB7DEB789839A83862FA6DFFB01298189
:103520003A813C5F121613064CF4A82FAF77211591
:1035300048E034070CF1EA0FF11D31972081022E8B
:10354000000C330B922F882769E170E00F94D12A89
:10355000CB0126960FB6F894DEBF0FBECDBFDF912C
:10356000CF911F910F91FF90EF90DF90CF90BF9080
:10357000AF909F908F9008958A2E912CB401615046
:10358000710987FF55C0161617060CF09FC074010D
:1035900052E0E51AF108D12C10E000E050E040E0E4
:1035A00099E2C92E31C04E0F5F1F480D591DDA0137
:1035B0004C91BC2D4B02C001112495958795959592
:1035C0008795042E000C550B5A01AA24BB0CAA1C8B
:1035D000BB244A195B09042E452F000C441F550BD0
:1035E000000C441F551F841B950B8A199B099C5F77
:1035F0008217930708F05BC0D3944D2D50E0461717
:1036000057070CF056C08C014E155F0561F64D2D25
:1036100050E0DF01A40FB51F201B310B4F5F5F4F40
:10362000C12C88E0D82EC01AD10AF12CE12C1AC086
:1036300080E098E00F94D12A6B01C9010F94BD2A54
:10364000AB015527DF01A40FB51F4C9DC0014D9D57
:10365000900D5C9D900D1124281B390B4F5F5F4F1F
:10366000F12CE12C8C91A82F0A2E000CBB0BBE83F1
:10367000AD83E40FF51FA0810A2E000CBB0B4D811A
:103680005E81A41BB50B0F94462BB82FA72F962F46
:103690008827BC01CD01A70196010F94062BAD81AF
:1036A000BE81BA2FAA27CD01820F931F4DCF4D2D7A
:1036B00050E0DF01A40FB51F201B310B4F5F5F4FA0
:1036C000801B910B6C01F12CE12CCCCFDF01C12CC4
:1036D000D12C760141E050E0C5CFCF92DF92EF923E
:1036E000FF92CF93DF9300D000D0CDB7DEB7F82F95
:1036F000E92F262F062E000C330B862F880F990BEF
:10370000A9014427550F441F5527241B350BB90128
:1037100075956795680F791F640F751F3595279507
:10372000359527953595279535952795260F371F7C
:10373000420F531F5E834D832F2F3E2FAF2FBE2F7F
:103740000F94372BDA019B01AC010F944C2B272FE0
:10375000382F492F5527AF2FBE2F0F944C2B6B01BD
:103760007C013CE0F694E794D794C7943A95D1F75E
:1037700020E031E08D819E81281B390B0F94372B7F
:10378000DC01CB0180589F4FAF4FBF4F8C0D9D1D6B
:10379000AE1DBF1D892F9A2FAB2FBB2726960FB6C4
:1037A000F894DEBF0FBECDBFDF91CF91FF90EF90B9
:1037B000DF90CF9008954F925F926F927F928F9299
:1037C0009F92AF92BF92CF92DF92EF92FF920F93B0
:1037D0001F93CF93DF9300D000D0CDB7DEB74A015F
:1037E0005B01482E512C7201EE0CFF1CEE0CFF1CED
:1037F000C2018E0D9F1DFC01EF51FA4E60812181A7
:10380000722F7F73660F771F660F771FFB01F59589
:10381000E795F595E7953B01660C672C661C7708E4
:103820006E0E7F1EDC01A152BA4E4C914C5929E21A
:10383000D22E2D2D42028001112415950795159544
:103840000795042E000C550B9A012227330F221FD7
:103850003327421B530B042E452F000C441F550BDE
:10386000000C441F551F041B150B021B130B825227
:103870009A4EDC018C918456BD2D8B02A00111243F
:103880005595479555954795082E000C990BDC01E9
:10389000AA27BB0FAA1FBB278A1B9B0B082E892FA9
:1038A000000C881F990B000C881F991F481B590B8F
:1038B0006A01CA1ADB0A672F770F770B6595661ABC
:1038C000770AEF2FFF0FFF0BE595E60DF71DEC15BF
:1038D000FD050CF4F6013F010E171F070CF438012B
:1038E000C2018E0D9F1D82529A4EFC01F4808114FC
:1038F0009104A104B10409F440C0F6FE88C0A41BE1
:10390000B50B181419041A041B040CF4D801A501F2
:10391000940121153105FCEF4F07FFEF5F0724F4F9
:1039200020E030E04CEF5FEF2130310564E04607E6
:10393000510524F020E030E044E050E00F94562B95
:1039400069837A838B839C83DC01CB01BB0F880B5B
:10395000982FDC01282F217049815A816B817C814D
:10396000840F951FA61FB71FCD0195958795959537
:103970008795820F911D680E791EC3016C147D041A
:103980000CF4C601081719070CF4C801F7FE03C0B0
:10399000919581959109B20160527C4EDB012C9189
:1039A0002038F1F0B9E22B02C001112495958795DA
:1039B00095958795022E000C330BA9014427550FCE
:1039C000441F5527241B350B022E232F000C221FCA
:1039D000330B000C221F331F821B930B841B950B90
:1039E00026960FB6F894DEBF0FBECDBFDF91CF9104
:1039F0001F910F91FF90EF90DF90CF90BF90AF900D
:103A00009F908F907F906F905F904F9008951814C3
:103A100019041A041B0424F4D801A619B70977CF96
:103A2000D301AC19BD0973CFE7E28111EFE02E2F6E
:103A30000E2E000C330B9AE0E99FF0011124E05D9B
:103A4000FB4E40E012C0D901AA0FBB1FAA0FBB1F3B
:103A5000A20FB31FA25DB94E9C91937091114F5F5D
:103A6000215031093A9727FD04C08111ECCF978D81
:103A7000F5CF50E0882329F0403151056CF480E007
:103A8000089548325105DCF38BE898E0909380105C
:103A900080937F1081E0089580EA98E090938010F1
:103AA00080937F1081E008956091511023CD0F9392
:103AB0001F93CF93DF93C82F80915110D5DC282F0F
:103AC000D82FDF7740E030E0CD17F0F5FB010C2F69
:103AD00010E030E2C39FC00111246D2F669570E0A5
:103AE0000F94D12A3DE3360FE00FF11F4081042EE1
:103AF000000C550B4C595F4F6FE3649FC001659FED
:103B0000900D112468E37FEF0F94D12A4FE3460F05
:103B100027FF1AC0CC23C1F08D2F90E0BC0161506B
:103B200071090617170784F4E80FF91F3197808190
:103B300020E48202C00111248C59964E68EC70E09A
:103B40000F94D12A3DE3360F832F942FDF91CF912D
:103B50001F910F9108953F924F925F926F927F92C3
:103B60008F929F92AF92BF92CF92DF92EF92FF928D
:103B70000F931F93CF93DF93C62FC695C695C69517
:103B800070E8C79FE0011124E42FE052FF0BDF0132
:103B9000EE0FFF1FEE0FFF1FEA0FFB1FE656F84F59
:103BA0003FEF380F30934F0CDE01A80FB11DA05B23
:103BB000B34F722F717020FFF3C090917613592F7D
:103BC000507496FF03C0572F21FFC3C0922F9474E7
:103BD000722F7470972E992339F094ED940F9F30C3
:103BE00008F0EDC095ED940F911080C0462F4770FE
:103BF000722F7074972E26FF06C065E0969FF00125
:103C00001124E459F04FBE016F52734FE42EF12C92
:103C100066246A94712C042E01C0660C0A94EAF79B
:103C2000762C709490E0C22FC8708C2E08E010E0C3
:103C30000E191F092071322E992309F44EC0EF018D
:103C4000963009F4A1C02196992009F49FC0E4910F
:103C5000EF3F09F495C05111E095882019F092309A
:103C600009F4AAC0F0E1A135BF0778F5A617B70798
:103C700060F54E2E512CCC90B72CBC2062010E2C3E
:103C800001C0CC0C0A94EAF7CB28CC924423E9F08B
:103C90005D0120E8A20EB11CE1E5AE16E0E1BE0632
:103CA00068F4F501D080D620F201002E02C0F5950F
:103CB000E7950A94E2F7DE2AF501D082552329F030
:103CC000413019F46894C0F8CC9211963F5FFE0120
:103CD0009630E9F19F5F9111B2CF882309F45CC05F
:103CE000552309F459C0EF01EFEFB7CFC4E19C9F12
:103CF000F0011124E65BFD4F90E09923F1F09B3039
:103D000009F446C04081BF016E5F7F4F2181E42FDF
:103D1000E223EF3F81F1FB0151112FC0ED01C058AB
:103D2000DF4F60E1C135D60718F44D9328833F5F1C
:103D30009B3069F09F5F9111E2CF882321F02FEF34
:103D40004FEF5111EBCF3F5F11969F5FF4CF309350
:103D50004F0CDF91CF911F910F91FF90EF90DF906B
:103D6000CF90BF90AF909F908F907F906F905F901B
:103D70004F903F900895FB01DBCF40952095CECF2B
:103D8000FE01332009F4A4CFE0E065CFE08160CFED
:103D9000BF0120E040E0BFCF3F5F11969F5F9BCF08
:103DA00021FB552750F9922F9474722F7470972E1F
:103DB000992309F419CF11CFFE019F5F8CCF9FEBA0
:103DC000940F9A3138F09FE9940F9A3148F499ECA6
:103DD000940F0ACF9FEC940F992009F407CF86CF58
:103DE0004F3539F0403239F0772339F0EAE4F2E028
:103DF00083CF94E0F9CE90E0F7CE2F7B462F47702B
:103E000002CFAF92BF92CF92DF92EF92FF920F93C9
:103E10001F93CF93DF93A82EC62EEA01B02EEE2477
:103E2000EA94E20E222309F44FC0102F107AF12CED
:103E30008FEFE81AF80AE40EF51EDA2C00E014C041
:103E4000FE014491011119C04423E9F0403260F5AC
:103E50004F3189F14E3189F1942F990F490FD40ECA
:103E60002196CE15DF0579F01032E1F0103841F7D8
:103E70008881D6DA482F002339F3D42E00E021962A
:103E8000CE15DF0589F7D092500CD0924F0CDF9100
:103E9000CF911F910F91FF90EF90DF90CF90BF9047
:103EA000AF9008954881CECF2B2D6C2D8D2D53DEF4
:103EB000D0904F0CD5CF01E0D3CFF8E0CF0E8FE3F9
:103EC0008C1510F0DA2CCCCFDA2CDDCFEF92FF92EC
:103ED0000F931F93CF93DF93D62F142F7901C5E152
:103EE000C60F982F990F990F980FD91BDB5E0FC043
:103EF000495C28E0202B612F8C2F2DDEF294E29478
:103F00008FE0E822EF24F822EF24CD1741F0C550CE
:103F10004E2D4F704A3064F7405D20E0EBCFDF91CB
:103F2000CF911F910F91FF90EF9008950F93922FD3
:103F3000202F30E1439FF0011124E90FF11DEE0F16
:103F4000FF1FE253F84E0190F081E02DE93E33E08F
:103F5000F30754F097E19E0F941710F098E19E0F2D
:103F600040E3490F0F91F7CD41E6490F0F91F3CD93
:103F70009F92AF92BF92CF92DF92EF92FF920F93F8
:103F80001F93CF93DF93182FD62E942EA22EB02EF0
:103F900000E02FEF45E358E080E033DFC09082106F
:103FA000D0E0C0E0EA2CF12C13C0C7010C2E02C0F7
:103FB000959587950A94E2F722E080FD20E0405D28
:103FC0006D2D812FC8DD1A5F2196C630D10539F0DD
:103FD0004C2FCC12EACF23E0B110F1CFE6CFBB20BB
:103FE00039F080918510882319F080E2981669F0E5
:103FF0008A2DDF91CF911F910F91FF90EF90DF906D
:10400000CF90BF90AF909F9008951092851081E05F
:1040100090E001C0880FCA94EAF7A82680912D1479
:10402000806180932D142FB7F8948091761390912E
:1040300077132FBF90931A0C8093190CD9CF4F92FE
:104040005F926F927F92AF92BF92CF92DF92EF9288
:10405000FF920F931F93CF93DF93782FC901DA015B
:10406000ABBFFC01B79029013A0122E0420E511C7E
:10407000611C711C0196A11DB11DABBFFC01879194
:10408000282F30E0295F3F4F3595279535952795A7
:1040900035952795A22E91E0E1FC04C09E2D9170EC
:1040A000E0FC61C00B9D80011124029F6001039F11
:1040B000D00C129FD00C11240D2C000CEE08FF0820
:1040C000C40CD51CE61CF71CAA2009F43DC04424EE
:1040D0004A944B0CC42DD0E066956695669580E8B1
:1040E000689FD0011124A70FB11DAC0FBD1FAE5AA0
:1040F000B34F10E0C095D095512C712C612C2FEF4F
:10410000421A520A620A720A9E012A0F3B1FBB2002
:10411000B1F0B701A60101C09F016BBFFA01879101
:104120004F5F5F4F6F4F7F4F91118095F9018193E2
:10413000EA17FB0789F7C40CD51CE61CF71C1F5FA8
:10414000A058BF4FA112E0CFDF91CF911F910F91E7
:10415000FF90EF90DF90CF90BF90AF907F906F90E7
:104160005F904F9008959091761390749BCFFC01CF
:104170009081990F21812F5F8281662309F440C0CD
:10418000916090832183882309F47EC0482F50E0FA
:104190008F3509F458C060F0813609F45EC082366C
:1041A00009F088C0203488F088E082831182089565
:1041B0008130B9F0893050F4825091E001C0990FFC
:1041C0008A95EAF7892F857429F40895803191F54D
:1041D00040E150E08181803370F1559547954283ED
:1041E0001182EB51FC402BEA3AEAE29FC001E39FC7
:1041F000900DF29F900D1124806480934E0C0895D1
:1042000090832183882309F3911155C0833679F077
:10421000AF014B515C402BEA3AEA429FC001439FF9
:10422000900D529F900D1124806280934E0C11824C
:104230001282089508954150510990E0482359236E
:10424000452B79F208958181803221F1883209F07D
:10425000BCCF80E1828311820895AF014B515C4055
:104260002BEA3AEA429FC001439F900D529F900D66
:104270001124806680934E0C10924C0C10924B0CC3
:104280008FE58283118208959F3099F481E68283BD
:1042900011820895EB51FC402BEA3AEAE29FC001FB
:1042A000E39F900DF29F900D1124806880934E0C37
:1042B000089508950895482F50E08F3521F250F465
:1042C000813009F48ECF893008F476CF803109F43B
:1042D0007FCF0895813609F2823609F463CF0895BD
:1042E000CF93DF93C0E3D4E148EF5AE030E020E021
:1042F000F901EE0FFF1FE20FF31FEE0FFF1FEE5B42
:10430000FB4E80818695869586958370D1F0FA0163
:10431000858196816B897C896817790791F09C8BE0
:104320008B8B80912D14806180932D146FB7F8943E
:1043300080917613909177136FBF90931A0C8093AE
:10434000190C2696485F5F4F2130310519F4DF9133
:10435000CF91089521E030E0CBCF8091D3188F70BA
:104360001092C500833011F18FEC8093C4008091CE
:10437000C00082608093C0001092C10086E08093EC
:10438000C2008091C10080618093C1008091C00013
:1043900087FF06C08091C6008091C00087FDFACFDC
:1043A0008091C10080688093C100089581E280936C
:1043B000C4008091C00082608093C000DDCF8091F6
:1043C0006C0A90916D0A2091840A3091850A0097B9
:1043D000E9F0820F931F9093850A8093840A2091BD
:1043E000C90A3091CA0A2817390724F49093CA0AD7
:1043F0008093C90A2091C70A3091C80A821793078F
:1044000024F49093C80A8093C70A089531952195A2
:10441000310930936D0A20936C0ADDCFFC01262F01
:104420008081811111C060838181882359F0281710
:1044300048F0411120838281882311F0821708F40B
:10444000228308952183F5CF90E0880F991F860F6E
:10445000911D63E070E00F94D12A621708F46F5F3A
:104460006083E2CF8091D41885958595835D08950A
:10447000EDE4F3E190E0892F806480937C008091EB
:104480007A00806480937A0080917A0086FDFCCF68
:10449000209178003091790080917A008064809337
:1044A0007A0080917A0086FDFCCF4091780050918F
:1044B0007900240F351F219331939F5F9830D9F6EF
:1044C0000895EFE6F0E080818D7F8083B19A1092AD
:1044D000CB131092CA13ECE2FAE180E9DF011D92DE
:1044E0008A95E9F708958091090190E0809590956B
:1044F0008F739927892B11F4959902C0A895F3CF52
:10450000639BFCCFEBE1FCE080E3DF011D928A9529
:10451000E9F710924E0C0895809142148871803111
:1045200061F01092FC0A8091401490914114909394
:10453000FE0A8093FD0A1092FF0A80914814887148
:10454000803161F01092040B8091461490914714D1
:104550009093060B8093050B1092070BE2E6FAE0AE
:1045600081E8DF011D928A95E9F71092E30A8091B4
:104570002E14877F80932E141092451310924413AB
:1045800010924313109242131092C2121092C11251
:104590001092C4121092C3121092C5121092C81237
:1045A0001092C7121092C6120895CF93DF93D82F9E
:1045B000C92F87DF10926F1210926E120E94D716C9
:1045C000E2E6FAE081E8DF011D928A95E9F71092B0
:1045D000E30A809103028F3F39F0E091281AF091AD
:1045E000291A82E090E0199590913A14392F32956A
:1045F00036953695337080913B14282F2F70220FFB
:10460000220F232B213108F064C0822F90E0FC019F
:10461000EE0FFF1FE80FF91FEE0FFF1FEE53F64FCF
:104620000480F581E02D20930302F093291AE09392
:10463000281A83E090E019952091CC1380913B14C7
:1046400082958F7022952F70821708F4282F22955B
:10465000207F80913B148F70282B20933B148091F6
:10466000CE1320913C1428170CF4282F8091CF13DF
:1046700082170CF4282F20933C148091D0132091A2
:104680003D1428170CF4282F8091D11382170CF4B5
:10469000282F20933D142091CD13220F220F220F9B
:1046A00080913E148F7125952595259582170CF4E0
:1046B000282F2F7180913E14807E282B20933E144A
:1046C000E091281AF091291A8D2F9C2FDF91CF911C
:1046D00019949F7390933A14807F80933B14EBEC72
:1046E000FDE920E0A0CFCF938091B81A9091B91A3C
:1046F00090932E1A80932D1A8091BA1A9091BB1A1A
:104700009093301A80932F1A8FEF9FEF9093321A65
:104710008093311A9093341A8093331A1092361A78
:10472000E7E3FAE1858D81938AE1E734F807D1F771
:104730004AE050E06FEF70E087E49AE10F94902D2B
:104740001092511A8091B71A882399F0CFEFC80FB1
:10475000C33068F49CEB90932C1A833091F0C09393
:10476000351A81E08093471A80E88093481ACF91E8
:1047700008958BEB80932C1A81E08093351ACF91AA
:1047800008958091F4199091F519A091F619B091BE
:10479000F7198093311A9093321AA093331AB09379
:1047A000341A40E150E06FEF70E087E39AE10F9434
:1047B000902DD5CF2F923F924F925F927F928F9202
:1047C0009F92AF92BF92CF92DF92EF92FF920F93A0
:1047D0001F93CF93DF9300D00F92CDB7DEB71C01AC
:1047E0002B0164E670E080918A0A90918B0A0F9405
:1047F000D12A762E172FDC0120E137E20F94462BC9
:1048000069837A838B839C838091980A9091990A1B
:10481000C980DA80EB80FC80C80ED91EE11CF11C37
:10482000D701C601A601B701440F551F661F771FA8
:10483000440F551F661F771F6A017B01C80ED91EE2
:10484000EA1EFB1EC701B6012BEA3AEA4AEA5AEA17
:104850000F94AC2B00E20F944C2C49015A01B694F2
:10486000A79497948794A72DB12F20E432E44FE0CA
:1048700050E00F94562B69837A838B839C83860E3A
:10488000971EA81EB91ED1018D929D92AD92BC9229
:10489000139764E670E08091880A9091890A0F94DA
:1048A000D12A762E172FDC0120E137E20F94462B18
:1048B00069837A838B839C838091960A9091970A6F
:1048C000C980DA80EB80FC80C80ED91EE11CF11C87
:1048D000D701C601A601B701440F551F661F771FF8
:1048E000440F551F661F771F6A017B01C80ED91E32
:1048F000EA1EFB1EC701B6012BEA3AEA4AEA5AEA67
:104900000F94AC2B0F944C2C49015A01B694A794E8
:1049100097948794A72DB12F20E432E44FE050E024
:104920000F94562B860E971EA81EB91ED2018D928B
:104930009D92AD92BC9213970F900F900F900F9095
:10494000DF91CF911F910F91FF90EF90DF90CF906B
:10495000BF90AF909F908F907F905F904F903F90CF
:104960002F900895CF92DF92EF92FF920F931F93B3
:10497000CF93DF93CDB7DEB760970FB6F894DEBF65
:104980000FBECDBF8091AC0A982F927081FD0EC0F2
:104990002091A40A3091A50A232B09F479C082FF43
:1049A0007BC0897F82608093AC0A92E02091B40A38
:1049B0003091B50A232B59F420916E0A30916F0A79
:1049C0003195219531093093B50A2093B40A20918D
:1049D0006C0A30916D0A232BC9F420916E0A309134
:1049E0006F0A4091B40A5091B50A240F351F3093D5
:1049F000850A2093840A4091C90A5091CA0A421735
:104A00005307D4F53093CA0A2093C90A992329F190
:104A100080919C0A90919D0AA0919E0AB0919F0A54
:104A20004091A00A5091A10A6091A20A7091A30A34
:104A3000842B952BA62BB72B892B8A2B8B2B91F1B3
:104A4000E0915A10F0E0EE0FFF1FE05AFF4E808118
:104A50009181855C954E09F48EC060960FB6F894EE
:104A6000DEBF0FBECDBFDF91CF911F910F91FF90A1
:104A7000EF90DF90CF9008954091C70A5091C80AF7
:104A8000241735071CF63093C80A2093C70ABECFF7
:104A9000897F8093AC0A8ACF84608093AC0A982F78
:104AA000927084CF60EA7AE08CE99AE083DEE0904D
:104AB0009C0AF0909D0A00919E0A10919F0AE98637
:104AC000FA860B871C8720E1C22E27E2D22EE12C2A
:104AD000F12C69857A858B859C85A70196010F94B9
:104AE000E42ACA01B9010F94AE2AA70196010F94D6
:104AF000E42A29873A874B875C87CA01B9010F945A
:104B0000AE2A29E130E040E050E00F94E42A690148
:104B10007A0100E8C00E06E9D01E08E9E01EF11C8B
:104B200029853A854B855C856AEE71EE81E090E0DF
:104B30000F94AE2A21E530E040E050E00F94E42AE3
:104B4000D701C601821B930BA40BB50BBC01CD0191
:104B500024ED30E340E050E00F94E42AABE8B0E00D
:104B60000F944C2B60937A0A70937B0A80937C0A93
:104B700090937D0A72CFBE016F5F7F4FCE01059685
:104B800019DE80919C0A90919D0AA0919E0AB09195
:104B90009F0A4D815E816F81788584179507A607EE
:104BA000B70708F493C07C018D01E41AF50A060BDF
:104BB000170BA80197016AE572EB81E090E00F9472
:104BC000AE2A20E432E44FE050E00F94E42ACA0118
:104BD000B9010F94AE2A6D877E878F87988B80915D
:104BE000A00A9091A10AA091A20AB091A30A4981BA
:104BF0005A816B817C8184179507A607B70708F057
:104C00006CC09A01AB01281B390B4A0B5B0B8091DE
:104C10007A0A90917B0AA0917C0AB0917D0ABC012E
:104C2000CD010F94AE2A20E432E44FE050E00F941F
:104C3000E42ACA01B9010F94AE2A6B017C018D856B
:104C40009E85AF85B889C80ED91EEA1EFB1E8091CD
:104C50006C0A90916D0A892B09F448C08091840AEE
:104C60009091850A97FD4EC0DC019C010F94312B79
:104C7000C60ED71EE81EF91E00E110E040E050E825
:104C8000E0E0F0E802C04E2B5F2B9A01DA010F94AE
:104C9000372BC616D706E806F90610F44E275F270D
:104CA000F695E7950150110971F75093B30A4093B7
:104CB000B20A8091D30A9091D40A8417950708F01C
:104CC000CCCE5093D40A4093D30AC7CE9A01AB01FD
:104CD000281B390B4A0B5B0B6ECF7C018D01E41A4C
:104CE000F50A060B170BA801970191CF80916E0A68
:104CF00090916F0A2091B40A3091B50A820F931FE8
:104D000097FFB2CF919581959109AECFCF92DF9267
:104D1000EF92FF920F931F93CF93DF9300D00F92E8
:104D2000CDB7DEB789839A83162F042F29813A8164
:104D300037FD98C0112341F08FEF810F1E3009F429
:104D4000A7C0833109F4C0C0802F80738051990BB4
:104D5000959587959595879595958795959587953B
:104D600018166CF46AE070E089819A810F94D12A58
:104D70006B017C017A836983892B09F07FC04981AB
:104D80005A81483E83E0580714F1403D97E05907A7
:104D90000CF09CC08DE691E00E94F21689819A8108
:104DA00068EE73E00F94D12A9A838983892B79F472
:104DB000111139C00F900F900F900F90DF91CF918C
:104DC0001F910F91FF90EF90DF90CF900895298170
:104DD0003A8124363105CCF1283C31050CF080C0F5
:104DE00084E691E00E94F21689819A8164E670E07F
:104DF0000F94D12A9A838983892BD1F289819A8150
:104E00006AE070E00F94D12A019731F449815A8108
:104E10004A3551050CF46EC089819A8193950E94A0
:104E2000F216112339F2812F90E084589E4F0F9093
:104E30000F900F900F90DF91CF911F910F91FF90E6
:104E4000EF90DF90CF900C94F21689819A816AE0FE
:104E500070E00F94D12A0197C9F289819A8197FD58
:104E6000A7CFDACF89E791E00E94F21649815A81F3
:104E70005195419551095A8349835CCF40E060E0E8
:104E8000C60144DFC7018C549E4F0E94F21690CF9A
:104E900022E349815A81249FC001259F900D11244E
:104EA0009C01990F440B550B29833A834B835C83F8
:104EB000CA01B9012BE130E040E050E00F94E42A50
:104EC0003A83298315E040CF17E03ECFCA0168EE50
:104ED00073E00F94D12ACB0140E060E017DF5ACF96
:104EE000C90164E670E00F94D12ACB0193950E942A
:104EF000F21676CF07FFB1CFCA016AE070E00F94D7
:104F0000D12ACB0182599E4F0E94F21651CFCF93E6
:104F1000DF93EC01009709F43FC097FD35C0CE0147
:104F200060E17EE00F94D12A262FEC01611122C0AE
:104F3000CE016CE370E00F94D12A262FEC016111B1
:104F40000FC0209719F4DF91CF91089540E860E0F9
:104F5000CE01DCDE8DE891E0DF91CF910C94F2166A
:104F600040E860E0822F972FD1DE8CE891E00E942C
:104F7000F216E7CF40E860E0822F972FC7DE8BE87C
:104F800091E00E94F216D4CF89E791E00E94F216D8
:104F9000D195C195D109C3CF40E860E090E080E0B1
:104FA000DF91CF91B3CECF93262F30E0882371F1DC
:104FB000C5E06C9FC0011124825D994E4FE050E026
:104FC000421B530B9A01220F331F220F331F420F34
:104FD000531FBC016B5F7F4F0F947F2DE9E7F6E114
:104FE000DF011D92CA95E9F780912D1480618093AD
:104FF0002D142FB7F89480917613909177132FBFCB
:1050000090931A0C8093190CCF910895CAE06C9F6D
:10501000C0011124825B9B4E47E250E0BA01621B43
:10502000730B9B01AB01440F551F440F551F420FDB
:10503000531F440F551FBC01665F7F4F0F947F2D98
:10504000E4EDF5E1DF011D92CA95E9F7CDCFDF92DE
:10505000EF92FF920F931F93CF93DF930091541021
:105060001FEF100FE62EF12C882309F448C005E04D
:10507000609FE0011124C25DD94E4FE050E04E190F
:105080005F09CA01880F991F880F991F480F591F80
:10509000BE01CE0105960F947F2DFE0111920A9557
:1050A000E9F7F701EE0FFF1FEE0FFF1FEE0DFF1DDB
:1050B000DF01A25DB94E110F110F1C7013608C91AE
:1050C000807F182B1C93EF5CF94E84E680838091DF
:1050D0002D14806180932D142FB7F894809176134E
:1050E000909177132FBF90931A0C8093190CDF9136
:1050F000CF911F910F91FF90EF90DF9008955AE0AC
:10510000D52E6D9DE0011124C25BDB4E87E290E05D
:105110008E199F09AC01440F551F440F551F480FAE
:10512000591F440F551FBE01CE010A960F947F2DC3
:10513000FE011192DA94E9F7C701880F991F880FD1
:10514000991FFC01EE0DFF1DEE0FFF1FE25BFB4EF2
:10515000212F2F701081107F122B10830530ACF49B
:10516000E0915919F0E0EE5FF84EE491F0E024E0B0
:1051700030E0201B3109220F331F8F0102C015952B
:1051800007952A95E2F703700F5FFC01EE0DFF1DF6
:10519000EE0FFF1FE05DFB4E078F84E680A397CFE5
:1051A000DF92EF92FF920F931F93CF93DF939C01B7
:1051B000C0915A10EC2EF12CF701EE0FFF1FE05AB0
:1051C000FF4E0081118160915510862F90E0FC0107
:1051D000EE0FFF1FEE0FFF1FE80FF91F43E602312E
:1051E000140709F477C0EE0FFF1FE25BFB4E8081CE
:1051F0008F70D1E0D80F43E025333407B1F1DD24BF
:10520000D39483E60231180709F0D12C43E027320A
:105210003407E1F083E02931380709F46BC083E0FB
:105220002231380709F443C082E043E029303407D3
:1052300009F43EC02F5F324091F58D2DDF91CF9163
:105240001F910F91FF90EF90DF90ADCE8D2D0E94BA
:10525000141D811124C0D0935410609155108D2DD0
:10526000F6DE0251134609F442C08CE797E623E6C6
:1052700020931D0CCC2331F0F701E55AFF4E20910D
:1052800083102083CF5FC0935A10D0E0CC0FDD1F76
:10529000C05ADF4E998388838FEB80935F10DF9134
:1052A000CF911F910F91FF90EF90DF90089581E0D3
:1052B0008093581060935310D093521080918310B4
:1052C00080935710DF91CF911F910F91FF90EF9036
:1052D000DF900895E25DF94E808186958695837012
:1052E000D1E0D80F83E02533380709F088CF83E376
:1052F00090ECBDCF8D2D0E94141D8111D0CFD09385
:105300005410609155106F5F609355108091831019
:105310008F5F80938310A3CFBF92CF92DF92EF92E3
:10532000FF920F931F93CF93DF93C82EB62EE42ED8
:1053300080914F14882309F47DC00C2D10E030E0DB
:1053400020E0CEE4D4E1F12C90E080E0BAE0DB2E66
:105350001CC0F39488E2F81609F467C02F2D30E0E2
:10536000FD9CE0011124C25BDB4EC901880F991F2F
:10537000880F991FFC01E20FF31FEE0FFF1FE05D86
:10538000FB4E478D442309F442C0FC01E20FF31F9A
:10539000EE0FFF1FE25BFB4E20812F7030E0021703
:1053A00013074CF0EE20A9F22017310791F66F2D6C
:1053B00080E0F9DDD3CF87E290E08F199109AC014D
:1053C000440F551F440F551F480F591F440F551FB9
:1053D000BE01CE010A960F947F2D8AE0FE01119244
:1053E0008A95E9F7FC2DFF70CF2E9881907FC92A0E
:1053F000C882B98284E68A83CE01DF91CF911F9162
:105400000F91FF90EF90DF90CF90BF90089587E2CB
:1054100090E0821B930BAC01440F551F440F551FA6
:10542000480F591F440F551FD3CF46EF5FEFCEE40F
:10543000D4E1CECF46E851E0CEE4D4E1C9CFEF923B
:10544000FF920F931F93CF93DF9300D00F92CDB7AE
:10545000DEB71A8219821C821B82E0915919F0E092
:10546000EE5FF84E66E070E010E0012F1F5F962FB0
:1054700041E050E0249130E0092E02C03595279597
:105480000A94E2F723702F5F2417150649F4DA0116
:10549000119721E030E02C0F3D1FA20FB31F0C939A
:1054A0004F5F5F4F4530510529F762507109143045
:1054B000E1F68230A8F4EEE4F4E120E931E0DF0126
:1054C000A9011D9241505040E1F78150873068F4A6
:1054D000E82FF0E08827ED53F24D8E4F0D94222BEC
:1054E000863049F38150873098F380912D14806184
:1054F00080932D142FB7F8948091761390917713A1
:105500002FBF90931A0C8093190C0F900F900F904F
:105510000F90DF91CF911F910F91FF90EF90089521
:1055200088E0E82EEEE7F6E1DF012E2D1D922A95A8
:10553000E9F7E6E8F6E188E6DF011D928A95E9F7EA
:1055400040E06BE080E0E8DE40E06CE081E0E4DE3B
:1055500040E06DE082E0E0DE40E061E083E0DCDE40
:1055600040E063E084E0D8DEFC01FF24F394F382A2
:1055700080818061808387E080878581837E8460ED
:10558000858340E063E084E0C7DEFC0102E0038342
:10559000808180618083E0868581837E84608583CD
:1055A00040E063E084E0B8DEFC0113E01383808117
:1055B0008061808389E080878581837E84608583A4
:1055C00040E06AE084E0A8DEFC018CE9828380810F
:1055D0008064808384E0838385818C7F826085837F
:1055E00040E06AE085E098DEFC018EE1828388EF8E
:1055F000838340E06AE085E08FDEFC0182EE8283F7
:10560000808180648083E38240E063E08AE084DE1E
:10561000FC01F3828081806180838AE080878581BC
:10562000837E8460858340E063E08AE075DEFC0170
:1056300003838081806180838BE080878581837E86
:105640008460858340E063E08AE066DEFC011383CA
:105650008081806180838CE080878581837E846007
:1056600085838FE38093CA188091C91887708860FA
:105670008093C918EDE6F1E0E491E0938616EEE63A
:10568000F1E0E491E0938716EFE6F1E0E491E09336
:105690008816E0E7F1E0E491E0938916E1E7F1E0B4
:1056A000E491E0938A16E8E6F1E0A0917E160A2ED6
:1056B000000CBB0BA557B94E84918D93319621E018
:1056C000ED36F207C9F7E3E6F1E0A0917F160A2E66
:1056D000000CBB0BA057B94E84918D93319631E0ED
:1056E000E836F307C9F7EEE5F1E0A09180160A2E3F
:1056F000000CBB0BAB56B94E84918D93319641E0B3
:10570000E336F407C9F789E591E0A09181160A2EE6
:10571000000CBB0BA656B94EFC0124912D9331967B
:1057200051E0EE35F507C9F7A09182160A2E000C5C
:10573000BB0BA156B94EFC0124912D930196F1E0CB
:105740008E359F07C1F7D1CE41E069E18FE0E4DDFE
:10575000FC018EE6828385818C7F858386E6868345
:1057600088E8878384E48093EE161092EF1680E237
:105770008093F016BACE40E061E08981CDDD40E053
:1057800062E08A81C9DD40E063E08B81C5DD40E0F5
:1057900064E08C81C1DDA9CE40E06AE08B81BCDD94
:1057A000FC011CE9128380818064808383E283830F
:1057B00085818C7F8260858340E062E48DE0ACDD92
:1057C00040E06AE08DE0A8DDFC0112838081806406
:1057D000808382E2838385818C7F8260858340E041
:1057E0006AE08DE099DDFC0184E0838385818C7F14
:1057F0008260858383E0809316178DE98093171765
:1058000087E28093181782E480931A1710921B176F
:1058100088E180931C1769CE198141E061E0812FF6
:105820007BDD40E062E0812F77DDFC018CE9828343
:105830008081806480831A8141E061E0812F6CDD8A
:1058400040E062E0812F68DD50CE1A8141E062E0E5
:10585000812F62DD40E064E0812F5EDD1C8141E04C
:1058600062E0812F59DD40E064E0812F55DDFC01CD
:105870008CE9828380818064808337CE1A8141E005
:1058800062E0812F49DD28E4FC01228340E063E0EF
:10589000812F42DD17E3FC0112830C8141E062E0BD
:1058A000802F3ADDFC019CEDF92EF282808180642C
:1058B000808340E064E0802F2FDD2EE3FC01228313
:1058C00040E063E0802F28DDFC01128341E062E0CC
:1058D00085E022DDFC01F28280818064808340E0EB
:1058E00064E085E019DDFC0182EC828380818064C4
:1058F000808340E063E085E00FDDFC011283F5CD9D
:10590000CF93C82FE0E3F4E181EE94E0DF019C0146
:105910001D9221503040E1F781E091DDEAE3F4E1AE
:1059200081818F7080628183CF5FCF738081807C23
:10593000C82BC083CF91089594EA9093BC009091B6
:10594000BC0097FFFCCF9091B900987F983059F038
:10595000903149F084E98093BC008091BC0084FDC3
:10596000FCCF81E008958093BB0084E88093BC0065
:105970008091BC0087FFFCCF8091B900887F88317F
:1059800059F0803449F084E98093BC008091BC00D8
:1059900084FDFCCF81E0089580E00895EF92FF92AE
:1059A0000F931F93CF93DF93EC01F62EE72E8A011E
:1059B00080EAC2DFE092BB0084E88093BC00809163
:1059C000BC0087FFFCCF8091B900F092BB0084E857
:1059D0008093BC008091BC0087FFFCCF8091B90010
:1059E00081EAAADF0150110981F09E01200F311FC9
:1059F00094EC9093BC008091BC0087FFFCCF809119
:105A0000BB008993C217D307A1F784E88093BC0039
:105A10008091BC0087FFFCCF8091BB00888384E924
:105A20008093BC008091BC0084FDFCCFDF91CF91BE
:105A30001F910F91FF90EF900895CF92DF92EF9218
:105A4000FF920F931F93CF93DF930F920F92CDB7D7
:105A5000DEB77C01962FC42EF70121813281E081CF
:105A6000F0E0EE0FFF1FEE0FFF1FE95EF44F4081E5
:105A70008181582F5F70421B530BC416150611F01D
:105A800008F0C42ECC2009F45CC0DC2C06C0DA94EB
:105A9000DD2009F43DC0902F712FF701238134815F
:105AA00021153105D1F1658181E0860F8583092FAC
:105AB000172F3695322F2227379527952A583F4F93
:105AC0006E5F620F732F711D41E050E0CE010196B1
:105AD00065DF8981D8018D938D01F70185818E372E
