:100000000C94EE150C941F160C941F160C941F16CE
:100010000C941F160D947A4D0D94B14D0D941F4EF6
:100020000D94E84D0C941F160C941F160C941F167B
:100030000C941F160C941F160C941F160C941F166C
:100040000D940C500D947C4F0D94E14F0C941F16A1
:100050000C941F160C941F160C941F160C941F164C
:100060000C941F160D94E5500D9426510C941F16F8
:100070000C941F160C941F160C941F160C941F162C
:100080000D947A4E0C941F160C941F160C941F1688
:100090000D948C500D94B7500C941F160D944E4D2A
:1000A0000C941F160C941F160C941F160C941F16FC
:1000B0000C941F160C941F160C941F160C941F16EC
:1000C0000C941F160C941F160C941F160C941F16DC
:1000D0000C941F160C941F160C941F160D94564E5C
:1000E0000C941F160D9491100D94D1250D94C024DD
:1000F0000D9480250D94D3230D946C010D945325FC
:100100000D94001D0D9484250D94F0320D94403211
:100110000D94A6450D94E40F0D94F6330D940E1036
:100120000D941F1D0D94E5240D9447100D940E257C
:100130000D94F01D0D947E250D9489250D941222A9
:100140000D94A2250D940A1E0D9434180D94FA1CDA
:100150000D94C3170D94F03D0D944D300D94C7369A
:100160000D9456110D9441250D94A4250D948625CA
:100170000D94FD330D9407110D9412190D949E25C5
:100180000D94F4100D9490100D943B060D949A2547
:100190000D94B41D0D94DE100D9425190D94E46991
:1001A0000D94DC1D0D9450240D94EC3E0D94B1176C
:1001B0000D94261D0D948B250D94A0250D940119E9
:1001C0000D9417170D944D180D94AE1D0D94191D17
:1001D0000D940B1D0D94041E0D9406340D94F924FA
:1001E0000D94F61D0D94DB330D94EB300D94B81D7A
:1001F0000D947B2E0D946E1C0D947E0F0D94F310B8
:100200000D940B100D9446100D94DF100D94DE33F9
:100210000D945E170D94F9330D9416290D949C25B9
:100220000D94E30F0D94052F0D9477170D94FB3368
:100230000D94C2340D9482250D941F4A0D94E21D35
:10024000AED580A83FD300408D142000A1C8DA129B
:1002500081CFD9F1DB40A4A6AF9CCE003264E2F19D
:10026000003264645A505A6450463C46649C141EE2
:10027000465A404000000000070F0C1808180818E4
:100280000818081909190919091908180818081867
:10029000081808180818081808180818081808185E
:1002A00008180818081808180818081808080C076B
:1002B00000000000000000AAFFFF00000000000F87
:1002C0003F70C080808000808080FF7F00001F1F03
:1002D0000C1818180F070000030F0C19191B0F0634
:1002E00000001F1F070C18181F070000000000FF68
:1002F000AA000000000000AAFFFF0000000000C0EC
:10030000E07030181818181830E0C0000000FFFF27
:1003100018181818F0E00000F0F0989888181830B5
:100320003000F8F800000000F8F80000000000FFBE
:10033000AA000000000000AAFFFF0000000000006B
:100340000001070E3C7C3F01000000787F078080A1
:1003500000010F3E704000007F7F60606060311FD1
:100360000F0000000003030606020300000000FF68
:10037000AA000000000000AAFFFF00000000063EE7
:1003800078E0E0C0C0C0E0FE1E00000080F07E1EED
:100390007CF0800000000000FEFEE0E0E0F0B89C91
:1003A0000E060030FC8C060606060C00000000FF5E
:1003B000AA000000000000AAFFFF00001F1018089C
:1003C0000C06030000000102020301000103020207
:1003D0000201001F00010103020002020F020200DD
:1003E000000103020301000301020203010000FFF8
:1003F000AA000000000000AAFFFF0000F018080893
:100400000818F0E000F05848C88810000888C8684C
:10041000381000F880C0603018000000F8000000BC
:10042000E098080818E000FF10080818F00000FF26
:10043000AA00000000000080E0F07038303830384A
:10044000303830383038303830383038303830386C
:10045000303830383038303830383038303830385C
:10046000303830383038303830383038303070E06C
:10047000800000007265626F6F74007665723A20CA
:10048000002062797465730072616D3A20006D76A8
:1004900000726D00726D64697200534420746F20A5
:1004A0005344206D6F7665006C733A200020002065
:1004B0000068656C703A20746869732068656C70B8
:1004C000006572723A20756E6B6E6F776E20636D89
:1004D000640083057D0536557A056E0507646B0556
:1004E0005B050C0155054B05315548054305CF63A8
:1004F00040053005F8002D0520058D5B1C051B050A
:100500000D551705160531560F050E05F0540072EE
:1005100065626F6F740000766572000072616D0035
:100520006368312D6368383A43686B730074660002
:1005300073726366696C652064737466696C6500C8
:100540006D760066696C6500726D00646972656342
:10055000746F727900726D64697200737263666998
:100560006C652064737466696C65006370005B641D
:1005700069726563746F72795D006C73005B636DA3
:10058000645D0068656C7000786D646D0053442F85
:100590000075434C493E0052652D5363616E004126
:1005A00075746F2D636F6E2E005061697200065373
:1005B0006C617665004D61737465720050696E0000
:1005C000526F6C65001E06434F4E45435445004232
:1005D0004C5545544F4F5448204D55455400424CBE
:1005E0005545544F4F54480054656D702E2072612C
:1005F00064696F1F744043004672656520537261E1
:100600006D1F7862004D697865721F726D73004CC2
:1006100063642053656E641F726D730047756920B3
:100620004275696C641F726D730050726F746F63F2
:100630006F6C1F727573004D6178004D696E0043D9
:100640006F6D70757465000150726F702E0001300F
:100650003A33363000014E622072807080746974C3
:10066000696F6E200001566F696520004E756D80C0
:10067000726F00014163746966005820414E590051
:10068000014E756D5278005B426E645D005B507286
:10069000745D006D5700202020202D42494E442DCE
:1006A0002020202020005246494420203A000645C0
:1006B0005445494E445245203F00012A2A2A00440D
:1006C00061746500456E632E526F742E0050657222
:1006D00073005661726961626C657320476C6F626A
:1006E000616C6573000154797065005461696C6CCC
:1006F000653A00596561723A00547970653A00496B
:100700004E464F205344004865757265004E2F4495
:1007100000207375707072696D8000496E666F722B
:100720006D6174696F6E005375707072696D65727A
:1007300000417563756E206D6F64816C6520534454
:1007400000436172746520534400494E544552532E
:1007500000534F4E0047415A00454550524F4D00FF
:10076000414C45525445002E62696E002E637376EB
:10077000004361727465205344206D75657474651F
:10078000004572726575722063617274652053440E
:1007900000526573746175726572204D6F64816C6F
:1007A00065004172636869766572204D6F64816C83
:1007B0006500496E636F6D70617469626C65005BA2
:1007C00052415A5D004761726465722054696D65DB
:1007D0007273005374617469737469717565730021
:1007E0005280696E69742E2054806C806D2E005288
:1007F00080696E69742E2054696D65723200528072
:10080000696E69742E2054696D6572310052806979
:100810006E69742E20766F6C005375707072696DFE
:100820006572004480706C6163657200436F70692B
:10083000657200496E738072657220617072817397
:1008400000496E7380726572206176616E74004536
:100850006469746572005375707072696D65722099
:100860004D6F64816C65004480706C6163657220BB
:100870004D6F64816C6500436F70696572204D6FC8
:1008800064816C65004372806572204D6F64816C79
:10089000650053806C6563742E204D6F64816C65B8
:1008A0000001436F7572616E74000154656E736967
:1008B0006F6E004C6F6E676974756465004C61748F
:1008C00069747564650052535349204D696E2E005A
:1008D00043616C69622E20426174746572696500BF
:1008E00053617576656761726465202E2E2E000354
:1008F000415252455420454E20434F5552530049D2
:100900006E7665727365722047617A3F0044454296
:1009100055470053544154530047414241524954B2
:100920005300014C696D6974650054454C454D4553
:100930005355524500464F4E4354494F4E53205352
:100940005045432E00494E54455253204C4F472E9C
:1009500000434F5552424500434F555242455300C4
:100960004C494D495445530044522F4558504F006F
:10097000434F4E462E48454C49005048415345533D
:1009800020444520564F4C00504841534520444593
:1009900020564F4C00434F4E462E204D4F44454C61
:1009A00045004D4F44454C45530043414C4942524C
:1009B0004154494F4E00414E415300494E54455217
:1009C000530056455253494F4E0045434F4C414703
:1009D000450001426173736520707569732E0001D3
:1009E00042696E64206175746F00014175746F64B3
:1009F00080742E00014F7074696F6E000146728022
:100A0000712E736572766F000150756973732E20B5
:100A10005246000154806C806D80747269650001DB
:100A2000416A7573742E667280710001467280711E
:100A30002E20766964806F00437573746F6D0001BA
:100A40005375702E2042696E6400014E756D2E2024
:100A5000766F69657300015075697373616E6365C4
:100A60002052460053504952664D6F640001436F57
:100A700072722046415300434F4E4649472052412F
:100A800044494F00055472696D73203D3E205375F3
:100A9000627472696D7300448070617373656D6513
:100AA0006E7420454550524F4D00466F726D617413
:100AB00061676520454550524F4D00454550524FA6
:100AC0004D20636F72726F6D70756500546F756342
:100AD000686520706F757220636F6E74696E7565DE
:100AE0007200416C61726D65732044807361637440
:100AF00069768065730047617A2070617320822077
:100B00007A80726F00546F7563686520706F7572BC
:100B10002069676E6F72657200454550524F4D20D7
:100B2000706C65696E6521005056004D4F44454C10
:100B300045004348005452005B4D454E555D2070C2
:100B40006F7572207265736574007573001F66534C
:100B500045531E544D311F66544D321E47415A1F96
:100B600066475A25004E4F2044415441004163637B
:100B70003A0054783A0052783A0004424F554745BB
:100B80005220535449434B532F504F545300085253
:100B900045474C4552204E45555452455300065B3F
:100BA0004D454E555D20504F5552204445425554B9
:100BB000005472696D2D202B0043616C004D756CE3
:100BC0007469706C69657572004D6F6465062520E7
:100BD000536F7572636500456C817665004F726472
:100BE000726520766F69657320525800014C65204C
:100BF0006D6F64816C652065737420616C6C756DBC
:100C00008000566172696F00436F6F72646F6E6E21
:100C100080657300416A7573742E2068657572650E
:100C2000206175746F0046757365617520686F7219
:100C30006169726500416C6572746520696E74004B
:100C4000416C657274652067617A004C6F676F2034
:100C500064276163637565696C0001447572806522
:100C600000528074726F80636C61697261676500A5
:100C700001506572736973742E00014269702066B9
:100C8000696E0001426970206D696E2E004E6176BA
:100C9000696720456E63526F74000153696C656E1D
:100CA000636500014D806D6F69726520706C6569C8
:100CB0006E650001496E6163746976697480000134
:100CC000426174746572696500506C616765206289
:100CD0006174746572696500416C61726D65730061
:100CE000436F6E74726173746500566962726575E4
:100CF000720001546F6E616C6974800001447572FA
:100D0000806500536F6E00456372616E2000015074
:100D1000616C657300446F6E6E8065730001416C99
:100D200061726D650001506C616765004100564756
:100D3000004342004D49584555520052616C656E62
:100D4000746920686175740052616C656E74692005
:100D50006261730052657461726420686175740029
:100D600052657461726420626173004F70807261B9
:100D700074696F6E004F464600416C657274650081
:100D8000506861736500436F757262650044526517
:100D900078005472696D0001448063616C6167651D
:100DA00000436F7480004578706F00526174696F02
:100DB0000001536F757263650045444954455220E4
:100DC0004D495841474500494E5345524552204DE3
:100DD0004958414745004D6178206D6978616765E4
:100DE000732061747465696E7421004D61782065AB
:100DF00078706F732061747465696E742100014DA1
:100E00006F646500496E762E20636F6C6C65637449
:100E1000696600496E762E206C61748072616C0088
:100E2000496E762E206C6F6E67697475642E004C67
:100E3000696D697465204379636C2E00436F6C6C37
:100E40006563746966005479706520646520506C30
:100E500061742E000656807269660A5472696D7359
:100E600000286480666175742900466F6E64752081
:100E70004F464600466F6E6475204F4E00547269AF
:100E80006D7300496E746572006D73005472616D0C
:100E9000652050504D000150726F746F2E004269F2
:100EA00070732063656E7472005472696D2067619F
:100EB0007A005377697463682047617A00536F75CD
:100EC0007263652047617A00506173205472696DC6
:100ED000005472696D732080742E004C696D6974C2
:100EE00065732080742E004368726F6E6F20004E11
:100EF0006F6D004368617267656D656E742E2E2E8E
:100F0000004480706C6163656D656E742E2E2E00DA
:100F1000436F7069652E2E2E005355505052494D27
:100F20004552204D4F44454C45006469737000069E
:100F30005B4D454E555D205155414E442050524524
:100F400054005B4D454E555D085B455849545D0066
:100F5000034F46464F4E00032D2D2D494E5604019A
:100F6000344348013643480138434831304348311F
:100F7000324348313443483136434805417563753F
:100F80006E416C61726D4E6F4B6579546F75740074
:100F9000034E6F6E524561524562035245615245A0
:100FA00062034F4646202B3D203A3D0343483143E0
:100FB0004832434833434834064578706F00204533
:100FC0007846696E0046696E0020204D6F79656E27
:100FD0000047726F73002001445047413132336142
:100FE0006206466C79536B7948756273616E46721E
:100FF000536B79004869736B790056327832002060
:1010000044534D0020204465766F00205944373109
:1010100037004B4E0020202053796D615800534C0F
:1010200054002020435831300020434730323300F1
:10103000426179616E6745536B7900204D543939AF
:1010400058584D4A585100205368656E7169465989
:10105000333236005346485353004A362050524FDD
:10106000465137373700417373616E00486F6E74B5
:1010700061694F4C52530020465320324100513297
:101080007832002057616C6B2E00513330330020D2
:10109000475730303800444D30303200044F464618
:1010A0000042746E734374726C546F75734F4E00CC
:1010B000032D2D2D783E30783C307C787C663E3098
:1010C000663C307C667C08416A6F75746500204D13
:1010D000756C7469706C2E52656D706C616365021D
:1010E0002B3D2A3D3A3D034F46464F4E0044697220
:1010F00050726647617A41696C052D2D2D00206183
:101100003D780020617B780020613E780020613CC2
:101110007800207C617C3E787C617C3C7845540082
:1011200020204F550020204F55580020613D62007F
:1011300020613E620020613C6200205E7D780020DC
:101140007C5E7C7D7854656D700042697374000D1F
:1011500052656D706C2E0020202020202045636F8A
:101160006C6167650020202020205472696D206921
:101170006E7374616E742E52656D69736520822082
:1011800030002020416A7573746572002020202091
:10119000204A6F75657220736F6E002020204A6FA1
:1011A00075657220666963680020204A6F756572F4
:1011B000206C6573203200204C6972652076616C6A
:1011C0006575720020566172696F00202020202012
:1011D0002020566962726575720020202020204C04
:1011E0006F677320534400202020202052807472A7
:1011F0006F80636C2E0020202004436872314368A6
:101200007232546F757454656C6D5245610052456D
:101210006200044270310042703200427033005765
:10122000726E3157726E32436865655261746154F3
:1012300069636B5369726E52696E67536369465294
:101240006F627443687270546164614372636B418E
:101250006C726D042D2D2D004261747443687231DF
:1012600043687232547800205278002041310020C7
:1012700041320020416C740052706D004361726213
:10128000543100205432002056697400446973744C
:10129000416C7447456C656D56656C6D566661733F
:1012A000436F7572436E736D507569734163635814
:1012B000416363594163635A4361700056697456D0
:1012C000566974416445540041312D0041322D006E
:1012D000416C742D416C742B52706D2B54312B006A
:1012E00054322B005669742B4473742B5669412B6E
:1012F000456C6D2D456C732D5666732D4375722BA1
:101300005075692B41636300546D70730356002060
:101310004100206D2F732D00206B6D686D00204003
:1013200000202500206D41006D41685700200741D5
:101330007563756E20204875620020202057534841
:1013400048696768532E506F72740004444D53000F
:101350004E4D4541032D2D2D413100413200464176
:101360005343656C05416C746900416C74692B567C
:101370006172696F41310020204132000456616C76
:101380002E426172730F5375707072204D697861CF
:1013900067657300203420566F6965732073696D2B
:1013A000706C6500436F75707572652047617A00D7
:1013B000202020456D70656E6E61676520560020A7
:1013C0002020456C65766F6E5C44656C746100200E
:1013D00020654343504D0020202020202020202045
:1013E000436F6E662E2048806C69636F0020205426
:1013F00065737420536572766F0020202020042DC1
:101400002D2D2031323020313230583134302039D6
:101410003000054D656E7500457869740042617352
:101420000020486175740044726F69744761756388
:1014300068032D2D2D4944304944314944325448E4
:1014400052525544454C4541494C47454154524EF2
:10145000744467744464745062745068744762746E
:101460004768744167744164524541524542524550
:101470004E5844305844315844324C31004C3200BC
:101480004C33004C34004C35004C36004C37004C8B
:1014900038004C39004C31304C31314C31324C3108
:1014A000334C31344C31354C31364C31374C31388A
:1014B0004C31394C32304F4E00556E042D2D2D00DD
:1014C000446972005072660047617A0041696C009D
:1014D000503100205032002050330020524561002E
:1014E000524562004D4158004359433143594332FC
:1014F0004359433354726D4454726D5054726D4766
:1015000054726D4133504F53034F46464F4E004780
:101510005A73475A25475A740C4F464600202020DC
:101520002020202020566F6C00202020202020200A
:10153000205265736574204D616E75656C05537737
:101540002E2D2D4C312D4C344C312D4C3853772EC3
:10155000342053772E382053772E3136053025002E
:101560002020323525002033372E35253530250013
:101570002000000000FFFFFF010706FF00181818F9
:10158000FFFF0606FFFF06060606FF7CFE82FE7CC6
:101590000042FEFE0246CE9AF2628292FEFE6C1875
:1015A0003848FEFEE4E6A2BE9C7CFE92DE4C809EA5
:1015B000BEE0C06CFE92FE6C60F296FC78FF6C6C34
:1015C000FFFF7EFE90FE7EFEFE92FE1E7CFEFE82F1
:1015D00082FEFE82FE7CFEFE929282FEFE90908053
:1015E0007CFE829A9EFEFE10FEFE82FEFE82FF0CB4
:1015F0000E82FEFCFEFE38EEC6FEFE0202FFFEE09C
:10160000F8E0FEFEFE80FE7E7CFE82FE7CFEFE900A
:10161000F0607CFE82F47AFEFE98FE1E62F2BA9EB4
:101620008C80FEFE80FFFCFE02FEFCFEFE06FCF847
:10163000FEFC08FCFEC6EE38EEC6E0F01EFEF08EA4
:101640009EBAF2E22E2E2A3E3EFEFE223E3E3E3E56
:101650002222223E3E22FEFE3E3E2A3A3A10FEFE64
:1016600090FF3A3A2A3E3EFEFE203E3E22BEBE0299
:10167000FF0222BEBCFFFEFE1422FF82FEFE02FF1E
:101680003E303C303E3E3E303E1E1C3E223E1C3E26
:101690003E243C3C3C3C243E3E3E3E3038183A3AE8
:1016A0003E2E2EFCFE2202FF3E3E063E3E3E3E0603
:1016B0003C383E3C083C3E22361C36223A3A0A3E32
:1016C0003E22262E3A3280400000000000081C1EF8
:1016D0003F33212020302030303B3F3F3E38100048
:1016E0000207070F0D0D0C0C0C0C06070301000080
:1016F00000010101010101010101010101010101DB
:1017000000010303060606060703010100000000AE
:1017100000000000000000000000000000000000C9
:101720001010101022223C0C0404040505071313AA
:10173000190F0303020F070300181E1100171C00E6
:1017400012161F00020F0702000000000000000038
:10175000000000000F0F070783C3C1400000000016
:10176000006020B0B090D8D8D8D8D8F0F0F0007091
:10177000F8FC8C84868686838387DFFFFFE0801FEA
:101780007FFFC000000000000080C0FF7F00C07F1E
:101790007F3F30303030303018181D0F07000307FE
:1017A0000F0F1D19199999898D8F87070100008CDA
:1017B0008F07070706C68606060203C1C10000C0E0
:1017C00040C0800000800000000000000000000019
:1017D00000000007FFFFFFFFFFFFFF1F01000000E9
:1017E00000303F3F3F3F03000000000000000000CA
:1017F000070703030303000000018181C14101C108
:10180000F1FD1C0E0E060E0C1C3878F0C00070E0C6
:10181000E0E0E060606060606040C0C0800080C068
:10182000E0E020B0B0B0B0B0B0B0A08000000000E8
:10183000C0F0F8700000000000000818F0F0F06040
:101840000000000000000000000000000000000098
:1018500000000FFFFFFFFFF8F8FFFFFFFF01000090
:101860000000C0F0FFFFFFFF0F00000000000000BD
:10187000FFFFFFFFFFFF00000000E0FFFFFFFFFF93
:10188000FFFFF0F0F0F0F0F0F0F07070787C3C3F8B
:101890003F1F1F0F0F0703000000000000000001A2
:1018A0000307070F0F0F0F1F1F1F1F1F1F1F1F1FD4
:1018B0001F1F0F0F0F0F0F0F0F0F0F07070303014E
:1018C0000000000000000000000000000000000018
:1018D000010FFFFFFFFEC00000C0FFFFFFFF0F0072
:1018E00000000000E0FFFFFFFF7F00000000077F17
:1018F000FFFFFFFCF0000000000000FFFFFFFFFF04
:10190000FFFF0F0F0F0F0F0F0F0F1F1F1F1F3FFFA7
:10191000FFFFFDF8F8F0F000000000000F7FFFFF70
:10192000FFFFFFFFFCF0E0C080800000000000002F
:1019300000000000808080808081818181818180A1
:10194000000000000000000000000000000003078D
:10195000FFFFFFFFFF1F1F1F1F1FBFFFFFFFFF7FB7
:10196000000000000080FFFFFFFF7F071FFFFFFF59
:10197000FCE08000000000000001FFFFFFFFFFFF10
:10198000E0C0C0C0C0C0C0C0C0C0C0E0FFFFFFFF1B
:10199000FFFFFFFF0000000000000000FCFEFFFF53
:1019A000FFFFFFFF1F0F0707070707070707070FBF
:1019B0000F0F3FFFFFFFFFFFFFFEFEF8F0E000000C
:1019C000000000000000000000000000063EFEFED7
:1019D000FEF080808080808080808080FEFEFEFE21
:1019E0003E0000000000C0F8FEFEFEFEFEFEE080AD
:1019F000000000000000000004FCFCFCFCFCFCF803
:101A0000000000000000000000000000F8F9F9F9F3
:101A1000F9F9F9F9F939190B0303030303030383F4
:101A20008383C7C7C7C7E7E7E6E6E6E6EECECECED6
:101A3000CECCCCCC9C9C1C1C1C18183838383838A0
:101A400030307070707070600000103030303030A6
:101A50003030303030303030303030303030303086
:101A60007070707070707070707070707070606096
:101A70006060606060606060606060606060E0E066
:101A8000E0E0E0E0E0C0C0C0C0C0C0C0C0C0C0C0B6
:101A9000C0C0C0C0808080808080808080808000C6
:101AA0000000000000000000000000000000000036
:101AB0000000000000000000000000000000000026
:101AC000000000000000000005030706060D0505E4
:101AD000507431507432507433426174000003000A
:101AE0000202020200090D04FD81FD050504040443
:101AF00008F8000000F80808081F1C1F1E1F1E1F02
:101B00001F1E1F1E1F0002020001FF000000FF0039
:101B10000000FF0000000000FF00000000000000C7
:101B200000FF01090D10080D07FF476D38104080B8
:101B30008000F810B0E040746620003078394538F5
:101B400042333300313032342C312C313032342CAA
:101B50003100302C332C340030003131353230300C
:101B60002C302C30002B002B494E513A002225738B
:101B7000220041542B554152543D256C752C302C7C
:101B8000300000020000D72B0000F40106013C22C7
:101B9000D72B0000200309014622D72B0000200389
:101BA0000A020000D72B0000200300020000D72B00
:101BB0000000F40106013C22D72B000020030002A4
:101BC0000000D72B0000F40103013B2FD72B0000AE
:101BD00020030401372FD72B000020030C01332FE3
:101BE000D72B0000200311012F2FD72B000020033B
:101BF00010012B2FD72B00002003801C7A1C751C92
:101C0000701C6A1C641C5F1C5A1C541C4E1C491C12
:101C1000441C3F1C3B1C361C311C2A1C261C201C4F
:101C20005245534554004941430049505343414EA6
:101C3000004C494E4B00494E514300494E5100491A
:101C40004E514D004449534300494E495400434DC1
:101C50004F444500524E414D45004E414D450052C6
:101C60004F4C4500524D41414400434C41535300B9
:101C70005541525400505357440053544154450069
:101C8000004154000D0A4F4B0D0A004F4B0D0A0046
:101C90005F4D005F530000416374696600120800E5
:101CA000081C0808081C0800000822004900220837
:101CB0000000000000227F220000000822004900EE
:101CC0002208000008220049002208000000227FAC
:101CD000220000000000082200490022080000083D
:101CE0001C0808081C080070F21C017A004C7D409A
:101CF00071756B7E7FCC6A0052535349000100FF1F
:101D00000100FF01000001FF00000000FF000300D0
:101D1000020202020002020202793D00783D0070D8
:101D2000740070742700000003010000FF0202022B
:101D3000020202020202020202000000FF0101018F
:101D40000101010101010101010004032D3D312BBD
:101D50003D310000030005050505050505050505E0
:101D6000050505050505002F3430002F31360044E8
:101D70006966660000000001010500000000000027
:101D80000005000000000005003C5D0000000200AE
:101D90000000020000000001000000000006080131
:101DA00002020002000000001B203F202020202013
:101DB0002021232120272F272021232320202020FA
:101DC000202020203FFF0000003F7F00FFFFFF0199
:101DD000FFFFFF01FFFFFF0000000101010000FF06
:101DE000FF000000FFFFFFFFFFFFFFFFFFFFFFFF00
:101DF000FFFF1F3FFFFCF0C00000FFFC0404048451
:101E0000E4E4F4F4F4D4E4F4F4F4F4F4F4E4C40412
:101E10000404040404FC46573A204F70656E415692
:101E200052632D4D6567614D696E691E564552536B
:101E30001F1B3A20332E302E301E444154451F1BA9
:101E40003A20323032312D31302D30331E54494D4D
:101E5000451F1B3A2031363A32373A32351E454556
:101E600050521F1B3A203332005F2D2E2C00576535
:101E70006C636F6D6520746F204F70656E415652B4
:101E8000632056332E302021000301020004050692
:101E90000700010203000201030301020003020123
:101EA000001B1E272D36394B4E636C7278878D933D
:101EB0009CB1B4C6C9D2D8E1E400FF000000000024
:101EC00001180800000000080808080000080808B9
:101ED00008000008080808000000000000000000DA
:101EE000417F4100244C5424003E41412200000027
:101EF00000000000081C0808081C0800081C08084E
:101F0000080800081C2A7F2A1C0800000000227F05
:101F100022000000081C0808080800081C2A7F2A64
:101F20001C080000081C2A7F2A1C08000808080852
:101F30001C08000000227F2200000000081C2A7FED
:101F40002A1C0800080808081C0800081C080808C3
:101F50001C080000081C2A7F2A1C0800081C08080E
:101F6000080800081C2A7F2A1C080000081C2A7F79
:101F70002A1C0800080808081C0800081C2A7F2AD8
:101F80001C0800D400838C177CE7DAFC00117C1459
:101F90007C7C006A6C6AEC2DD1E885F36A00060748
:101FA0000D0E12131700406DC700446DC7017082FB
:101FB000C7017482C7034827410400B3340550C6E3
:101FC0003400426DC700466DC7017282C701768238
:101FD000C7034A2741047AB3340552C6340220832A
:101FE000C7022483C7034C2741047CB3340554C67D
:101FF00034022283C7022683C7034E2741047EB3DF
:10200000340556C634000000000000000000000047
:1020100001010101010101020202020203030303A3
:102020000404040405050506060607070808080950
:10203000090A0A0A0B0B0C0C0D0D0E0E0F0F1011D6
:1020400011121213131415151617171819191A1B34
:102050001B1C1D1D1E1F2020212223242425262772
:102060002829292A2B2C2D2E2F303031323334358C
:10207000363738393A3B3C3D3E3F40414243444588
:102080004647494A4B4C4D4E4F5051535455565765
:1020900058595B5C5D5E5F61626364666768696B2B
:1020A0006C6D6E70717273757677797A7B7D7E7FD9
:1020B000818283858687898A8B8D8E909192949573
:1020C0009798999B9C9E9FA1A2A4A5A6A8A9ABACFA
:1020D000AEAFB1B2B4B5B7B8BABBBDBEC0C1C3C470
:1020E000C6C7C9CACCCECFD1D2D4D5D7D8DADCDDD9
:1020F000DFE0E2E4E5E7E8EAECEDEFF0F2F4F5F733
:10210000F8FAFCFDFF48FCB8FC28FD98FD08FE78B5
:10211000FEE8FE58FFC8FF3800A80018018801F843
:10212000016802D8024803B803460A021246280191
:10213000104B0A0110410A0110460A02100000006B
:1021400000460A011046140110461E01100000004E
:1021500000780A0110780600007A0603017C060365
:1021600002781E0310780F0310780F0311780F0305
:1021700012460A010046140100461E01005A0F05CE
:1021800002640F0502640A028278050A0A780532A1
:10219000020A14054225642C25642C25642C256430
:1021A0002C25642C25642C25640A0025642C00252C
:1021B00034642D253032642D253032642C253032A4
:1021C000643A253032643A253032642C2530336449
:1021D0002E2530346425632C253033642E2530348D
:1021E0006425632C253033642E253032642C25641D
:1021F0002C25642C25642C256325642E253032641F
:102200002C25642E25642C25642C25642C25642C17
:1022100025642C25642E25642C25642E25303264FB
:102220002C25642E253032642C25642E2530326412
:102230002C25642E253032642C25642E2530326402
:102240002C25642E253032642C25642E25303264F2
:102250002C25642C25642E25642C25642C25642CC7
:1022600025642C0025642E253032642C0025642C36
:1022700025642C25642C002534642D253032642DF2
:10228000253032642C253032643A253032643A25C8
:102290003032642C005275642C456C652C54687285
:1022A0002C41696C2C50312C50322C50332C54481A
:1022B000522C5255442C454C452C33504F532C41F5
:1022C000494C2C4745412C54524E0A0042756666D3
:1022D00065722C52582C54582C41312C41322C57B9
:1022E00053484820416C742C004275666665722C18
:1022F00052582C54582C41312C41322C47505320E9
:10230000446174652C4750532054696D652C4C6FA3
:102310006E672C4C61742C436F757273652C47503B
:1023200053205370656564286B7473292C47505390
:1023300020416C742C4261726F20416C74286D29AD
:102340002C566572746963616C2053706565642CEA
:10235000416972205370656564286B7473292C542D
:10236000656D70312C54656D70322C52504D2C4679
:1023700075656C2C43656C6C20766F6C74732C43A4
:10238000656C6C20312C43656C6C20322C43656C81
:102390006C20332C43656C6C20342C43656C6C20B2
:1023A000352C43656C6C20362C43757272656E74E7
:1023B0002C436F6E73756D7074696F6E2C56666109
:1023C000732C416363656C582C416363656C592CB5
:1023D000416363656C5A2C00446174652C54696DCB
:1023E000652C0080402010080402010000891112B1
:1023F000239B322446AD573665BF74488CC19D5A25
:10240000AFD3BE6CCAE5DB7EE9F7F83B807F000006
:10241000030158313600203931352038363820460E
:1024200043432020455500000088131027983A08A0
:10243000020C0000032050504D5350504D53425554
:1024400053002B04100000034B0000000003424126
:10245000594148385333583136414952445244481F
:1024600044340000005F3DF1A6233A16AAAF1CB227
:1024700062EBE0210807BE1A5F15AF0A4F24AD4892
:102480005E34ED8C06C9F2521836DF9D127CB1F530
:10249000D5D77098B73351DB674ED95B0A45E4A5B1
:1024A000E6E726ABBD79C3208E00004834A79BBB6E
:1024B0008BE1858C3E1E45E618246BABE728384B34
:1024C0008161D494F403251D698BFEA79B178B2093
:1024D000295F8BB16191D3017438219F12A0B38819
:1024E00029CA23CBC06C0C29B3A1A0160AD0A99E7F
:1024F000007602CF091027494250574942505053A5
:10250000425057534250500039817F0046071234E1
:10251000567818273645418236578413657287648A
:1025200015327684135271628435718643521431A8
:1025300040494949494949495354442E5639583923
:102540005636583656393132435832300049817F39
:10255000000007FF62002500FFFF00000000013CB3
:102560000500509E4B0002162B124F6280FFFF2A7F
:1025700032C31F1EFF00FF00003B0017478003010E
:10258000451800010FFF42001400FFFF000000008B
:1025900001210500509E4B0002162B120062808024
:1025A000000A32C30F13C300FF00003B001747802F
:1025B0000301451800010F2F006E00DB0090032877
:1025C00009A518F927B234292E0607D391FF04056F
:1025D00000D106005C4EC45BF80323F847073018AF
:1025E000166C434091876BF85610A90A0011410000
:1025F000597F3F81350B44535353204653530018A2
:10260000807F000007160717301E871F6B20F82AEF
:102610007F2B3F0B090C000D5D0E930FB1102D1198
:10262000201273132214F80ACD155021B622101867
:1026300018191D1A1C1BC71C001DB223EA240A25E9
:1026400000261129592C882D312E0B070508050964
:102650004306FF0413051808807F00000700008967
:102660001112239B322446AD573665BF74488CC186
:102670009D5AAFD3BE6CCAE5DB7EE9F7F88110083E
:102680000193331A22A5562C47B7753E64C99C4066
:102690008DDBBF52AEEDDA64CBFFF976E802218B19
:1026A00030100299132667AF763444BD554AADC346
:1026B000BC588ED19F6EEBE7FA7CC8F5D983310AFE
:1026C0002091121803A7772E66B5543C45CBBD4226
:1026D000ACD99E508FEFFB66EAFDD874C904428DD9
:1026E0005316619F702004A9153227BB364CCEC506
:1026F000DF5EEDD7FC6888E1997AABF3BA85520CBE
:102700004397711E60A1142805B3373A26CDDE44E5
:10271000CFDFFD56ECE9986089FBBB72AA06638F98
:102720007214409D512225AB343006B9174EEFC7C5
:10273000FE5CCCD5DD6AA9E3B8788AF19B87730E7D
:102740006295501C41A3352A24B1163807CFFF46A5
:10275000EEDDDC54CDEBB962A8F99A708B08848168
:10276000951AA793B62CC2A5D33EE1B7F04008C98D
:1027700019522BDB3A644EED5F766DFF7C89940035
:10278000859BB712A6ADD224C3BFF136E0C118486D
:1027900009D33B5A2AE55E6C4FF77D7E6C0AA58310
:1027A000B4188691972EE3A7F23CC0B5D14229CB4D
:1027B00038500AD91B666FEF7E744CFD5D8BB502F5
:1027C000A499961087AFF326E2BDD034C1C3394A2D
:1027D00028D11A580BE77F6E6EF55C7C4D0CC685D0
:1027E000D71EE597F42880A1913AA3B3B2444ACD0D
:1027F0005B5669DF78600CE91D722FFB3E8DD604B5
:10280000C79FF516E4A9902081BBB332A2C55A4CEC
:102810004BD7795E68E11C680DF33F7A2E0EE7878F
:10282000F61CC495D52AA1A3B03882B193466BCFCC
:102830007A5448DD59622DEB3C700EF91F8FF70674
:10284000E69DD414C5ABB122A0B9923083C77B4EAC
:102850006AD5585C49E33D6A2CF11E780F020606E2
:10286000000606170C0E181818061E230704040885
:1028700001013E01010B0A080C00000D5C5C0E76A4
:10288000800F2700107B7B1161F8121303132323A1
:10289000147A7A1551530158382D396D5300584C1C
:1028A000425458464343001B807F0000071700181E
:1028B000180619070508050B080D5C0E760F271082
:1028C000AA113912111323147A154209807F0000CE
:1028D00007170C181806FF070408050B080D5C0EF7
:1028E000580F9D10AA111012931323147A15410941
:1028F000807F000007013443682D396D530019169D
:102900001A6C1B431C401D912156221023A9240A36
:102910002500261129592C882D312E0B030709007B
:1029200000006400E80331068D0FA61810272D3132
:1029300005465933323646593331390006426179FA
:10294000616E6748385333440006563278320020AF
:102950004A58443530360006574B32383031574BE1
:102960003234303157365F355F3157365F365F313D
:1029700057365F48656C57365F48654900065133E6
:102980003033002043583335002043583130440061
:1029900043583130574400045132323251323432CC
:1029A000513238320007537464002020204A4A52C2
:1029B0004320583158354331636C6E0005574C48FD
:1029C00030385836303000583830300048323644CD
:1029D000004530313000483236574800054D5439F3
:1029E00039004837002020595A0020204C5300203D
:1029F0002046593830350006574C746F7973466558
:102A0000694C756E000543473032335944383239CA
:102A100048382033640007477265656E0020426CB9
:102A20007565002020444D30303700202D002020D7
:102A30002020204A4333303135614A433330313529
:102A4000624D4B3333303431513234320020200068
:102A500005534C5400205669737461000353746429
:102A6000356300000759443731370020534B59571D
:102A70004C4B5253796D6120583258494E58554E3F
:102A8000004E494855490020200006322032326D60
:102A900073322031316D73582032326D73582031CA
:102AA000316D7300054869536B79484B3331300001
:102AB00007443136002020204438002020202044C4
:102AC000313620386368563800202020204C42548C
:102AD000284555294C425420386368393135202027
:102AE0003136383638202031363931352038636870
:102AF00038363820386368000850574D2C49425505
:102B00005350504D2C4942555350574D2C5342551C
:102B10005350504D2C5342555350574D2C49423130
:102B20003650504D2C4942313600045374640056DF
:102B30003978395636783656393132435832300082
:102B4000F70064817F004672536B792D5239005330
:102B500074616E656B00436162656C6C2056330076
:102B6000426179616E6700414648445332410046F4
:102B70006C79736B7900436F726F6E6100536B7980
:102B80006172746563004672536B792D580046720A
:102B9000536B792D5638004672536B792D44004D96
:102BA000756C74694D6F640053494D2F4254005049
:102BB000504D31360050504D0061EC23FC0A004F5F
:102BC00070656E41565263206973206C6F61646951
:102BD0006E67202E2E2E000D0A00CE0011241FBE7F
:102BE000CFEFD1E2DEBFCDBF00E00CBF1AE0A0E026
:102BF000B2E0EAE9F9EE02E00BBF02C007900D92E5
:102C0000AA3EB107D9F72EE1AAEEBAE001C01D92A3
:102C1000A333B207E1F715E1CEEED5E100E006C03F
:102C200021970109802FFE010F94736ACD3ED107D1
:102C300080E00807A9F70F9492530D94CE710C947D
:102C400000008091351785FF0DC02E98809180007F
:102C50008F7C8093800080916F008B7F80936F00CA
:102C6000B29A08952E9AF2CF90910501977F909392
:102C700005019091D00095FFFCCF8093D600809104
:102C8000D00087FFFCCF8091D6008091D00085FFD7
:102C9000FCCF6093D6008091D00087FFFCCF80915D
:102CA000D600809105018860809305010895909178
:102CB0000501977F9093050180689091D00095FF62
:102CC000FCCF8093D6008091D00087FFFCCF80910D
:102CD000D6008091D00085FFFCCF1092D600809165
:102CE000D00087FFFCCF8091D600909105019860BD
:102CF000909305010895CF93DF93C82FEFEFE80F6E
:102D0000D0E0E73020F4F0E0ED5BFD4FD08180E2D1
:102D100099E2A0E0BB272C2F30E0220F331FA9013E
:102D2000330F660B770B840F951FA61FB71FABBF22
:102D3000FC01479156915093C6144093C514C0931B
:102D40000E1E6D2F8EE3DF91CF918ECF80912517D0
:102D500081FF08C081E080930F1E90910E1E981392
:102D60000AC00895809135178F7180930F1E90913E
:102D70000E1E9817B1F3BFCF8F929F92AF92BF9262
:102D8000CF92DF92EF92FF928EEF98E2A0E0BB2706
:102D90006C017D014C015D0192E2890E911CA11C28
:102DA000B11CEBBEF6018791B701A6014F5F5F4FE3
:102DB0006F4F7F4F6BBFFA01679156DFA2E0CA0EDB
:102DC000D11CE11CF11C8C149D04AE04BF0449F716
:102DD000FF90EF90DF90CF90BF90AF909F908F903B
:102DE0000895EF92FF920F931F93CF93DF938091FB
:102DF000131E9091161E890F9927991F6AE070E0A3
:102E00000F94226AEC018091141E9091151E890F77
:102E10009927991F6BE070E00F94226A875B082F57
:102E200010E0EFEAFDE120E08CEEE82EF12C0DC081
:102E30008A35910589F08C3D910571F02F3288F427
:102E400040832F5FC00FD11F3196CE01B7010F9481
:102E5000226AAC01009761F7AC014F5F5F4F2F32E0
:102E600078F31082213369F7DF91CF911F910F9191
:102E7000FF90EF9008958F929F92AF92BF92CF9262
:102E8000DF92EF92FF92CF93C82F8DEA98E2A0E0F5
:102E9000BB276C017D014C015D019EE1890E911CF7
:102EA000A11CB11CEBBEF6018791B701A6014F5FD3
:102EB0005F4F6F4F7F4F6BBFFA016791D5DEA2E086
:102EC000CA0ED11CE11CF11C8C149D04AE04BF047D
:102ED00049F752DF609133172091051E862F062E89
:102EE000000C990B2817190621F06093051E8CE041
:102EF000BBDE81E000DF6091131EC11163E089E059
:102F0000B3DE80910501877F809305018091D00019
:102F100085FFFCCF8BE38093D6008091D00087FFA4
:102F2000FCCF8091D60080910501886080930501D7
:102F300080910501877F809305018091D00085FFF6
:102F4000FCCF8AE38093D6008091D00087FFFCCF2E
:102F50008091D60080910501886080930501809161
:102F60000501877F809305018091D00085FFFCCF0C
:102F700086E38093D6008091D00087FFFCCF8091BC
:102F8000D60080910501886080930501CF91FF9064
:102F9000EF90DF90CF90BF90AF909F908F9008956B
:102FA0008F929F92AF92BF92CF92DF92EF92FF9259
:102FB0009C01462F8DE596E2A0E0BB276C017D01C8
:102FC000662369F1415050E04F5F5F4F420F531F3E
:102FD00090E080E0782F6627F9012F5F3F4F892F1F
:102FE0009927E0818E27880F991F46015701880E87
:102FF000991EA11CB11CD501C401ABBFFC01879176
:103000009691862797272417350721F7FF90EF9091
:10301000DF90CF90BF90AF909F908F90089590E0F9
:1030200080E0F4CFCF93DF9390910501977F909349
:1030300005019091D00095FFFCCF96E39093D600C8
:103040009091D00097FFFCCF9091D6009091050110
:10305000986090930501C82FD0E0FE01EB5AF24E24
:10306000608185E201DEC155D24E68818AE0DF9140
:10307000CF91FACD48E050E020E813C090910201D2
:1030800092609093020190910201946090930201EA
:10309000909102019B7F9093020126954150510926
:1030A00049F0982F922351F7909102019D7F9093C0
:1030B0000201E9CF0895909105019F7B909305014E
:1030C0009091D00095FFFCCF8093D6008091D000E6
:1030D00087FFFCCF8091D60000008091D00085FF53
:1030E000FCCF6093D6008091D00087FFFCCF809109
:1030F000D6008091050180648093050108951092A7
:10310000D2001092D100909105019F7B9093050110
:103110008064B0DF809101018D7F8093010128E000
:1031200030E080E040E89091000191FD842B909187
:103130000201946090930201909102019B7F909311
:10314000020146952150310971F790910501906473
:10315000909305019091010192609093010190EC90
:103160009093D20098E19093D1000895CF93DF938C
:10317000C82F8FEF8C0FD0E0873068F490E0FC010F
:10318000E45CFD4FD081DD0FDD0FDD0F8B5C9D4FCB
:10319000FC016081D62B87EB95E2A0E0BB272C2FAA
:1031A00030E0220F331FA901330F660B770B840F1A
:1031B000951FA61FB71FABBFFC01479156915093B7
:1031C000C6144093C514C0930E1E6D2F88E2DF9184
:1031D000CF9171CF8091251781FF08C081E0809346
:1031E0000F1E90910E1E98130AC0089580913517F6
:1031F0008F7180930F1E90910E1E9817B1F3B6CF6A
:10320000CF93DF93809133179091051E282F082EBE
:10321000000C330B9217130619F4DF91CF91089528
:103220008093051E2CEE829FC001112464E670E09D
:103230000F94226AEB012196CC0FDD1F6BE481E134
:103240003ADF6D2F82E137DF6C2F83E1DF91CF9181
:1032500032CF909105019F7D9093050180629091FE
:10326000D00095FFFCCF8093D6008091D00087FFDF
:10327000FCCF8091D6009091D00095FFFCCF609359
:10328000D6009091D00097FFFCCF9091D6009091FE
:1032900005019062909305010895382F2091050152
:1032A0002F7D209305012091D00025FFFCCF80EADF
:1032B0008093D6002091D00027FFFCCF8091D600CC
:1032C0006623C1F0E32FF92F6150AF014F5F5F4FCD
:1032D000460F511D21919091D00095FFFCCF209376
:1032E000D6009091D00097FFFCCF9091D600E417C4
:1032F000F50781F79091050190629093050108957B
:10330000382F209105012F7D209305012091D000B9
:1033100025FFFCCF81E68093D6002091D00027FFC7
:10332000FCCF8091D6006623C9F0E32FF92F9F01CF
:103330002F5F3F4F6150260F311D4FEF9091D0000E
:1033400095FFFCCF4093D6009091D00097FFFCCF23
:103350009091D6009193E217F30781F790910501C0
:103360009062909305010895CF92DF92EF92FF92C1
:103370008091251781FF0CC081E080930F1E9091F2
:103380000E1E98130EC0FF90EF90DF90CF9008951F
:10339000809135178F7180930F1E90910E1E981794
:1033A00091F34FEE54E260E07727282F30E0220FB0
:1033B000331F6901330FEE08FF084C0D5D1D6E1DB4
:1033C0007F1D6BBFFA01479156915093C6144093ED
:1033D000C5146091051E697F2670622B6093051EDF
:1033E00080930E1E86E0FF90EF90DF90CF9031CF5C
:1033F000909105019F7E9093050180689091D00087
:1034000095FFFCCF8093D6008091D00087FFFCCF42
:103410008091D6008091D00085FFFCCF6093D600CC
:103420008091D00087FFFCCF8091D600809105016C
:103430008061809305010895909105019F7E90938E
:1034400005019091D00095FFFCCF8093D60080912C
:10345000D00087FFFCCF8091D6008091D00085FFFF
:10346000FCCF1092D6008091D00087FFFCCF8091D6
:10347000D600909105019061909305010895909177
:1034800005019F7E9093050180689091D00095FF83
:10349000FCCF8093D6008091D00087FFFCCF809135
:1034A000D6004423B9F0FB0141509B012F5F3F4FF1
:1034B000240F311D91918091D00085FFFCCF909316
:1034C000D6008091D00087FFFCCF8091D600E21714
:1034D000F30781F7809105018061809305010895CC
:1034E000CF93DF9300D0CDB7DEB73091201D909100
:1034F000211D930F9093211D8091321782958F701B
:10350000823009F44BC098F52BE1929F212D1124B4
:10351000892F821B8695280F22952F704DE1249FBD
:1035200090191124292F9093211D892F90E02B3180
:1035300028F0432F4B51550B840F951F880F991F6F
:1035400082959295907F9827807F982780549B4101
:1035500099838A831B8243E0BE016F5F7F4F86E0C1
:103560008EDF0F900F900F90DF91CF9108958330F1
:1035700091F48BE1989F812D1124869523E1829F00
:10358000901911249093211D40E1949FC0011124B2
:1035900080539842DDCF80E090E0DACF2FEB929F0E
:1035A000212D11242295269527705BE2259F9019E5
:1035B0001124292F9093211D969596959695822FEB
:1035C0008295880F807E9E51C3CFE5E0F1E0808137
:1035D0008860808380818061808380818062808335
:1035E000808180648083E4EDF0E01182108280ECC1
:1035F0008093D20088E18093D100118210820895D7
:103600009C0180914B1C8871803121F12F5F3F4FCD
:103610008091D81C8F33F9F08F5F9091D91C981747
:1036200041F0E091D81CF0E0E856F34E30838093EF
:10363000D81C8091D81C8F3381F08F5F9091D91C5A
:10364000981741F0E091D81CF0E0E856F34E208343
:103650008093D81C089580E0E0CF80E0EFCF5F92A8
:103660006F927F928F929F92AF92BF92CF92DF9292
:10367000EF92FF920F931F93CF93DF9300D0CDB7BC
:10368000DEB76B01742E1B821A8219824DE95FE14D
:1036900060E07727882E912C880C991C092C000C4F
:1036A000AA08BB08480D591D6A1D7B1D6BBFFA0196
:1036B0004791F42E8DE99FE1A0E0BB272FEF821AFE
:1036C000920AA20AB20A880D991DAA1DBB1DABBFA2
:1036D000FC018791E12C841708F485C03CE0632E3F
:1036E0005524539421C06D5F7F4FFA0119958823AB
:1036F00009F49AC08B81F601F0FE94C08183E394B3
:10370000E71408F070C0EE24E394F3948DE99FE190
:10371000A0E0BB27880D991DAA1DBB1DABBFFC01F6
:1037200087918F1508F45FC00F2D10E08091831CE6
:103730009091841CA091851CB091861C0F2C04C014
:10374000B695A795979587950A94D2F780FFDDCF18
:1037500085EA9FE1A0E0BB27000F111F000F111F9A
:10376000012E000C220B330BB901A8014F5F5F4FF4
:103770006F4F7F4F840F951FA61FB71FABBFFC0174
:10378000879145EA5FE160E07727400F511F621F94
:10379000731F6BBFFA01979145EA5FE160E07727FD
:1037A0000E5F1F4F2F4F3F4F400F511F621F731F60
:1037B0006BBFFA0147915691923060F1943051F10C
:1037C0005092B800BE01933008F48DCF6F5F7F4FE9
:1037D000FA011995882309F189819A81F60191836B
:1037E0008083E394E39481E08093B8008E2D0F9062
:1037F0000F900F90DF91CF911F910F91FF90EF905D
:10380000DF90CF90BF90AF909F908F907F906F9000
:103810005F9008956092B800D5CF89819A81809594
:103820009095DCCF80836BCF8B8180958B8363CF2A
:10383000CF92DF92EF92FF920F931F93CF93DF937C
:103840008C01EB01009771F5209749F19B0177FD01
:10385000A6C020FD98C060E070E0CB0196958795EA
:10386000779567953595279560FF32C0032E000C3C
:10387000440B550B0F94356A2F3F31054105510517
:1038800009F008F483C020E031E0D7FF5AC017FDEB
:103890008BC0C9019A5F2115324009F058C090E0F1
:1038A00080E055C0FC0197FD65C06F01AE01D7FDFA
:1038B00057C09A01E417F507B4F4BF01FF0F880B56
:1038C000990B982F872F762F662720FF03C0CECF26
:1038D00020FDCCCF9695879577956795359527955B
:1038E00060FFF6CFC3CF052E000C660B770B962F2B
:1038F000852F742F6627E0FF03C00AC0C0FC08C0F4
:103900009695879577956795D594C79460FFF6CF80
:103910000D2C000CEE08FF08A70196010F94356AE4
:103920002F3F31054105510511F008F0ACCFF901E9
:10393000EB5FFF4DE49120E032E02E1B3109D7FD13
:10394000A6CF17FD29C080E092E0821B930BDF9188
:10395000CF911F910F91FF90EF90DF90CF9008953E
:10396000442755274C1B5D0B9A01E417F5070CF013
:10397000BACFA3CFEE27FF27E81BF90B6F01AE01EB
:10398000D7FF97CFEDCF20E030E0A9012B5F3F4D6F
:10399000F901249130E0D3CFC9019E5FD8CF22270F
:1039A0003327261B370B55CF80E096E0821B930B05
:1039B000CECFA82FB0E0FD01E25FFA4E8081860FE6
:1039C00080839091EE1276E09923C9F080E1989F70
:1039D00090011124F901EA0FFB1FEE0FFF1FEB53BB
:1039E000F54E40815181493E83E058078CF087E1D4
:1039F000840F8917C8F198E1940F715029F7FD01E0
:103A0000EE0FFF1FEB53F54E4081518130E020E077
:103A1000F901EA0FFB1FEE0FFF1FEB53F54E88E095
:103A20006802B0011124460F571F48318CEF580728
:103A300014F448E15CEF493E83E0580714F048EE87
:103A400053E0518340838091241780618093241731
:103A50002FB7F8948091CE159091CF152FBF9093EA
:103A60004C0E80934B0E0895982FC7CFCF93DF93C2
:103A7000FC01EB01BA01481759071CF08C179D0790
:103A80004CF5613871050CF4E05841E050E0E7FD79
:103A900036C00E2E000CFF0B96E0222399F080E238
:103AA000289FD0011124AE0FBF1FA753B54E3C91E4
:103AB0003A375CF086E8830F8217B0F027E8230FCF
:103AC000915059F7E753F54E30813403F001359F9B
:103AD000F00D1124CF01EC17FD0764F0681779078A
:103AE0002CF0DF91CF910895282FEACFCB01DF9101
:103AF000CF910895CE01681779079CF7F7CFE0952D
:103B00004FEF5FEFC6CFDB0168387F4F14F4A8E8B2
:103B1000BFEFA937B10514F0A8E7B0E0282F30E0D7
:103B200096E0442399F080E2489FF0011124E20FCF
:103B3000F31FE753F54E80818A3794F156E8580F0A
:103B4000541760F147E8480F915059F790E080E032
:103B5000880F991F82959295907F9827807F98274C
:103B6000820F931FFC01E753F54E8081082E000C55
:103B7000990B8A179B0789F0A08380912417806195
:103B8000809324172FB7F8948091CE159091CF157C
:103B90002FBF90934C0E80934B0E0895452FD4CF9A
:103BA000842F440F990BD4CF462F50E09A018250B6
:103BB0008A3298F4E82FF0E08827E053FE488E4FD1
:103BC0000D94736A4D5751099A01220F331F220F2A
:103BD000331F240F351F220F331FC901089585E0BD
:103BE000689F90011124C90108959A01220F331F83
:103BF000220F331F220F331F245F3140EECF9A0173
:103C00002E513109EACF9A01220F331FE6CF82E30A
:103C1000689F90011124E1CF9A01220F331F220FD8
:103C2000331F220F331FD9CF84E1689F90011124E5
:103C3000D4CF84E6689F90011124CFCF882399F0D8
:103C400087FD0AC08B316CF08532B4F089326CF09C
:103C50008C324CF4895A0895863E84F481958B31D8
:103C60009CF7805C089580E20895E82F880FFF0B91
:103C7000EC5BF14E849108958B5E0895E0E6E81BBD
:103C80008E2F0895AF92BF92CF92DF92EF92FF9264
:103C90000F931F93CF93DF937C01D42FCFEF442357
:103CA000A1F08B016C015B018FEFA81AB80ACFEF6E
:103CB000C40FAC0EB11CF80181918F01BFDFF6017A
:103CC00081936F010A151B05B1F7EC2FF0E03196D7
:103CD000EE0DFF1D04C09291903251F4C1508D2F12
:103CE000DC2FD701A80FB11D1C92C111F4CF81E0C8
:103CF000DF91CF911F910F91FF90EF90DF90CF90C8
:103D0000BF90AF9008958823C9F0E82FF0E0EC58F9
:103D1000F64E408195E0899F90011124240F311DBA
:103D200047FD3A952358364E41E0480F8F3F71F1D9
:103D3000499FC00111244150550B06C050E040E09E
:103D400085E090E02DE739E14B58564EFA0140816D
:103D5000840F911D47FD9A958A5A9D4F895D984E13
:103D6000821B930B80FF08C08F7790E0979599276F
:103D70009795B901892B089586958F5F8F7791E08C
:103D8000979599279795B901892B089586E592E033
:103D9000E5CF8F929F92AF92BF92CF92DF92EF9238
:103DA000FF920F931F93CF93DF9300D000D0CDB736
:103DB000DEB789839A83862FA6DFFB0129813A81AA
:103DC0003C5F121613064CF4A82FAF77211548E07C
:103DD00034070CF1EA0FF11D31972081022E000CFF
:103DE000330B922F882769E170E00F94226ACB0190
:103DF00026960FB6F894DEBF0FBECDBFDF91CF91F0
:103E00001F910F91FF90EF90DF90CF90BF90AF90F8
:103E10009F908F9008958A2E912CB4016150710962
:103E200087FF55C0161617060CF09FC0740152E0AC
:103E3000E51AF108D12C10E000E050E040E099E2F2
:103E4000C92E31C04E0F5F1F480D591DDA014C912C
:103E5000BC2D4B02C00111249595879595958795AA
:103E6000042E000C550B5A01AA24BB0CAA1CBB241F
:103E70004A195B09042E452F000C441F550B000CFA
:103E8000441F551F841B950B8A199B099C5F821741
:103E9000930708F05BC0D3944D2D50E046175707A9
:103EA0000CF056C08C014E155F0561F64D2D50E0AB
:103EB000DF01A40FB51F201B310B4F5F5F4FC12CDB
:103EC00088E0D82EC01AD10AF12CE12C1AC080E06B
:103ED00098E00F94226A6B01C9010F940E6AAB013E
:103EE0005527DF01A40FB51F4C9DC0014D9D900DBE
:103EF0005C9D900D1124281B390B4F5F5F4FF12CF7
:103F0000E12C8C91A82F0A2E000CBB0BBE83AD8335
:103F1000E40FF51FA0810A2E000CBB0B4D815E81C2
:103F2000A41BB50B0F94976AB82FA72F962F88273D
:103F3000BC01CD01A70196010F94576AAD81BE81E6
:103F4000BA2FAA27CD01820F931F4DCF4D2D50E0E0
:103F5000DF01A40FB51F201B310B4F5F5F4F801B8C
:103F6000910B6C01F12CE12CCCCFDF01C12CD12CB9
:103F7000760141E050E0C5CFCF92DF92EF92FF9201
:103F8000CF93DF9300D000D0CDB7DEB7F82FE92F65
:103F9000262F062E000C330B862F880F990BA901B4
:103FA0004427550F441F5527241B350BB901759520
:103FB0006795680F791F640F751F3595279535959F
:103FC00027953595279535952795260F371F420F4D
:103FD000531F5E834D832F2F3E2FAF2FBE2F0F9485
:103FE000886ADA019B01AC010F949D6A272F382F54
:103FF000492F5527AF2FBE2F0F949D6A6B017C016F
:104000003CE0F694E794D794C7943A95D1F720E032
:1040100031E08D819E81281B390B0F94886ADC0169
:10402000CB0180589F4FAF4FBF4F8C0D9D1DAE1DD4
:10403000BF1D892F9A2FAB2FBB2726960FB6F8945A
:10404000DEBF0FBECDBFDF91CF91FF90EF90DF902D
:10405000CF9008954F925F926F927F928F929F922E
:10406000AF92BF92CF92DF92EF92FF920F931F9386
:10407000CF93DF9300D000D0CDB7DEB74A015B010C
:10408000482E512C7201EE0CFF1CEE0CFF1CC201DD
:104090008E0D9F1DFC01E852F74E60812181722F29
:1040A0007F73660F771F660F771FFB01F595E79506
:1040B000F595E7953B01660C672C661C77086E0E3C
:1040C0007F1EDC01AA52B74E4C914C5929E2D22EE8
:1040D0002D2D420280011124159507951595079500
:1040E000042E000C550B9A012227330F221F332771
:1040F000421B530B042E452F000C441F550B000C84
:10410000441F551F041B150B021B130B8B52974E9C
:10411000DC018C918456BD2D8B02A0011124559594
:10412000479555954795082E000C990BDC01AA2759
:10413000BB0FAA1FBB278A1B9B0B082E892F000CC5
:10414000881F990B000C881F991F481B590B6A0187
:10415000CA1ADB0A672F770F770B6595661A770AFD
:10416000EF2FFF0FFF0BE595E60DF71DEC15FD0595
:104170000CF4F6013F010E171F070CF43801C201C1
:104180008E0D9F1D8B52974EFC01F480811491047B
:10419000A104B10409F440C0F6FE88C0A41BB50B0D
:1041A000181419041A041B040CF4D801A501940175
:1041B00021153105FCEF4F07FFEF5F0724F420E0E6
:1041C00030E04CEF5FEF2130310564E046075105E8
:1041D00024F020E030E044E050E00F94A76A6983C7
:1041E0007A838B839C83DC01CB01BB0F880B982FD8
:1041F000DC01282F217049815A816B817C81840FD9
:10420000951FA61FB71FCD01959587959595879505
:10421000820F911D680E791EC3016C147D040CF48D
:10422000C601081719070CF4C801F7FE03C09195E1
:1042300081959109B2016A52794EDB012C912038A7
:10424000F1F0B9E22B02C00111249595879595955F
:104250008795022E000C330BA9014427550F441FEC
:104260005527241B350B022E232F000C221F330B46
:10427000000C221F331F821B930B841B950B269669
:104280000FB6F894DEBF0FBECDBFDF91CF911F9167
:104290000F91FF90EF90DF90CF90BF90AF909F90E5
:1042A0008F907F906F905F904F900895181419042D
:1042B0001A041B0424F4D801A619B70977CFD30137
:1042C000AC19BD0973CFE7E28111EFE02E2F0E2E5E
:1042D000000C330B9AE0E99FF0011124E95DF84EE0
:1042E00040E012C0D901AA0FBB1FAA0FBB1FA20F2B
:1042F000B31FAB5DB64E9C91937091114F5F2150EF
:1043000031093A9727FD04C08111ECCF978DF5CF85
:1043100050E0882329F0403151056CF480E0089585
:1043200048325105DCF386ED9DE09093D5128093E1
:10433000D41281E008958BEE9DE09093D512809386
:10434000D41281E008956091831223CD0F931F93BF
:10435000CF93DF93C82F80918312D5DC282FD82FDD
:10436000DF7740E030E0CD17F0F5FB010C2F10E0D7
:1043700030E2C39FC00111246D2F669570E00F9449
:10438000226A3DE3360FE00FF11F4081042E000C3E
:10439000550B4C595F4F6FE3649FC001659F900DB3
:1043A000112468E37FEF0F94226A4FE3460F27FF43
:1043B0001AC0CC23C1F08D2F90E0BC01615071096F
:1043C0000617170784F4E80FF91F3197808120E45E
:1043D0008202C00111248C59964E68EC70E00F9453
:1043E000226A3DE3360F832F942FDF91CF911F91E7
:1043F0000F9108950F931F93CF93DF93AB01EC01BF
:10440000BC016A5F7F4FE0E08CE21AC0205D31E0C2
:104410003E0F8A010E0F111DD8012C939F709A3008
:1044200048F5905D22E02E0FDA01A30FB11D9C9399
:10443000E23071F0273061F0E22F6C177D0781F0D8
:104440009991292F22952F70903A00F3295CDFCFA4
:10445000ED5FDA01A20FB11D8C936C177D0781F718
:10446000E40FF52FF11D1082CA01DF91CF911F914A
:104470000F910895995CD6CFFC0180915B1C82FB63
:10448000882780F9805D808311820895FC0180E394
:104490008083118208953F924F925F926F927F9234
:1044A0008F929F92AF92BF92CF92DF92EF92FF9244
:1044B0000F931F93CF93DF93062F069506950695CE
:1044C00070E8079F80011124E42FE052FF0BDF0109
:1044D000EE0FFF1FEE0FFF1FEA0FFB1FE656F84F10
:1044E0003FEF380F3093810EE801C80FD11DA3E8CC
:1044F000B2E1AC1BBD0B722F717020FFF8C0909120
:10450000CE15592F507496FF03C0572F21FFC8C0F6
:10451000922F9474722F7470972E992339F094ED22
:10452000940F9F3008F0F2C095ED940F911084C065
:10453000462F4770722F7074972E26FF06C065E0D5
:10454000969FF0011124EE58FA4EC2E0D2E1C01B52
:10455000D10BE42EF12C66246A94712C042E02C037
:10456000759467940A94E2F7762C709490E0722F19
:104570007870872E08E010E00E191F092071322E86
:10458000992309F450C0BF01963009F4A4C06F5FAD
:104590007F4F992009F4A1C0E491EF3F09F497C03F
:1045A0005111E095882019F0923009F4ACC0FEE07A
:1045B000A338BF0778F1CA17DB0760F54E2E512CE0
:1045C000CC90B72CBC2062010E2C02C0D594C794AD
:1045D0000A94E2F7CB28CC924423E1F05D0120E875
:1045E000A21AB108E3E8AE16EEE0BE0660F0F501EF
:1045F000D080D620F201002E01C0EE0F0A94EAF717
:10460000DE2AF501D082552329F0413019F468944F
:10461000C7F8CC9211973F5FFB01963009F43EC07A
:104620009F5F9111B0CF882309F45DC0552309F431
:104630005AC0BF01EFEFB6CF24E1929FF0011124E1
:10464000E65BFD4F90E09923F9F09B3009F447C0F9
:104650004081BF016E5F7F4F2181E42FE223EF3F56
:1046600089F1FB01511130C0ED01C058D1096EE054
:10467000C338D60720F04C93288311973F5F9B30B7
:1046800069F09F5F9111E1CF882321F02FEF4FEF69
:104690005111EACF3F5F11979F5FF4CF3093810EA6
:1046A000DF91CF911F910F91FF90EF90DF90CF900E
:1046B000BF90AF909F908F907F906F905F904F9042
:1046C0003F900895FB01DBCF40952095CDCFFB01B6
:1046D000332009F4A2CFE0E063CFE0815ECFBF01D9
:1046E00020E040E0BECF3F5F11979F5F9ACF21FB54
:1046F000552750F9922F9474722F7470972E992326
:1047000009F414CF0CCFFB019F5F8BCF9FEB940F6D
:104710009A3138F09FE9940F9A3148F499EC940F4C
:1047200005CF9FEC940F992009F402CF85CF4F3528
:1047300039F0403239F0772339F0EAE4F2E082CF01
:1047400094E0F4CE90E0F2CE2F7B462F4770FDCE62
:10475000AF92BF92CF92DF92EF92FF920F931F938F
:10476000CF93DF93A82EC62EEA01B02EEE24EA9452
:10477000E20E222309F44FC0102F107AF12C8FEF94
:10478000E81AF80AE40EF51EDA2C00E014C0FE0167
:104790004491011119C04423E9F0403260F54F31D2
:1047A00089F14E3189F1942F990F490FD40E21963A
:1047B000CE15DF0579F01032E1F0103841F788812D
:1047C0003DDA482F002339F3D42E00E02196CE1590
:1047D000DF0589F7D092820ED092810EDF91CF91C2
:1047E0001F910F91FF90EF90DF90CF90BF90AF900F
:1047F00008954881CECF2B2D6C2D8D2D4CDED09081
:10480000810ED5CF01E0D3CFF8E0CF0E8FE38C152A
:1048100010F0DA2CCCCFDA2CDDCFEF92FF920F9391
:104820001F93CF93DF93D62F142F7901C5E1C60FC5
:10483000982F990F990F980FD91BDB5E0FC0495C19
:1048400028E0202B612F8C2F26DEF294E2948FE05B
:10485000E822EF24F822EF24CD1741F0C5504E2D69
:104860004F704A3064F7405D20E0EBCFDF91CF918D
:104870001F910F91FF90EF9008950F93922F202F8B
:1048800030E1439FF0011124E90FF11DEE0FFF1FEE
:10489000EB53F54E0190F081E02DE93E33E0F30754
:1048A00054F097E19E0F941710F098E19E0F40E3AB
:1048B000490F0F91F0CD41E6490F0F91ECCD9F923A
:1048C000AF92BF92CF92DF92EF92FF920F931F931E
:1048D000CF93DF93182FD62E942EA22EB02E00E069
:1048E0002FEF40E85DE080E033DFC090D712D0E0EA
:1048F000C0E0EA2CF12C13C0C7010C2E02C0959524
:1049000087950A94E2F722E080FD20E0405D6D2D5E
:10491000812FC1DD1A5F2196C630D10539F04C2FA9
:10492000CC12EACF23E0B110F1CFE6CFBB2039F0B3
:104930008091DB12882319F080E2981669F08A2DA5
:10494000DF91CF911F910F91FF90EF90DF90CF906B
:10495000BF90AF909F9008951092DB1281E090E09D
:1049600001C0880FCA94EAF7A826809124178061B5
:10497000809324172FB7F8948091CE159091CF157E
:104980002FBF90934C0E80934B0ED9CF4F925F92D6
:104990006F927F92AF92BF92CF92DF92EF92FF928F
:1049A0000F931F93CF93DF93782FC901DA01ABBF29
:1049B000FC01B79029013A0122E0420E511C611C12
:1049C000711C0196A11DB11DABBFFC018791282F61
:1049D00030E0295F3F4F35952795359527953595DB
:1049E0002795A22E91E0E1FC04C09E2D9170E0FC81
:1049F00061C00B9D80011124029F6001039FD00CB8
:104A0000129FD00C11240D2C000CEE08FF08C40CD2
:104A1000D51CE61CF71CAA2009F43DC066956695D6
:104A2000669580E8689FA0011124470F511D22E878
:104A300032E1241B350B44244A944B0C24193109D0
:104A4000C2E8D2E1C41BD50B10E0512C712C612CB3
:104A50008FEF481A580A680A780ABB20A9F0DE01CD
:104A60001196B701A6016BBFFA0187914F5F5F4FA7
:104A70006F4F7F4F911180958E932A173B0799F7BF
:104A8000C40CD51CE61CF71C1F5F20583109C05808
:104A9000D109A112E2CFDF91CF911F910F91FF9029
:104AA000EF90DF90CF90BF90AF907F906F905F902E
:104AB0004F9008959091CE1590749BCFFC019081FA
:104AC000990F21812F5F8281662309F440C0916094
:104AD00090832183882309F47EC0482F50E08F35CE
:104AE00009F458C060F0813609F45EC0823609F0DE
:104AF00088C0203488F088E0828311820895813054
:104B0000B9F0893050F4825091E001C0990F8A9534
:104B1000EAF7892F857429F40895803191F540E1F1
:104B200050E08181803370F1559547954283118221
:104B3000ED54FE402BEA3AEAE29FC001E39F900D5C
:104B4000F29F900D112480648093800E08959083CD
:104B50002183882309F3911155C0833679F0AF0181
:104B60004D545E402BEA3AEA429FC001439F900DAC
:104B7000529F900D112480628093800E11821282C8
:104B8000089508954150510990E048235923452B39
:104B900079F208958181803221F1883209F0BCCF09
:104BA00080E1828311820895AF014D545E402BEA6B
:104BB0003AEA429FC001439F900D529F900D1124ED
:104BC00080668093800E10927E0E10927D0E8FE58F
:104BD0008283118208959F3099F481E68283118245
:104BE0000895ED54FE402BEA3AEAE29FC001E39FAC
:104BF000900DF29F900D112480688093800E08958F
:104C000008950895482F50E08F3521F250F48130F7
:104C100009F48ECF893008F476CF803109F47FCF44
:104C20000895813609F2823609F463CF0895CF934F
:104C3000DF93C7E2D7E14AE25DE030E020E0F9012E
:104C4000EE0FFF1FE20FF31FEE0FFF1FE75CF84EA2
:104C500080818695869586958370D1F0FA0185814D
:104C600096816B897C896817790791F09C8B8B8B77
:104C7000809124178061809324176FB7F8948091F6
:104C8000CE159091CF156FBF90934C0E80934B0E25
:104C90002696485F5F4F2130310519F4DF91CF919F
:104CA000089521E030E0CBCF8091CA1B8F70109225
:104CB000C500833011F18FEC8093C4008091C00057
:104CC00082608093C0001092C10086E08093C20091
:104CD0008091C10080618093C1008091C00087FFF6
:104CE00006C08091C6008091C00087FDFACF8091F8
:104CF000C10080688093C100089581E28093C40060
:104D00008091C00082608093C000DDCF80919E0CB6
:104D100090919F0C2091B60C3091B70C0097E9F060
:104D2000820F931F9093B70C8093B60C2091FB0CCD
:104D30003091FC0C2817390724F49093FC0C8093D5
:104D4000FB0C2091F90C3091FA0C8217930724F494
:104D50009093FA0C8093F90C0895319521953109BF
:104D600030939F0C20939E0CDDCFFC01262F808179
:104D7000811111C060838181882359F0281748F080
:104D8000411120838281882311F0821708F4228345
:104D900008952183F5CF90E0880F991F860F911D0C
:104DA00063E070E00F94226A621708F46F5F60831B
:104DB000E2CF8091CB1B85958595835D08958330E7
:104DC00089F008F04CC0813009F44CC08230F1F415
:104DD0001092CD0083E38093CC008091C800826064
:104DE0008093C8001092CD0087E68093CC0080911C
:104DF000C80082608093C8001092CD008FEC809331
:104E0000CC008091C80082608093C8001092CD00D1
:104E100080E18093CC008091C80082608093C800BC
:104E20001092C90086E08093CA008091C900886012
:104E30008093C9008091C90080618093C9008091EE
:104E4000C80087FF06C08091CE008091C80087FD12
:104E5000FACF8091C90080688093C900089584309A
:104E600059F2D4CF1092CD0081E28093CC00809192
:104E7000C80082608093C800ABCFE5EAF5E190E01E
:104E8000892F806480937C0080917A008064809375
:104E90007A0080917A0086FDFCCF209178003091D5
:104EA000790080917A00806480937A0080917A0002
:104EB00086FDFCCF4091780050917900240F351F7A
:104EC000219331939F5F9830D9F6089580E190E067
:104ED0000895CF938091131E9091141E9093891D75
:104EE0008093881D8091151E9091161E90938B1DA6
:104EF00080938A1D8FEF9FEF90938D1D80938C1D63
:104F000090938F1D80938E1D1092911DE2E9FDE11B
:104F1000858D81938DE1E23AF807D1F74AE050E0C0
:104F20006FEF70E082EA9DE10F946B6E1092AC1D02
:104F30008091121E882399F0CFEFC80FC33068F418
:104F40009CEB9093871D833091F0C093901D81E07E
:104F50008093A21D80E88093A31DCF9108958BEBD1
:104F60008093871D81E08093901DCF91089580915B
:104F7000511D9091521DA091531DB091541D8093CD
:104F80008C1D90938D1DA0938E1DB0938F1D40E1BD
:104F900050E06FEF70E082E99DE10F946B6ED5CF2A
:104FA000EF92FF920F931F93CF93DF938C017B01BE
:104FB000C42FD0E0AE0170E060E00F946B6EF7019B
:104FC000D801CE0DDF1D90E611C0813614F5813475
:104FD00024F5803334F58D3231F18E3231F18C325B
:104FE00031F180E08D93EC17FD0761F0819188230A
:104FF00049F08F35A1F0843844F787558D93EC172D
:10500000FD07A1F7DF91CF911F910F91FF90EF90D6
:105010000895292F281B822FE5CF8054E3CF85E206
:10502000E1CF8551DFCF86E2DDCF87E2DBCF88E2BB
:10503000D9CFEFE6F0E080818D7F8083B19A109226
:10504000C1161092C016E7E8FDE180E9DF011D926C
:105050008A95E9F708958091090190E080959095EF
:105060008F739927892B11F4959902C0A895F3CFD6
:10507000639BFCCFEDE4FEE080E3DF011D928A95A7
:10508000E9F71092800E0895809139178871803168
:1050900061F010922E0D80913717909138179093F0
:1050A000300D80932F0D1092310D80913F17887134
:1050B000803161F01092360D80913D1790913E172E
:1050C0009093380D8093370D1092390DE4E9FCE090
:1050D00081E8DF011D928A95E9F71092150D809104
:1050E0002517877F8093251710929D1510929C1588
:1050F00010929B1510929A1510921A15109219156C
:1051000010921C1510921B1510921D15109220154F
:1051100010921F1510921E150895CF93DF93D82F6C
:10512000C92F87DF1092C6141092C5140E94E51A89
:10513000E4E9FCE081E8DF011D928A95E9F710922D
:10514000150D809103028F3F39F0E091851DF0919C
:10515000861D82E090E0199590913117392F329594
:1051600036953695337080913217282F2F70220F85
:10517000220F232B2F3008F064C0822F90E0FC0117
:10518000EE0FFF1FE80FF91FEE0FFF1FE85AF54F54
:105190000480F581E02D20930302F093861DE093B7
:1051A000851D83E090E019952091C21680913217F9
:1051B00082958F7022952F70821708F4282F2295E0
:1051C000207F809132178F70282B20933217809187
:1051D000C4162091331728170CF4282F8091C51678
:1051E00082170CF4282F209333178091C616209134
:1051F000341728170CF4282F8091C71682170CF447
:10520000282F209334172091C316220F220F220F2C
:10521000809135178F7125952595259582170CF46A
:10522000282F2F7180913517807E282B20933517DA
:10523000E091851DF091861D8D2F9C2FDF91CF91E0
:1052400019949F7390933117807F80933217ECE508
:10525000F2EB20E0A0CF6F927F928F929F92AF925D
:10526000BF92CF92DF92EF92FF920F931F93CF9353
:10527000DF93CDB7DEB72D970FB6F894DEBF0FBE24
:10528000CDBF6C013701D701ED90FC90F301828115
:105290009381809693838283D6018C91853E09F415
:1052A000BEC0882309F4BBC0F6019384FFE09F16BB
:1052B00009F4B9C0F7019081992391F0F30184803A
:1052C00011965601FBE0AF0EB11C80FB879587F964
:1052D0009D91890FAA15BB05C1F7881609F45FC017
:1052E00081E3D7011D928A95E9F7F70101A712A77B
:1052F00023A734A745A756A767A770ABD701960188
:1053000080E0F90191919F01AD019032B1F09C9341
:10531000F601448543FF0AC0A90141505109FA0131
:10532000408141544A3110F4905E9C938F5F1196F6
:10533000883039F7A701485F5F4FD7019C919530BE
:1053400009F4B9C0F6019085903229F191E0980FE7
:105350002EE2DA012C93D60118968C5F2D91A701CD
:10536000490F511D2032B9F0FA012083F60134852E
:1053700034FF0BC0BD0161507109FB013081315414
:105380003A3118F4205EFA0120839F5F9813E6CF2C
:10539000A701490F511DDA011C92F6019384F70110
:1053A00090A2F601428D538D70E060E0F70141A3B9
:1053B00052A363A374A3F60184899589B0E0A0E0A9
:1053C000DC0199278827842B952BA62BB72BF70177
:1053D00081A392A3A3A3B4A3F601848D958DA68D7A
:1053E000B78DF70185A396A3A7A3B0A781E0F3012A
:1053F000858380E02D960FB6F894DEBF0FBECDBF3B
:10540000DF91CF911F910F91FF90EF90DF90CF90A0
:10541000BF90AF909F908F907F906F900895F30111
:10542000148281E0E7CFF3019481992321F0F60102
:10543000A5859A17A1F081E3D7011D928A95E9F716
:10544000F6018585F3018483F70101A712A723A73D
:1054500034A745A756A767A770ABD6018C918F7369
:105460008150990B4DE0489F9001499F300D1124C8
:10547000E2EBFAE0DE01119601900D924A95E1F718
:10548000E20EF31EAE01425F5F4FFE0131962E1B0E
:105490003F0BC9018E0F9F1F4F9758F4A191AC0D80
:1054A000BD2DB11D8C91D7018D937D01E417F507BA
:1054B00081F781E09FCF95EE9C9344CFCF93262F29
:1054C00030E0882371F1C5E06C9FC00111248B5D31
:1054D000964E4FE050E0421B530B9A01220F331FB0
:1054E000220F331F420F531FBC016B5F7F4F0F947E
:1054F0005A6EE0E7F9E1DF011D92CA95E9F7809164
:1055000024178061809324172FB7F8948091CE15CB
:105510009091CF152FBF90934C0E80934B0ECF914F
:105520000895CAE06C9FC00111248B5B984E47E23E
:1055300050E0BA01621B730B9B01AB01440F551F76
:10554000440F551F420F531F440F551FBC01665F88
:105550007F4F0F945A6EEBECF8E1DF011D92CA9574
:10556000E9F7CDCFDF92EF92FF920F931F93CF9386
:10557000DF93009186121FEF100FE62EF12C882387
:1055800009F448C005E0609FE0011124CB5DD64ED0
:105590004FE050E04E195F09CA01880F991F880F2C
:1055A000991F480F591FBE01CE0105960F945A6EE0
:1055B000FE0111920A95E9F7F701EE0FFF1FEE0FBA
:1055C000FF1FEE0DFF1DDF01AB5DB64E110F110F7A
:1055D0001C7013608C91807F182B1C93E85DF64E35
:1055E00084E68083809124178061809324172FB7ED
:1055F000F8948091CE159091CF152FBF90934C0EBB
:1056000080934B0EDF91CF911F910F91FF90EF9000
:10561000DF9008955AE0D52E6D9DE0011124CB5BFB
:10562000D84E87E290E08E199F09AC01440F551FB8
:10563000440F551F480F591F440F551FBE01CE017F
:105640000A960F945A6EFE011192DA94E9F7C70197
:10565000880F991F880F991FFC01EE0DFF1DEE0F9B
:10566000FF1FEB5BF84E212F2F701081107F122B44
:1056700010830530ACF4E091501CF0E0EF55F14E92
:10568000E491F0E024E030E0201B3109220F331FC9
:105690008F0102C0159507952A95E2F703700F5FF9
:1056A000FC01EE0DFF1DEE0FFF1FE95DF84E078FA9
:1056B00084E680A397CFDF92EF92FF920F931F9320
:1056C000CF93DF939C01C0918C12EC2EF12CF7014B
:1056D000EE0FFF1FEE56FD4E008111816091871283
:1056E000862F90E0FC01EE0FFF1FEE0FFF1FE80F6B
:1056F000F91F4CE70131140709F477C0EE0FFF1FC3
:10570000EB5BF84E80818F70D1E0D80F48E02F34EA
:105710003407B1F1DD24D3948CE70131180709F087
:10572000D12C48E021343407E1F088E023333807F6
:1057300009F46BC088E02C32380709F443C082E0DA
:1057400048E02332340709F43EC02951384091F52E
:105750008D2DDF91CF911F910F91FF90EF90DF90F2
:10576000ADCE8D2D0E946321811124C0D09386126D
:10577000609187128D2DF6DE01511C4709F442C05D
:105780008BE990E823E620934F0ECC2331F0F7010C
:10579000E357FD4E2091D8122083CF5FC0938C1227
:1057A000D0E0CC0FDD1FCE56DD4E998388838FEB82
:1057B00080939112DF91CF911F910F91FF90EF9005
:1057C000DF90089581E080938A1260938512D093D0
:1057D00084128091D81280938912DF91CF911F910A
:1057E0000F91FF90EF90DF900895EB5DF64E808172
:1057F000869586958370D1E0D80F88E02F343807DE
:1058000009F088CF80ED90EEBDCF8D2D0E946321F1
:105810008111D0CFD0938612609187126F5F609311
:1058200087128091D8129091D91201969093D91233
:105830008093D8129FCFBF92CF92DF92EF92FF92C8
:105840000F931F93CF93DF93C82EB62EE42E809133
:105850004617882309F47DC00C2D10E030E020E0CD
:10586000C5E4D7E1F12C90E080E0BAE0DB2E1CC06B
:10587000F39488E2F81609F467C02F2D30E0FD9C00
:10588000E0011124CB5BD84EC901880F991F880F06
:10589000991FFC01E20FF31FEE0FFF1FE95DF84EA9
:1058A000478D442309F442C0FC01E20FF31FEE0FC1
:1058B000FF1FEB5BF84E20812F7030E002171307BB
:1058C0004CF0EE20A9F22017310791F66F2D80E001
:1058D000F5DDD3CF87E290E08F199109AC01440F39
:1058E000551F440F551F480F591F440F551FBE0128
:1058F000CE010A960F945A6E8AE0FE0111928A95A3
:10590000E9F7FC2DFF70CF2E9881907FC92AC882BD
:10591000B98284E68A83CE01DF91CF911F910F91E6
:10592000FF90EF90DF90CF90BF90089587E290E0D6
:10593000821B930BAC01440F551F440F551F480F9A
:10594000591F440F551FD3CF46EF5FEFC5E4D7E192
:10595000CECF46E851E0C5E4D7E1C9CFEF92FF9240
:105960000F931F93CF93DF9300D00F92CDB7DEB785
:105970001A8219821C821B82E091501CF0E0EF55C4
:10598000F14E66E070E010E0012F1F5F962F41E0BE
:1059900050E0249130E0092E02C0359527950A94F5
:1059A000E2F723702F5F2417150649F4DA011197E7
:1059B00021E030E02C0F3D1FA20FB31F0C934F5F6F
:1059C0005F4F4530510529F7625071091430E1F6F7
:1059D0008230A8F4E5E4F7E120E931E0DF01A90134
:1059E0001D9241505040E1F78150873068F4E82F14
:1059F000F0E08827E650FE488E4F0D94736A86309B
:105A000049F38150873098F3809124178061809307
:105A100024172FB7F8948091CE159091CF152FBFF2
:105A200090934C0E80934B0E0F900F900F900F9011
:105A3000DF91CF911F910F91FF90EF90089588E033
:105A4000E82EE5E7F9E1DF012E2D1D922A95E9F711
:105A5000EDE7F9E188E6DF011D928A95E9F740E07C
:105A60006BE080E0E8DE40E06CE081E0E4DE40E016
:105A70006DE082E0E0DE40E061E083E0DCDE40E01B
:105A800063E084E0D8DEFC01FF24F394F38280819C
:105A90008061808387E080878581837E84608583C1
:105AA00040E063E084E0C7DEFC0102E00383808124
:105AB00080618083E0868581837E8460858340E089
:105AC00063E084E0B8DEFC0113E013838081806131
:105AD000808389E080878581837E8460858340E040
