:100000000C9414140C9445140C9445140C9445143D
:100010000C9445140D940E470D9445470D94B34729
:100020000D947C470C9445140C9445140C94451481
:100030000C9445140C9445140C9445140C944514DC
:100040000D94A0490D9410490D9475490C944514D4
:100050000C9445140C9445140C9445140C944514BC
:100060000C9445140D94794A0D94BD4A0C94451492
:100070000C9445140C9445140C9445140C9445149C
:100080000D940E480C9445140C9445140C9445148E
:100090000D94204A0D944B4A0C9445140D94E2465D
:1000A0000C9445140C9445140C9445140C9445146C
:1000B0000C9445140C9445140C9445140C9445145C
:1000C0000C9445140C9445140C9445140C9445144C
:1000D0000C9445140C9445140C9445140D94EA4763
:1000E0000C9445140D949A620D94ED2A0D943B1EC8
:1000F0000D94E2290D9450190D94AC110D94EB2A36
:100100000D943F270D9493180D9427110D946211AF
:100110000D9400110D9472120D94351E0D94EC087F
:100120000D94D02A0D94FC250D94161E0D941C1EC2
:100130000D94411A0D94421E0D94D01E0D942E1A4A
:100140000D94DF180D9417200D941D1A0D94F81EB0
:100150000D9421020D94F82A0D9410090D94823704
:100160000D94271E0D94121F0D94DD270D94B42BB2
:100170000D947A180D9410120D94B3430D94EF2A38
:100180000D9433180D94CA1E0D943A3F0D94B1315D
:100190000D94261F0D94FF100D9463110D94990773
:1001A0000D94FA110D9496060D9423120D94CD180A
:1001B0000D947C250D9469190D94A22E0D940F12A7
:1001C0000D94CD2A0D949A100D9432290D94FE1E93
:1001D0000D9480380D942A110D94AD110D94D41EF8
:1001E0000D941B070D948A1D0D94201F0D94FB1177
:1001F0000D94E82A0D940C1FAED580A83FD3004083
:100200008D142000A1C8DA1281CFD9F1DB40A4A659
:10021000AF9CCE003264E2F1003264645A505A64FA
:1002200050463C46649C141E465A40400000000064
:10023000070F0C18081808180818081909190919BF
:1002400009190818081808180818081808180818AC
:10025000081808180818081808180818081808189E
:100260000818081808080C0700000000000000AA81
:10027000FFFF00000000000F3F70C0808080008002
:100280008080FF7F00001F1F0C1818180F07000048
:10029000030F0C19191B0F0600001F1F070C18185D
:1002A0001F070000000000FFAA000000000000AAD5
:1002B000FFFF0000000000C0E07030181818181888
:1002C00030E0C0000000FFFF18181818F0E0000030
:1002D000F0F09898881818303000F8F80000000006
:1002E000F8F80000000000FFAA000000000000AACB
:1002F000FFFF0000000000000001070E3C7C3F01F2
:10030000000000787F07808000010F3E70400000F1
:100310007F7F60606060311F0F00000000030306F4
:1003200006020300000000FFAA000000000000AA6F
:10033000FFFF00000000063E78E0E0C0C0C0E0FE25
:100340001E00000080F07E1E7CF080000000000097
:10035000FEFEE0E0E0F0B89C0E060030FC8C0606E5
:1003600006060C00000000FFAA000000000000AA22
:10037000FFFF00001F1018080C0603000000010218
:1003800002030100010302020201001F0001010338
:10039000020002020F020200000103020301000337
:1003A00001020203010000FFAA000000000000AAF1
:1003B000FFFF0000F01808080818F0E000F05848A7
:1003C000C88810000888C868381000F880C06030FD
:1003D00018000000F8000000E098080818E000FF8E
:1003E00010080818F00000FFAA00000000000080BC
:1003F000E0F0703830383038303830383038303815
:1004000030383038303830383038303830383038AC
:10041000303830383038303830383038303830389C
:1004200030383038303070E0800000007265626F24
:100430006F74007665723A200020627974657300EB
:1004400072616D3A20006D7600726D00726D6469A4
:100450007200534420746F205344206D6F76650002
:100460006C733A20002000200068656C703A20749C
:100470006869732068656C70006572723A20756EE9
:100480006B6E6F776E20636D64003B0535059B5284
:10049000320526050F6123051305A2000D0503058E
:1004A0006B520005FB04D760F804E804D800E504AB
:1004B000D8049558D404D3044752CF04CE047052C4
:1004C000C704C6042A52007265626F6F740000761A
:1004D0006572000072616D006368312D6368383A9F
:1004E00043686B730074660073726366696C6520A1
:1004F00064737466696C65006D760066696C65008E
:10050000726D006469726563746F727900726D64F4
:1005100069720073726366696C65206473746669DE
:100520006C65006370005B6469726563746F7279F7
:100530005D006C73005B636D645D0068656C7000EA
:10054000786D646D0053442F0075434C493E005450
:10055000656D702E20726164696F1F7440430046A0
:10056000726565205372616D1F7862004D69786510
:10057000721F726D73004C63642053656E641F724A
:100580006D7300477569204275696C641F726D73E5
:100590000050726F746F636F6C1F727573004D61E2
:1005A00078004D696E00436F6D7075746500015081
:1005B000726F702E0001303A33363000014E6220E7
:1005C00072807080746974696F6E200001566F6963
:1005D0006520004E756D80726F000141637469661D
:1005E000005820414E5900014E756D5278005B4213
:1005F0006E645D005B5072745D006D5700202020BA
:10060000202D42494E442D202020202000524649D2
:100610004420203A0006455445494E445245203F67
:1006200000012A2A2A004461746500456E632E5237
:100630006F742E0050657273005661726961626C4E
:10064000657320476C6F62616C657300015479704B
:1006500065005461696C6C653A00596561723A00D5
:10066000547970653A00494E464F2053440048651E
:10067000757265004E2F4400207375707072696D3D
:100680008000496E666F726D6174696F6E0053759C
:10069000707072696D657200417563756E206D6F63
:1006A00064816C6520534400436172746520534437
:1006B00000494E5445525300534F4E0047415A0093
:1006C000454550524F4D00414C45525445002E6215
:1006D000696E002E63737600436172746520534423
:1006E000206D75657474650045727265757220635E
:1006F000617274652053440052657374617572654C
:1007000072204D6F64816C65004172636869766523
:1007100072204D6F64816C6500496E636F6D70610E
:100720007469626C65005B52415A5D004761726496
:1007300065722054696D65727300537461746973D6
:10074000746971756573005280696E69742E2054E6
:10075000806C806D2E005280696E69742E20546901
:100760006D657232005280696E69742E2054696D15
:10077000657231005280696E69742E20766F6C004C
:100780005375707072696D6572004480706C61633E
:10079000657200436F7069657200496E738072659F
:1007A0007220617072817300496E7380726572206D
:1007B0006176616E7400456469746572005375708A
:1007C0007072696D6572204D6F64816C6500448044
:1007D000706C61636572204D6F64816C6500436F5E
:1007E00070696572204D6F64816C6500437280652D
:1007F00072204D6F64816C650053806C6563742E4C
:10080000204D6F64816C650001436F7572616E7479
:10081000000154656E73696F6E004C6F6E6769748A
:10082000756465004C617469747564650052535356
:1008300049204D696E2E0043616C69622E20426131
:100840007474657269650053617576656761726479
:1008500065202E2E2E0003415252455420454E2035
:10086000434F55525300496E766572736572204747
:10087000617A3F0044454255470053544154530068
:10088000474142415249545300014C696D697465B6
:100890000054454C454D455355524500464F4E4337
:1008A00054494F4E5320535045432E00494E544512
:1008B0005253204C4F472E00434F55524245004360
:1008C0004F5552424553004C494D495445530044FD
:1008D000522F4558504F00434F4E462E48454C49E5
:1008E0000050484153455320444520564F4C00503A
:1008F0004841534520444520564F4C00434F4E46F7
:100900002E204D4F44454C45004D4F44454C4553DA
:100910000043414C4942524154494F4E00414E41DF
:100920005300494E544552530056455253494F4E79
:100930000045434F4C414745000142696E642061C8
:1009400075746F0001467280712E736572766F0048
:100950000154806C806D80747269650001416A7514
:1009600073742E667280710001467280712E20763B
:100970006964806F00015375702E2042696E6400B7
:10098000014E756D2E20766F696573000150756993
:100990007373616E63652052460053504952664D31
:1009A0006F640001436F72722046415300434F4E03
:1009B00046494720524144494F00055472696D73BE
:1009C000203D3E205375627472696D7300448070DF
:1009D000617373656D656E7420454550524F4D00CF
:1009E000466F726D617461676520454550524F4D89
:1009F00000454550524F4D20636F72726F6D707598
:100A00006500546F7563686520706F757220636F41
:100A10006E74696E75657200416C61726D657320EC
:100A200044807361637469768065730047617A20DE
:100A30007061732082207A80726F00546F756368D2
:100A40006520706F75722069676E6F726572004500
:100A50004550524F4D20706C65696E6521005056AF
:100A6000004D4F44454C45004348005452005B4DF7
:100A7000454E555D20706F75722072657365740008
:100A80007573001F665345531E544D311F66544DF8
:100A9000321E47415A1F66475A25004E4F20444197
:100AA0005441004163633A0054783A0052783A0066
:100AB00004424F5547455220535449434B532F50FE
:100AC0004F545300085245474C4552204E4555540B
:100AD00052455300065B4D454E555D20504F5552D3
:100AE000204445425554005472696D2D202B00431B
:100AF000616C004D756C7469706C69657572004D40
:100B00006F6465062520536F7572636500456C81BF
:100B10007665004F7264726520766F696573205246
:100B20005800014C65206D6F64816C65206573749D
:100B300020616C6C756D8000566172696F00436F47
:100B40006F72646F6E6E80657300416A7573742E88
:100B5000206865757265206175746F0046757365F0
:100B6000617520686F726169726500416C657274AD
:100B70006520696E7400416C657274652067617AE6
:100B8000004C6F676F2064276163637565696C0053
:100B900001447572806500528074726F80636C616D
:100BA00069726167650001506572736973742E0024
:100BB000014269702066696E0001426970206D69AA
:100BC0006E2E004E6176696720456E63526F740029
:100BD0000153696C656E636500014D806D6F6972CC
:100BE0006520706C65696E650001496E61637469AA
:100BF00076697480000142617474657269650050A1
:100C00006C61676520626174746572696500416C2E
:100C100061726D657300436F6E7472617374650009
:100C2000566962726575720001546F6E616C697409
:100C3000800001447572806500536F6E00456372D9
:100C4000616E20000150616C657300446F6E6E80B0
:100C500065730001416C61726D650001506C6167E4
:100C6000650041005647004342004D4958455552E2
:100C70000052616C656E7469206861757400526120
:100C80006C656E7469206261730052657461726490
:100C900020686175740052657461726420626173CA
:100CA000004F7080726174696F6E004F464600415C
:100CB0006C6572746500506861736500436F75728E
:100CC00062650044526578005472696D0001448089
:100CD00063616C61676500436F7480004578706F75
:100CE00000526174696F0001536F7572636500454E
:100CF0004449544552204D495841474500494E53B7
:100D000045524552204D4958414745004D61782094
:100D10006D6978616765732061747465696E7421AB
:100D2000004D6178206578706F7320617474656917
:100D30006E742100014D6F646500496E762E20634C
:100D40006F6C6C656374696600496E762E206C6109
:100D5000748072616C00496E762E206C6F6E6769CC
:100D60007475642E004C696D697465204379636CF9
:100D70002E00436F6C6C656374696600547970650E
:100D800020646520506C61742E000656807269667E
:100D90000A5472696D730028648066617574290055
:100DA000466F6E6475204F464600466F6E64752030
:100DB0004F4E005472696D7300496E746572006D18
:100DC00073005472616D652050504D000150726F78
:100DD000746F2E00426970732063656E74720054E4
:100DE00072696D2067617A00537769746368204780
:100DF000617A00536F757263652047617A005061B4
:100E000073205472696D005472696D732080742E62
:100E1000004C696D697465732080742E004368729C
:100E20006F6E6F20004E6F6D004368617267656D75
:100E3000656E742E2E2E004480706C6163656D6546
:100E40006E742E2E2E00436F7069652E2E2E005369
:100E500055505052494D4552204D4F44454C450048
:100E60006469737000065B4D454E555D20515541D8
:100E70004E442050524554005B4D454E555D085B35
:100E8000455849545D00034F46464F4E00032D2DF3
:100E90002D494E5604013443480136434801384336
:100EA0004831304348313243483134434831364386
:100EB0004805417563756E416C61726D4E6F4B658F
:100EC00079546F757400034E6F6E524561524562DE
:100ED00003524561524562034F4646202B3D203A5E
:100EE0003D03434831434832434833434834064581
:100EF00078706F0020457846696E0046696E002064
:100F0000204D6F79656E0047726F73002001445069
:100F100047413132336162044F46460042746E737A
:100F20004374726C546F75734F4E00032D2D2D78E2
:100F30003E30783C307C787C663E30663C307C6667
:100F40007C08416A6F75746500204D756C7469701A
:100F50006C2E52656D706C616365022B3D2A3D3AC3
:100F60003D034F46464F4E004469725072664761DA
:100F70007A41696C052D2D2D0020613D780020619E
:100F80007B780020613E780020613C7800207C6105
:100F90007C3E787C617C3C7845540020204F550095
:100FA00020204F55580020613D620020613E6200C4
:100FB00020613C6200205E7D7800207C5E7C7D7834
:100FC00054656D700042697374000D52656D706CEC
:100FD0002E0020202020202045636F6C6167650073
:100FE00020202020205472696D20696E7374616E18
:100FF000742E52656D697365208220300020204177
:101000006A75737465720020202020204A6F756510
:101010007220736F6E002020204A6F756572206603
:101020006963680020204A6F756572206C657320C3
:101030003200204C6972652076616C657572002003
:10104000566172696F00202020202020205669629E
:10105000726575720020202020204C6F677320532A
:1010600044002020202020528074726F80636C2EF8
:1010700000202020044368723143687232546F7537
:101080007454656C6D5245610052456200044270B3
:101090003100427032004270330057726E31577225
:1010A0006E3243686565526174615469636B53695C
:1010B000726E52696E6753636946526F6274436819
:1010C0007270546164614372636B416C726D042D84
:1010D0002D2D00426174744368723143687232543A
:1010E0007800205278002041310020413200204118
:1010F0006C740052706D0043617262543100205470
:101100003200205669740044697374416C74474519
:101110006C656D56656C6D56666173436F75724391
:101120006E736D50756973416363584163635941D0
:1011300063635A436170005669745656697441641A
:1011400045540041312D0041322D00416C742D4138
:101150006C742B52706D2B54312B0054322B005673
:1011600069742B4473742B5669412B456C6D2D4566
:101170006C732D5666732D4375722B5075692B4118
:10118000636300546D7073035600204100206D2F7F
:10119000732D00206B6D686D00204000202500201D
:1011A0006D41006D416857002007417563756E20E1
:1011B00020487562002020205753484869676853CB
:1011C0002E506F72740004444D53004E4D45410340
:1011D0002D2D2D41310041320046415343656C05B0
:1011E000416C746900416C74692B566172696F417E
:1011F000310020204132000456616C2E426172732E
:101200000F5375707072204D6978616765730020A7
:101210003420566F6965732073696D706C65004387
:101220006F75707572652047617A00202020456DCA
:1012300070656E6E616765205600202020456C65E4
:10124000766F6E5C44656C7461002020654343508A
:101250004D00202020202020202020436F6E662E6D
:101260002048806C69636F0020205465737420539C
:101270006572766F0020202020042D2D2D20313224
:1012800030203132305831343020393000054D654E
:101290006E7500457869740042617300204861757D
:1012A000740044726F69744761756368032D2D2D56
:1012B00049443049443149443254485252554445D6
:1012C0004C4541494C47454154524E74446774441F
:1012D00064745062745068744762744768744167FC
:1012E00074416452454152454252454E584430582B
:1012F00044315844324C31004C32004C33004C34B1
:10130000004C35004C36004C37004C38004C39004E
:101310004C31304C31314C31324C31334C31344C16
:1013200031354C31364C31374C31384C31394C3207
:10133000304F4E00556E042D2D2D00446972005023
:1013400072660047617A0041696C0050310020509C
:101350003200205033002052456100524562004D5A
:10136000415800435943314359433243594333545D
:10137000726D4454726D5054726D4754726D4133A6
:10138000504F53034F46464F4E00475A73475A2516
:10139000475A740C4F464600202020202020202051
:1013A000566F6C002020202020202020526573657D
:1013B00074204D616E75656C0553772E2D2D4C3163
:1013C0002D4C344C312D4C3853772E342053772EFE
:1013D000382053772E313605302500202032352530
:1013E000002033372E352535302500200000000041
:1013F000FFFFFF010706FF00181818FFFF0606FF92
:10140000FF06060606FF7CFE82FE7C0042FEFE0210
:1014100046CE9AF2628292FEFE6C183848FEFEE4D6
:10142000E6A2BE9C7CFE92DE4C809EBEE0C06CFEBE
:1014300092FE6C60F296FC78FF6C6CFFFF7EFE9073
:10144000FE7EFEFE92FE1E7CFEFE8282FEFE82FE7E
:101450007CFEFE929282FEFE9090807CFE829A9E9E
:10146000FEFE10FEFE82FEFE82FF0C0E82FEFCFEE1
:10147000FE38EEC6FEFE0202FFFEE0F8E0FEFEFED3
:1014800080FE7E7CFE82FE7CFEFE90F0607CFE8212
:10149000F47AFEFE98FE1E62F2BA9E8C80FEFE80FA
:1014A000FFFCFE02FEFCFEFE06FCF8FEFC08FCFE55
:1014B000C6EE38EEC6E0F01EFEF08E9EBAF2E22EC8
:1014C0002E2A3E3EFEFE223E3E3E3E2222223E3E50
:1014D00022FEFE3E3E2A3A3A10FEFE90FF3A3A2A9B
:1014E0003E3EFEFE203E3E22BEBE02FF0222BEBCAB
:1014F000FFFEFE1422FF82FEFE02FF3E303C303E25
:101500003E3E303E1E1C3E223E1C3E3E243C3C3CA9
:101510003C243E3E3E3E3038183A3A3E2E2EFCFEEB
:101520002202FF3E3E063E3E3E3E063C383E3C0822
:101530003C3E22361C36223A3A0A3E3E22262E3ABB
:101540003280400000000000081C1E3F3321202094
:10155000302030303B3F3F3E3810000207070F0D70
:101560000D0C0C0C0C060703010000000101010129
:101570000101010101010101010101000103030653
:10158000060606070301010000000000000000003D
:1015900000000000000000000000001010101022E9
:1015A000223C0C0404040505071313190F0303025E
:1015B0000F070300181E1100171C0012161F00024F
:1015C0000F07020000000000000000000000000FF4
:1015D0000F070783C3C14000000000006020B0B0C7
:1015E00090D8D8D8D8D8F0F0F00070F8FC8C848669
:1015F0008686838387DFFFFFE0801F7FFFC00000B8
:101600000000000080C0FF7F00C07F7F3F3030308F
:1016100030303018181D0F070003070F0F1D191960
:101620009999898D8F87070100008C8F070707061E
:10163000C68606060203C1C10000C040C08000008B
:10164000800000000000000000000000000007FF14
:10165000FFFFFFFFFFFF1F0100000000303F3F3F83
:101660003F03000000000000000000070703030321
:1016700003000000018181C14101C1F1FD1C0E0E7A
:10168000060E0C1C3878F0C00070E0E0E0E060600E
:101690006060606040C0C0800080C0E0E020B0B00A
:1016A000B0B0B0B0B0A08000000000C0F0F8700092
:1016B00000000000000818F0F0F0600000000000DA
:1016C000000000000000000000000000000FFFFF0D
:1016D000FFFFF8F8FFFFFFFF0100000000C0F0FF70
:1016E000FFFFFF0F00000000000000FFFFFFFFFFF3
:1016F000FF00000000E0FFFFFFFFFFFFFFF0F0F042
:10170000F0F0F0F0F07070787C3C3F3F1F1F0F0F3F
:1017100007030000000000000000010307070F0F8F
:101720000F0F1F1F1F1F1F1F1F1F1F1F1F0F0F0F19
:101730000F0F0F0F0F0F070703030100000000003A
:101740000000000000000000000000010FFFFFFF8C
:10175000FEC00000C0FFFFFFFF0F0000000000E020
:10176000FFFFFFFF7F00000000077FFFFFFFFCF08F
:10177000000000000000FFFFFFFFFFFFFF0F0F0F43
:101780000F0F0F0F0F1F1F1F1F3FFFFFFFFDF8F869
:10179000F0F000000000000F7FFFFFFFFFFFFFFCE5
:1017A000F0E0C08080000000000000000000008029
:1017B00080808080818181818181800000000000A3
:1017C0000000000000000000000307FFFFFFFFFF14
:1017D0001F1F1F1F1FBFFFFFFFFF7F000000000034
:1017E00080FFFFFFFF7F071FFFFFFFFCE08000007F
:1017F0000000000001FFFFFFFFFFFFE0C0C0C0C00E
:10180000C0C0C0C0C0C0E0FFFFFFFFFFFFFFFF0080
:1018100000000000000000FCFEFFFFFFFFFFFF1FB5
:101820000F0707070707070707070F0F0F3FFFFF00
:10183000FFFFFFFFFEFEF8F0E000000000000000E8
:1018400000000000000000063EFEFEFEF0808080EA
:1018500080808080808080FEFEFEFE3E00000000D2
:1018600000C0F8FEFEFEFEFEFEE08000000000006C
:1018700000000004FCFCFCFCFCFCF8000000000084
:1018800000000000000000F8F9F9F9F9F9F9F9F998
:1018900039190B03030303030303838383C7C7C7F8
:1018A000C7E7E7E6E6E6E6EECECECECECCCCCC9CE5
:1018B0009C1C1C1C18183838383838303070707040
:1018C00070706000001030303030303030303030E8
:1018D00030303030303030303030307070707070C8
:1018E0007070707070707070706060606060606068
:1018F000606060606060606060E0E0E0E0E0E0E068
:10190000C0C0C0C0C0C0C0C0C0C0C0C0C0C0C08017
:1019100080808080808080808080000000000000C7
:1019200000000000000000000000000000000000B7
:1019300000000000000000000000000000000000A7
:1019400000000005030706060D05055074315074AC
:10195000325074334261740000030002020202003C
:10196000090D04FD81FD050504040408F8000000CC
:10197000F80808081F1C1F1E1F1E1F1F1E1F1E1FEA
:101980000002020001FF000000FF000000FF000055
:10199000000000FF0000000000000000FF0112082E
:1019A00000081C0808081C08000008220049002242
:1019B000080000000000227F2200000008220049E9
:1019C000002208000008220049002208000000222E
:1019D0007F220000000000082200490022080000C9
:1019E000081C0808081C080056EEBC001179066D9A
:1019F00070683F7BC7670052535349000100FF01E5
:101A000000FF01000001FF00000000FF00030002D2
:101A10000202020002020202793D00783D00707469
:101A20000070742700000003010000FF02020202A0
:101A30000202020202020202000000FF0101010193
:101A400001010101010101010004032D3D312B3D84
:101A5000310000030005050505050505050505051B
:101A60000505050505002F3430002F313600446987
:101A70006666000000000101050000000000000093
:101A800005000000000005003C5D000000020000B1
:101A90000002000000000100000000000608010232
:101AA000020002000000001B203F202020202020F8
:101AB00021232120272F27202123232020202020FD
:101AC0002020203FFF0000003F7F00FFFFFF01FFBD
:101AD000FFFF01FFFFFF0000000101010000FFFF09
:101AE000000000FFFFFFFFFFFFFFFFFFFFFFFFFF03
:101AF000FF1F3FFFFCF0C00000FFFC04040484E46F
:101B0000E4F4F4F4D4E4F4F4F4F4F4F4E4C40404F5
:101B100004040404FC46573A204F70656E41565247
:101B2000632D4D6567614D696E691E564552531FA1
:101B30001B3A20332E312E301E444154451F1B3A90
:101B400020323032322D30322D31341E54494D4541
:101B50001F1B3A2031393A30373A34371E45455049
:101B6000521F1B3A203332005F2D2E2C0057656C1C
:101B7000636F6D6520746F204F70656E41565263C0
:101B80002056332E302021000301020004050607F1
:101B9000000102030002010303010200030201002D
:101BA0001B1E272D36394B4E636C7278878D939CA4
:101BB000B1B4C6C9D2D8E1E400FF000000000001C2
:101BC00018080000000008080808000008080808B5
:101BD00000000808080800000000000000000041A4
:101BE0007F4100244C5424003E414122000000006B
:101BF000000000081C0808081C0800081C08080849
:101C00000800081C2A7F2A1C0800000000227F22EE
:101C1000000000081C0808080800081C2A7F2A1C6D
:101C2000080000081C2A7F2A1C0800080808081C55
:101C300008000000227F2200000000081C2A7F2AE2
:101C40001C0800080808081C0800081C0808081CD4
:101C5000080000081C2A7F2A1C0800081C08080825
:101C60000800081C2A7F2A1C080000081C2A7F2A5A
:101C70001C0800080808081C0800081C2A7F2A1CE9
:101C80000800E8004889DC77D6D6E200D677D97715
:101C900052FD656950E81CCDA981EE670006070D6D
:101CA0000E1213170040C8310044C8310170DB31F7
:101CB0000174DB3103483D3E040059C105506EC13B
:101CC0000042C8310046C8310172DB310176DB3198
:101CD000034A3D3E047A59C105526EC10220DC31EF
:101CE0000224DC31034C3D3E047C59C105546EC1D5
:101CF0000222DC310226DC31034E3D3E047E59C116
:101D000005566EC100000000000000000000000148
:101D100001010101010102020202020303030304A3
:101D2000040404050505060606070708080809094E
:101D30000A0A0A0B0B0C0C0D0D0E0E0F0F101111D1
:101D4000121213131415151617171819191A1B1B2D
:101D50001C1D1D1E1F202021222324242526272868
:101D600029292A2B2C2D2E2F303031323334353681
:101D70003738393A3B3C3D3E3F404142434445467B
:101D800047494A4B4C4D4E4F505153545556575856
:101D9000595B5C5D5E5F61626364666768696B6C1A
:101DA0006D6E70717273757677797A7B7D7E7F81C7
:101DB0008283858687898A8B8D8E90919294959760
:101DC00098999B9C9E9FA1A2A4A5A6A8A9ABACAEE6
:101DD000AFB1B2B4B5B7B8BABBBDBEC0C1C3C4C65B
:101DE000C7C9CACCCECFD1D2D4D5D7D8DADCDDDFC3
:101DF000E0E2E4E5E7E8EAECEDEFF0F2F4F5F7F81D
:101E0000FAFCFDFF48FCB8FC28FD98FD08FE78FEB2
:101E1000E8FE58FFC8FF3800A80018018801F80143
:101E20006802D8024803B803460A02124628011085
:101E30004B0A0110410A0110460A0210000000007E
:101E4000460A011046140110461E01100000000051
:101E5000780A0110780600007A0603017C06030266
:101E6000781E0310780F0310780F0311780F0312F8
:101E7000460A010046140100461E01005A0F0502E1
:101E8000640F0502640A028278050A0A78053202A4
:101E90000A14054225642C25642C25642C25642C09
:101EA00025642C25642C25640A0025642C00253427
:101EB000642D253032642D253032642C2530326477
:101EC0003A253032643A253032642C253033642E82
:101ED0002530346425632C253033642E253034645A
:101EE00025632C253033642E253032642C25642C58
:101EF00025642C25642C256325642E253032642C22
:101F000025642E25642C25642C25642C25642C2521
:101F1000642C25642E25642C25642E253032642CF7
:101F200025642E253032642C25642E253032642C15
:101F300025642E253032642C25642E253032642C05
:101F400025642E253032642C25642E253032642CF5
:101F500025642C25642E25642C25642C25642C25D1
:101F6000642C0025642E253032642C0025642C2539
:101F7000642C25642C002534642D253032642D25F5
:101F80003032642C253032643A253032643A2530C0
:101F900032642C005275642C456C652C5468722C8C
:101FA00041696C2C50312C50322C50332C544852F7
:101FB0002C5255442C454C452C33504F532C414901
:101FC0004C2C4745412C54524E0A004275666665BA
:101FD000722C52582C54582C41312C41322C5753CE
:101FE000484820416C742C004275666665722C521C
:101FF000582C54582C41312C41322C4750532044FA
:102000006174652C4750532054696D652C4C6F6E7C
:10201000672C4C61742C436F757273652C47505359
:10202000205370656564286B7473292C47505320C6
:10203000416C742C4261726F20416C74286D292CA4
:10204000566572746963616C2053706565642C41D8
:102050006972205370656564286B7473292C54650C
:102060006D70312C54656D70322C52504D2C46756C
:10207000656C2C43656C6C20766F6C74732C4365B7
:102080006C6C20312C43656C6C20322C43656C6C7D
:1020900020332C43656C6C20342C43656C6C2035EC
:1020A0002C43656C6C20362C43757272656E742CF3
:1020B000436F6E73756D7074696F6E2C56666173C5
:1020C0002C416363656C582C416363656C592C41EA
:1020D0006363656C5A2C00446174652C54696D65AA
:1020E0002C00804020100804020108020C000003AC
:1020F0002050504D5350504D53425553002B041017
:102100000000034B0000000003424159414838538E
:102110003358313641495244524448443400000057
:102120005F3DF1A6233A16AAAF1CB262EBE021088C
:1021300007BE1A5F15AF0A4F24AD485E34ED8C061A
:10214000C9F2521836DF9D127CB1F5D5D77098B719
:102150003351DB674ED95B0A45E4A5E6E726ABBD04
:1021600079C3208E00004834A79BBB8BE1858C3E51
:102170001E45E618246BABE728384B8161D494F4F4
:1021800003251D698BFEA79B178B20295F8BB161EF
:1021900091D3017438219F12A0B38829CA23CBC0E0
:1021A0006C0C29B3A1A0160AD0A99E007602CF0913
:1021B0001027141E28323C46505A646E78824831EB
:1021C000303748333031483530310029817F405E27
:1021D000074942505749425050534250575342507A
:1021E000500039817F00460712345678182736454B
:1021F0004182365784136572876415327684135290
:1022000071628435718643521431404949494949C4
:1022100049495354442E563958395636583656394A
:102220003132435832300049817F000007FF62009D
:102230002500FFFF00000000013C0500509E4B0000
:1022400002162B124F6280FFFF2A32C31F1EFF00AF
:10225000FF00003B001747800301451800010FFFF6
:1022600042001400FFFF0000000001210500509E05
:102270004B0002162B1200628080000A32C30F133B
:10228000C300FF00003B0017478003014518000111
:102290000FFF63FF0FFFFFFFFFFFFFFFFFFF0504BF
:1022A000FFFFFFFFFFFF2BFFFF6280FFFF0AFFFF23
:1022B0000717FFFFFFFFFFFFFFFF47FFFFFFFFFFC6
:1022C000FFFFFF2F006E00DB0090032809A518F91F
:1022D00027B2342F2E2F07D391FF044500001200A0
:1022E0005C85E83D3B73737A010730081D1CC740CD
:1022F000B0876BF8B610EA0A00114F5054494D49A7
:102300004E490019807F000007292E0607D391FF50
:10231000040500D106005C4EC45BF80323F84707B0
:102320003018166C434091876BF85610A90A0011BB
:102330004100597F3F81350B44535353204653533B
:102340000018807F000007160717301E871F6B20BC
:10235000F82A7F2B3F0B090C000D5D0E930FB11077
:102360002D11201273132214F80ACD155021B62214
:10237000101818191D1A1C1BC71C001DB223EA24B3
:102380000A2500261129592C882D312E0B07050806
:1023900005094306FF0413051808807F00000700A5
:1023A00000891112239B322446AD573665BF74480D
:1023B0008CC19D5AAFD3BE6CCAE5DB7EE9F7F881CC
:1023C00010080193331A22A5562C47B7753E64C9ED
:1023D0009C408DDBBF52AEEDDA64CBFFF976E802AC
:1023E000218B30100299132667AF763444BD554ACD
:1023F000ADC3BC588ED19F6EEBE7FA7CC8F5D9838C
:10240000310A2091121803A7772E66B5543C45CBAC
:10241000BD42ACD99E508FEFFB66EAFDD874C9046B
:10242000428D5316619F702004A9153227BB364C8C
:10243000CEC5DF5EEDD7FC6888E1997AABF3BA854B
:10244000520C4397711E60A1142805B3373A26CD6C
:10245000DE44CFDFFD56ECE9986089FBBB72AA062B
:10246000638F7214409D512225AB343006B9174E4C
:10247000EFC7FE5CCCD5DD6AA9E3B8788AF19B870B
:10248000730E6295501C41A3352A24B1163807CF2C
:10249000FF46EEDDDC54CDEBB962A8F99A708B08EB
:1024A0008481951AA793B62CC2A5D33EE1B7F0401C
:1024B00008C919522BDB3A644EED5F766DFF7C89BB
:1024C0009400859BB712A6ADD224C3BFF136E0C1FC
:1024D000184809D33B5A2AE55E6C4FF77D7E6C0A9B
:1024E000A583B4188691972EE3A7F23CC0B5D142DC
:1024F00029CB38500AD91B666FEF7E744CFD5D8B7B
:10250000B502A499961087AFF326E2BDD034C1C3BB
:10251000394A28D11A580BE77F6E6EF55C7C4D0C5A
:10252000C685D71EE597F42880A1913AA3B3B2449B
:102530004ACD5B5669DF78600CE91D722FFB3E8D3A
:10254000D604C79FF516E4A9902081BBB332A2C57B
:102550005A4C4BD7795E68E11C680DF33F7A2E0E1A
:10256000E787F61CC495D52AA1A3B03882B193465B
:102570006BCF7A5448DD59622DEB3C700EF91F8FFA
:10258000F706E69DD414C5ABB122A0B9923083C73B
:102590007B4E6AD5585C49E33D6A2CF11E780F02E8
:1025A0000606000606170C0E181818061E23070448
:1025B000040801013E01010B0A080C00000D5C5CDF
:1025C0000E76800F2700107B7B1161F81213031326
:1025D0002323147A7A1551530158382D396D53003D
:1025E000584C425458464343001B807F0000071755
:1025F0000018180619070508050B080D5C0E760F64
:102600002710AA113912111323147A154209807F59
:10261000000007170C181806FF070408050B080D23
:102620005C0E580F9D10AA111012931323147A15E3
:102630004109807F000007013443682D396D530044
:1026400019161A6C1B431C401D912156221023A9F8
:10265000240A2500261129592C882D312E0B030719
:10266000090000006400E80331068D0FA61810274A
:102670002D3100D57FAAFE2B815429FC5683D70229
:10268000A87D52872DF8AC79D3067BAE04D1855056
:10269000FA2FA471DB0E5A8F25F08D58F22773A6FE
:1026A0000CD9F623895C08DD77A2DF0AA07521F436
:1026B0005E8B9D48E23763B61CC9B461CB1E4A9F4E
:1026C00035E0CF1AB06531E44E9BE633994C18CD16
:1026D00067B239EC4693C712B86D10C56FBAEE3BBE
:1026E00091446BBE14C19540EA3F42973DE8BC69F6
:1026F000C316EF3A904511C46EBBC613B96C38EDE2
:102700004792BD68C21743963CE99441EB3E6ABFCD
:1027100015C04B9E34E1B560CA1F62B71DC89C4905
:10272000E33619CC66B3E732984D30E54F9ACE1BAD
:10273000B16472A70DD88C59F3265B8E24F1A57075
:10274000DA0F20F55F8ADE0BA17409DC76A3F7228D
:10275000885DD603A97C28FD5782FF2A805501D4C5
:102760007EAB8451FB2E7AAF05D0AD78D20753866D
:102770002CF9510000000007393135413931354617
:10278000383638453433334134333345322E3447C9
:10279000005374616E656B00436162656C6C20561A
:1027A0003300426179616E670048554253414E00E3
:1027B0004146484453324100466C79736B79004876
:1027C0006974656300436F726F6E6100536B79616A
:1027D00072746563004672536B792D5800467253CC
:1027E0006B792D5638004672536B792D4400435255
:1027F00053460050504D53494D0050504D31360016
:1028000050504D0061EC23FC0A004F70656E41563C
:102810005263206973206C6F6164696E67202E2E8D
:102820002E000D0A0000720011241FBECFEFD1E26E
:10283000DEBFCDBF00E00CBF1AE0A0E0B2E0EEEAE0
:10284000FAED02E00BBF02C007900D92A236B1076D
:10285000D9F72DE1A2E6BAE001C01D92AA38B2076D
:10286000E1F714E1C4E1D4E100E006C021970109D9
:10287000802FFE010F942963C331D10780E0080740
:10288000A9F70F94294D0D94486A0C94000080918B
:10289000AC1685FF0DC02E98809180008F7C8093B0
:1028A000800080916F008B7F80936F00B29A0895B3
:1028B0002E9AF2CF90910501977F90930501909108
:1028C000D00095FFFCCF8093D6008091D00087FF89
:1028D000FCCF8091D6008091D00085FFFCCF609323
:1028E000D6008091D00087FFFCCF8091D6008091E8
:1028F0000501886080930501089590910501977FF7
:102900009093050180689091D00095FFFCCF809353
:10291000D6008091D00087FFFCCF8091D6008091B7
:10292000D00085FFFCCF1092D6008091D00087FFA9
:10293000FCCF8091D600909105019860909305019D
:102940000895CF93DF93C82FEFEFE80FD0E0E73083
:1029500020F4F0E0ED5BFD4FD08182E696E2A0E04E
:10296000BB272C2F30E0220F331FA901330F660B3A
:10297000770B840F951FA61FB71FABBFFC014791B4
:10298000569150933E1440933D14C093651D6D2F96
:102990008EE3DF91CF918ECF80919C1681FF08C08E
:1029A00081E08093661D9091651D98130AC008957B
:1029B0008091AC168F718093661D9091651D98175C
:1029C000B1F3BFCF8F929F92AF92BF92CF92DF921F
:1029D000EF92FF9280E496E2A0E0BB276C017D01BC
:1029E0004C015D0192E2890E911CA11CB11CEBBE51
:1029F000F6018791B701A6014F5F5F4F6F4F7F4F81
:102A00006BBFFA01679156DFA2E0CA0ED11CE11C30
:102A1000F11C8C149D04AE04BF0449F7FF90EF90A5
:102A2000DF90CF90BF90AF909F908F900895EF92DE
:102A3000FF920F931F93CF93DF9380916A1D909124
:102A40006D1D890F9927991F6AE070E00F94D86275
:102A5000EC0180916B1D90916C1D890F9927991F36
:102A60006BE070E00F94D862875B082F10E0E6E01F
:102A7000FDE120E08CEEE82EF12C0DC08A359105A9
:102A800089F08C3D910571F02F3288F440832F5FDF
:102A9000C00FD11F3196CE01B7010F94D862AC019F
:102AA000009761F7AC014F5F5F4F2F3278F31082D0
:102AB000213369F7DF91CF911F910F91FF90EF9034
:102AC00008958F929F92AF92BF92CF92DF92EF9232
:102AD000FF92CF93C82F8FEE95E2A0E0BB276C0149
:102AE0007D014C015D019EE1890E911CA11CB11C70
:102AF000EBBEF6018791B701A6014F5F5F4F6F4FA5
:102B00007F4F6BBFFA016791D5DEA2E0CA0ED11CE0
:102B1000E11CF11C8C149D04AE04BF0449F752DF84
:102B20006091AA1620915C1D862F062E000C990B31
:102B30002817190621F060935C1D8CE0BBDE81E054
:102B400000DF60916A1DC11163E089E0B3DE80910E
:102B50000501877F809305018091D00085FFFCCF20
:102B60008BE38093D6008091D00087FFFCCF8091CB
:102B7000D600809105018860809305018091050150
:102B8000877F809305018091D00085FFFCCF8AE389
:102B90008093D6008091D00087FFFCCF8091D60033
:102BA0008091050188608093050180910501877FF0
:102BB000809305018091D00085FFFCCF86E3809350
:102BC000D6008091D00087FFFCCF8091D600809105
:102BD0000501886080930501CF91FF90EF90DF9011
:102BE000CF90BF90AF909F908F9008958F929F92BB
:102BF000AF92BF92CF92DF92EF92FF929C01462F4D
:102C00008FE993E2A0E0BB276C017D01662369F1A7
:102C1000415050E04F5F5F4F420F531F90E080E004
:102C2000782F6627F9012F5F3F4F892F9927E08181
:102C30008E27880F991F46015701880E991EA11CE7
:102C4000B11CD501C401ABBFFC01879196918627C9
:102C500097272417350721F7FF90EF90DF90CF904B
:102C6000BF90AF909F908F90089590E080E0F4CF58
:102C7000CF93DF9390910501977F909305019091F9
:102C8000D00095FFFCCF96E39093D6009091D000B2
:102C900097FFFCCF9091D60090910501986090939A
:102CA0000501C82FD0E0FE01E655F34E608185E2B4
:102CB00001DECA5FD24E68818AE0DF91CF91FACD02
:102CC00080910501877F809305018091D00085FF69
:102CD000FCCF86E38093D6008091D00087FFFCCFA5
:102CE0008091D600809105018860809305018091D4
:102CF000691D882309F44FC08091681D682F660FF5
:102D0000660F680F660F8AE0D5DD80910501877F29
:102D1000809305018091D00085FFFCCF8BE38093E9
:102D2000D6008091D00087FFFCCF8091D6008091A3
:102D3000050188608093050180910501877F80935C
:102D400005018091D00085FFFCCF83E38093D600FE
:102D50008091D00087FFFCCF8091D6008091050143
:102D600088608093050180910501877F809305012C
:102D70008091D00085FFFCCF85E38093D6008091C1
:102D8000D00087FFFCCF8091D6008091050188603C
:102D9000809305010895E091681DF0E0EA5FF24E2E
:102DA00060818AE087DDB1CF48E050E020E813C0C1
:102DB00090910201926090930201909102019460BF
:102DC00090930201909102019B7F909302012695BE
:102DD0004150510949F0982F922351F790910201E7
:102DE0009D7F90930201E9CF0895909105019F7B0B
:102DF000909305019091D00095FFFCCF8093D60071
:102E00008091D00087FFFCCF8091D6000000809198
:102E1000D00085FFFCCF6093D6008091D00087FF63
:102E2000FCCF8091D60080910501806480930501DC
:102E30000895CF93C82F809105018F7B8093050162
:102E40009091D00095FFFCCF80EF8093D6009091B9
:102E5000D00097FFFCCF8091D6008091050180645F
:102E6000809305011092D2001092D100809105014B
:102E70008F7B8093050185E497DF809101018D7F31
:102E800080930101EEEDFCE16C2F70E06252734E15
:102E900028E030E040E090E88091000181FD492B7E
:102EA00080910201846080930201809102018B7FF6
:102EB0008093020196952150310971F74193E617ED
:102EC000F70731F7809105018064809305018091B7
:102ED000010182608093010180EC8093D20088E13F
:102EE0008093D100CF9108951092D2001092D1001A
:102EF000909105019F7B90930501806455DF80913F
:102F000001018D7F8093010128E030E080E040E8FE
:102F10009091000191FD842B909102019460909317
:102F20000201909102019B7F9093020146952150EE
:102F3000310971F79091050190649093050190918A
:102F4000010192609093010190EC9093D20098E17E
:102F50009093D10008950F931F93462F572FBC01D4
:102F6000809105018F7B809305018091D00085FFC2
:102F7000FCCF86E08093D6008091D00087FFFCCF05
:102F80008091D600072F1127222733278091D00068
:102F900085FFFCCF0093D6008091D00087FFFCCF47
:102FA0008091D6008B01222733278091D00085FFA6
:102FB000FCCF0093D6008091D00087FFFCCF80919A
:102FC000D600052F162F272F33278091D00085FF9D
:102FD000FCCF0093D6008091D00087FFFCCF80917A
:102FE000D6008091D00085FFFCCF4093D600809121
:102FF000D00087FFFCCF8091D600809105018064CE
:10300000809305011F910F910895CF93DF93C82FEF
:103010008FEF8C0FD0E0873068F490E0FC01E45C27
:10302000FD4FD081DD0FDD0FDD0F8B5C9D4FFC016F
:103030006081D62B83EC92E2A0E0BB272C2F30E0FE
:10304000220F331FA901330F660B770B840F951FD7
:10305000A61FB71FABBFFC014791569150933E147A
:1030600040933D14C093651D6D2F88E2DF91CF9191
:10307000BCCE80919C1681FF08C081E08093661DC4
:103080009091651D98130AC008958091AC168F71B8
:103090008093661D9091651D9817B1F3B6CFCF93BD
:1030A000DF938091AA1690915C1D282F082E000CAA
:1030B000330B9217130619F4DF91CF910895809383
:1030C0005C1D2CEE829FC001112464E670E00F9419
:1030D000D862EB012196CC0FDD1F6BE481E185DE28
:1030E0006D2F82E182DE6C2F83E1DF91CF917DCE67
:1030F000909105019F7D9093050180629091D00091
:1031000095FFFCCF8093D6008091D00087FFFCCF45
:103110008091D6009091D00095FFFCCF6093D600AF
:103120009091D00097FFFCCF9091D600909105012F
:103130009062909305010895382F209105012F7D0D
:10314000209305012091D00025FFFCCF80EA8093D9
:10315000D6002091D00027FFFCCF8091D6006623B7
:10316000C1F0E32FF92F6150AF014F5F5F4F460F62
:10317000511D21919091D00095FFFCCF2093D60056
:103180009091D00097FFFCCF9091D600E417F507FF
:1031900081F7909105019062909305010895382F71
:1031A000209105012F7D209305012091D00025FF5E
:1031B000FCCF81E68093D6002091D00027FFFCCF82
:1031C0008091D6006623C9F0E32FF92F9F012F5F6E
:1031D0003F4F6150260F311D4FEF9091D00095FF6A
:1031E000FCCF4093D6009091D00097FFFCCF9091F8
:1031F000D6009193E217F30781F790910501906251
:10320000909305010895CF92DF92EF92FF92809103
:103210009C1681FF0CC081E08093661D9091651D16
:1032200098130EC0FF90EF90DF90CF90089580919B
:10323000AC168F718093661D9091651D981791F360
:103240004AEA51E260E07727282F30E0220F331F4F
:103250006901330FEE08FF084C0D5D1D6E1D7F1DCB
:103260006BBFFA014791569150933E1440933D1421
:1032700060915C1D697F2670622B60935C1D80935A
:10328000651D86E0FF90EF90DF90CF9031CFE5E0B5
:10329000F1E080818860808380818061808380818B
:1032A00080628083808180648083E4EDF0E011821D
:1032B000108280EC8093D20088E18093D10011824B
:1032C000108208959C018091C21B8871803121F188
:1032D0002F5F3F4F80914F1C8F33F9F08F5F90919C
:1032E000501C981741F0E0914F1CF0E0E15FF34E65
:1032F000308380934F1C80914F1C8F3381F08F5F00
:103300009091501C981741F0E0914F1CF0E0E15F64
:10331000F34E208380934F1C089580E0E0CF80E03F
:10332000EFCF5F926F927F928F929F92AF92BF92F8
:10333000CF92DF92EF92FF920F931F93CF93DF9381
:1033400000D0CDB7DEB76B01742E1B821A821982B2
:103350004CE95CE160E07727882E912C880C991C61
:10336000092C000CAA08BB08480D591D6A1D7B1DBD
:103370006BBFFA014791F42E8CE99CE1A0E0BB27DA
:103380002FEF821A920AA20AB20A880D991DAA1D6D
:10339000BB1DABBFFC018791E12C841708F485C0ED
:1033A0003CE0632E5524539421C06D5F7F4FFA019A
:1033B0001995882309F49AC08B81F601F0FE94C018
:1033C0008183E394E71408F070C0EE24E394F3944F
:1033D0008CE99CE1A0E0BB27880D991DAA1DBB1DAF
:1033E000ABBFFC0187918F1508F45FC00F2D10E073
:1033F0008091FA1B9091FB1BA091FC1BB091FD1BCF
:103400000F2C04C0B695A795979587950A94D2F787
:1034100080FFDDCF84EA9CE1A0E0BB27000F111FF5
:10342000000F111F012E000C220B330BB901A80154
:103430004F5F5F4F6F4F7F4F840F951FA61FB71FC2
:10344000ABBFFC01879144EA5CE160E07727400F65
:10345000511F621F731F6BBFFA01979144EA5CE131
:1034600060E077270E5F1F4F2F4F3F4F400F511FD8
:10347000621F731F6BBFFA0147915691923060F142
:10348000943051F15092B800BE01933008F48DCFC2
:103490006F5F7F4FFA011995882309F189819A811D
:1034A000F60191838083E394E39481E08093B800F4
:1034B0008E2D0F900F900F90DF91CF911F910F9154
:1034C000FF90EF90DF90CF90BF90AF909F908F9044
:1034D0007F906F905F9008956092B800D5CF8981FA
:1034E0009A8180959095DCCF80836BCF8B8180957E
:1034F0008B8363CFCF92DF92EF92FF920F931F9354
:10350000CF93DF938C01EB01009771F5209749F180
:103510009B0177FDA6C020FD98C060E070E0CB0164
:1035200096958795779567953595279560FF32C075
:10353000032E000C440B550B0F94EB622F3F31050B
:103540004105510509F008F483C020E031E0D7FFC0
:103550005AC017FD8BC0C9019A5F2115324009F08E
:1035600058C090E080E055C0FC0197FD65C06F0138
:10357000AE01D7FD57C09A01E417F507B4F4BF01B7
:10358000FF0F880B990B982F872F762F662720FF28
:1035900003C0CECF20FDCCCF9695879577956795C4
:1035A0003595279560FFF6CFC3CF052E000C660B2F
:1035B000770B962F852F742F6627E0FF03C00AC074
:1035C000C0FC08C09695879577956795D594C79464
:1035D00060FFF6CF0D2C000CEE08FF08A701960146
:1035E0000F94EB622F3F31054105510511F008F0B2
:1035F000ACCFF901EC5FF24EE49120E032E02E1BFB
:103600003109D7FDA6CF17FD29C080E092E0821BCB
:10361000930BDF91CF911F910F91FF90EF90DF906F
:10362000CF900895442755274C1B5D0B9A01E41752
:10363000F5070CF0BACFA3CFEE27FF27E81BF90B55
:103640006F01AE01D7FF97CFEDCF20E030E0A901A9
:103650002C5F324EF901249130E0D3CFC9019E5F37
:10366000D8CF22273327261B370B55CF80E096E093
:10367000821B930BCECFA82FB0E0FD01EA57FB4E83
:103680008081860F80839091661276E09923C9F03D
:1036900080E1989F90011124F901EA0FFB1FEE0FC2
:1036A000FF1FE45CF54E40815181493E83E058079D
:1036B0008CF087E1840F8917C8F198E1940F71505D
:1036C00029F7FD01EE0FFF1FE45CF54E40815181AB
:1036D00030E020E0F901EA0FFB1FEE0FFF1FE45C72
:1036E000F54E88E06802B0011124460F571F48319B
:1036F0008CEF580714F448E15CEF493E83E058072B
:1037000014F048EE53E05183408380919B16806112
:1037100080939B162FB7F89480914515909146158C
:103720002FBF9093C40D8093C30D0895982FC7CFDA
:10373000CF93DF93FC01EB01BA01481759071CF046
:103740008C179D074CF5613871050CF4E05841E089
:1037500050E0E7FD36C00E2E000CFF0B96E0222352
:1037600099F080E2289FD0011124AE0FBF1FA05C0A
:10377000B54E3C913A375CF086E8830F8217B0F083
:1037800027E8230F915059F7E05CF54E3081340360
:10379000F001359FF00D1124CF01EC17FD0764F007
:1037A000681779072CF0DF91CF910895282FEACF81
:1037B000CB01DF91CF910895CE01681779079CF76F
:1037C000F7CFE0954FEF5FEFC6CFDB0168387F4F53
:1037D00014F4A8E8BFEFA937B10514F0A8E7B0E0EA
:1037E000282F30E096E0442399F080E2489FF001D2
:1037F0001124E20FF31FE05CF54E80818A3794F1CB
:1038000056E8580F541760F147E8480F915059F7A0
:1038100090E080E0880F991F82959295907F98277D
:10382000807F9827820F931FFC01E05CF54E80811A
:10383000082E000C990B8A179B0789F0A0838091B2
:103840009B16806180939B162FB7F8948091451545
:10385000909146152FBF9093C40D8093C30D08958A
:10386000452FD4CF842F440F990BD4CF462F50E04F
:103870009A0182508A3298F4E82FF0E08827E65BBC
:10388000F5498E4F0D9429634D5751099A01220F26
:10389000331F220F331F240F351F220F331FC9017F
:1038A000089585E0689F90011124C90108959A0147
:1038B000220F331F220F331F220F331F245F31408B
:1038C000EECF9A012E513109EACF9A01220F331F10
:1038D000E6CF82E3689F90011124E1CF9A01220F85
:1038E000331F220F331F220F331FD9CF84E1689F6C
:1038F00090011124D4CF84E6689F90011124CFCF8A
:10390000882399F087FD0AC08B316CF08532B4F0C2
:1039100089326CF08C324CF4895A0895863E84F4D6
:1039200081958B319CF7805C089580E20895E82FA3
:10393000880FFF0BED5BF44E849108958B5E089524
:10394000E0E6E81B8E2F08958823C9F0E82FF0E009
:10395000E551F74E408195E0899F90011124240F95
:10396000311D47FD3A952C50374E41E0480F8F3FAF
:1039700071F1499FC00111244150550B06C050E020
:1039800040E085E090E024EF38E14451574EFA01E1
:103990004081840F911D47FD9A958A5A9D4F82560A
:1039A000994E821B930B80FF08C08F7790E097950C
:1039B00099279795B901892B089586958F5F8F7701
:1039C00091E0979599279795B901892B089586E5F8
:1039D00092E0E5CF8F929F92AF92BF92CF92DF920B
:1039E000EF92FF920F931F93CF93DF9300D000D0FD
:1039F000CDB7DEB789839A83862FA6DFFB012981A5
:103A00003A813C5F121613064CF4A82FAF772115AC
:103A100048E034070CF1EA0FF11D31972081022EA6
:103A2000000C330B922F882769E170E00F94D86265
:103A3000CB0126960FB6F894DEBF0FBECDBFDF9147
:103A4000CF911F910F91FF90EF90DF90CF90BF909B
:103A5000AF909F908F9008958A2E912CB401615061
:103A6000710987FF55C0161617060CF09FC0740128
:103A700052E0E51AF108D12C10E000E050E040E0FF
:103A800099E2C92E31C04E0F5F1F480D591DDA0152
:103A90004C91BC2D4B02C0011124959587959595AD
:103AA0008795042E000C550B5A01AA24BB0CAA1CA6
:103AB000BB244A195B09042E452F000C441F550BEB
:103AC000000C441F551F841B950B8A199B099C5F92
:103AD0008217930708F05BC0D3944D2D50E0461732
:103AE00057070CF056C08C014E155F0561F64D2D41
:103AF00050E0DF01A40FB51F201B310B4F5F5F4F5C
:103B0000C12C88E0D82EC01AD10AF12CE12C1AC0A1
:103B100080E098E00F94D8626B01C9010F94C462F1
:103B2000AB015527DF01A40FB51F4C9DC0014D9D72
:103B3000900D5C9D900D1124281B390B4F5F5F4F3A
:103B4000F12CE12C8C91A82F0A2E000CBB0BBE830C
:103B5000AD83E40FF51FA0810A2E000CBB0B4D8135
:103B60005E81A41BB50B0F944D63B82FA72F962F22
:103B70008827BC01CD01A70196010F940D63AD818B
:103B8000BE81BA2FAA27CD01820F931F4DCF4D2D95
:103B900050E0DF01A40FB51F201B310B4F5F5F4FBB
:103BA000801B910B6C01F12CE12CCCCFDF01C12CDF
:103BB000D12C760141E050E0C5CFCF92DF92EF9259
:103BC000FF92CF93DF9300D000D0CDB7DEB7F82FB0
:103BD000E92F262F062E000C330B862F880F990B0A
:103BE000A9014427550F441F5527241B350BB90144
:103BF00075956795680F791F640F751F3595279523
:103C0000359527953595279535952795260F371F97
:103C1000420F531F5E834D832F2F3E2FAF2FBE2F9A
:103C20000F943E63DA019B01AC010F945363272F7D
:103C3000382F492F5527AF2FBE2F0F9453636B0199
:103C40007C013CE0F694E794D794C7943A95D1F779
:103C500020E031E08D819E81281B390B0F943E635B
:103C6000DC01CB0180589F4FAF4FBF4F8C0D9D1D86
:103C7000AE1DBF1D892F9A2FAB2FBB2726960FB6DF
:103C8000F894DEBF0FBECDBFDF91CF91FF90EF90D4
:103C9000DF90CF9008954F925F926F927F928F92B4
:103CA0009F92AF92BF92CF92DF92EF92FF920F93CB
:103CB0001F93CF93DF9300D000D0CDB7DEB74A017A
:103CC0005B01482E512C7201EE0CFF1CEE0CFF1C08
:103CD000C2018E0D9F1DFC01E15BF74E60812181C9
:103CE000722F7F73660F771F660F771FFB01F595A5
:103CF000E795F595E7953B01660C672C661C770800
:103D00006E0E7F1EDC01A35BB74E4C914C5929E22D
:103D1000D22E2D2D4202800111241595079515955F
:103D20000795042E000C550B9A012227330F221FF2
:103D30003327421B530B042E452F000C441F550BF9
:103D4000000C441F551F041B150B021B130B845B37
:103D5000974EDC018C918456BD2D8B02A00111245D
:103D60005595479555954795082E000C990BDC0104
:103D7000AA27BB0FAA1FBB278A1B9B0B082E892FC4
:103D8000000C881F990B000C881F991F481B590BAA
:103D90006A01CA1ADB0A672F770F770B6595661AD7
:103DA000770AEF2FFF0FFF0BE595E60DF71DEC15DA
:103DB000FD050CF4F6013F010E171F070CF4380146
:103DC000C2018E0D9F1D845B974EFC01F48081140F
:103DD0009104A104B10409F440C0F6FE88C0A41BFC
:103DE000B50B181419041A041B040CF4D801A5010E
:103DF000940121153105FCEF4F07FFEF5F0724F415
:103E000020E030E04CEF5FEF2130310564E0460701
:103E1000510524F020E030E044E050E00F945D6371
:103E200069837A838B839C83DC01CB01BB0F880B76
:103E3000982FDC01282F217049815A816B817C8168
:103E4000840F951FA61FB71FCD0195958795959552
:103E50008795820F911D680E791EC3016C147D0435
:103E60000CF4C601081719070CF4C801F7FE03C0CB
:103E7000919581959109B201635B794EDB012C919B
:103E80002038F1F0B9E22B02C001112495958795F5
:103E900095958795022E000C330BA9014427550FE9
:103EA000441F5527241B350B022E232F000C221FE5
:103EB000330B000C221F331F821B930B841B950BAB
:103EC00026960FB6F894DEBF0FBECDBFDF91CF911F
:103ED0001F910F91FF90EF90DF90CF90BF90AF9028
:103EE0009F908F907F906F905F904F9008951814DF
:103EF00019041A041B0424F4D801A619B70977CFB2
:103F0000D301AC19BD0973CFE7E28111EFE02E2F89
:103F10000E2E000C330B9AE0E99FF0011124E256BB
:103F2000F94E40E012C0D901AA0FBB1FAA0FBB1F58
:103F3000A20FB31FA456B74E9C91937091114F5F7F
:103F4000215031093A9727FD04C08111ECCF978D9C
:103F5000F5CF50E0882329F0403151056CF480E022
:103F6000089548325105DCF38CE09DE090934D12AA
:103F700080934C1281E0089581E29DE090934D1270
:103F800080934C1281E008956091FB1123CD0F9333
:103F90001F93CF93DF93C82F8091FB11D5DC282F7F
:103FA000D82FDF7740E030E0CD17F0F5FB010C2F84
:103FB00010E030E2C39FC00111246D2F669570E0C0
:103FC0000F94D8623DE3360FE00FF11F4081042EBD
:103FD000000C550B4C595F4F6FE3649FC001659F08
:103FE000900D112468E37FEF0F94D8624FE3460FE2
:103FF00027FF1AC0CC23C1F08D2F90E0BC01615087
:1040000071090617170784F4E80FF91F31978081AB
:1040100020E48202C00111248C59964E68EC70E0B5
:104020000F94D8623DE3360F832F942FDF91CF9109
:104030001F910F9108953F924F925F926F927F92DE
:104040008F929F92AF92BF92CF92DF92EF92FF92A8
:104050000F931F93CF93DF93062F06950695069532
:1040600070E8079F80011124E42FE052FF0BDF016D
:10407000EE0FFF1FEE0FFF1FEA0FFB1FEE55F84F6D
:104080003FEF380F3093F90DE801C80FD11DABEFAA
:10409000B1E1AC1BBD0B722F717020FFF8C0909185
:1040A0004515592F507496FF03C0572F21FFC8C0E4
:1040B000922F9474722F7470972E992339F094ED87
:1040C000940F9F3008F0F2C095ED940F911084C0CA
:1040D000462F4770722F7074972E26FF06C065E03A
:1040E000969FF0011124E351FC4ECAE7D1E1C01BB9
:1040F000D10BE42EF12C66246A94712C042E02C09C
:10410000759467940A94E2F7762C709490E0722F7D
:104110007870872E08E010E00E191F092071322EEA
:10412000992309F450C0BF01963009F4A4C06F5F11
:104130007F4F992009F4A1C0E491EF3F09F497C0A3
:104140005111E095882019F0923009F4ACC0FDE0DF
:10415000AB3FBF0778F1CA17DB0760F54E2E512C35
:10416000CC90B72CBC2062010E2C02C0D594C79411
:104170000A94E2F7CB28CC924423E1F05D0120E8D9
:10418000A21AB108EBEFAE16EDE0BE0660F0F50145
:10419000D080D620F201002E01C0EE0F0A94EAF77B
:1041A000DE2AF501D082552329F0413019F46894B4
:1041B000C7F8CC9211973F5FFB01963009F43EC0DF
:1041C0009F5F9111B0CF882309F45DC0552309F496
:1041D0005AC0BF01EFEFB6CF24E1929FF001112446
:1041E000EE5AFD4F90E09923F9F09B3009F447C057
:1041F0004081BF016E5F7F4F2181E42FE223EF3FBB
:1042000089F1FB01511130C0ED01C058D1096DE0B9
:10421000CB3FD60720F04C93288311973F5F9B300C
:1042200069F09F5F9111E1CF882321F02FEF4FEFCD
:104230005111EACF3F5F11979F5FF4CF3093F90D93
:10424000DF91CF911F910F91FF90EF90DF90CF9072
:10425000BF90AF909F908F907F906F905F904F90A6
:104260003F900895FB01DBCF40952095CDCFFB011A
:10427000332009F4A2CFE0E063CFE0815ECFBF013D
:1042800020E040E0BECF3F5F11979F5F9ACF21FBB8
:10429000552750F9922F9474722F7470972E99238A
:1042A00009F414CF0CCFFB019F5F8BCF9FEB940FD2
:1042B0009A3138F09FE9940F9A3148F499EC940FB1
:1042C00005CF9FEC940F992009F402CF85CF4F358D
:1042D00039F0403239F0772339F0E2E5F2E082CF6D
:1042E00094E0F4CE90E0F2CE2F7B462F4770FDCEC7
:1042F000AF92BF92CF92DF92EF92FF920F931F93F4
:10430000CF93DF93A82EC62EEA01B02EEE24EA94B6
:10431000E20E222309F44FC0102F107AF12C8FEFF8
:10432000E81AF80AE40EF51EDA2C00E014C0FE01CB
:104330004491011119C04423E9F0403260F54F3136
:1043400089F14E3189F1942F990F490FD40E21969E
:10435000CE15DF0579F01032E1F0103841F7888191
:10436000CFDA482F002339F3D42E00E02196CE1562
:10437000DF0589F7D092FA0DD092F90DDF91CF9138
:104380001F910F91FF90EF90DF90CF90BF90AF9073
:1043900008954881CECF2B2D6C2D8D2D4CDED090E5
:1043A000F90DD5CF01E0D3CFF8E0CF0E8FE38C1518
:1043B00010F0DA2CCCCFDA2CDDCFEF92FF920F93F6
:1043C0001F93CF93DF93D62F142F7901C5E1C60F2A
:1043D000982F990F990F980FD91BDB5E0FC0495C7E
:1043E00028E0202B612F8C2F26DEF294E2948FE0C0
:1043F000E822EF24F822EF24CD1741F0C5504E2DCE
:104400004F704A3064F7405D20E0EBCFDF91CF91F1
:104410001F910F91FF90EF9008950F93922F202FEF
:1044200030E1439FF0011124E90FF11DEE0FFF1F52
:10443000E45CF54E0190F081E02DE93E33E0F307B6
:1044400054F097E19E0F941710F098E19E0F40E30F
:10445000490F0F91F0CD41E6490F0F91ECCD9F929E
:10446000AF92BF92CF92DF92EF92FF920F931F9382
:10447000CF93DF93182FD62E942EA22EB02E00E0CD
:104480002FEF46EB5CE080E033DFC0904F12D0E0CE
:10449000C0E0EA2CF12C13C0C7010C2E02C0959588
:1044A00087950A94E2F722E080FD20E0405D6D2DC3
:1044B000812FC1DD1A5F2196C630D10539F04C2F0E
:1044C000CC12EACF23E0B110F1CFE6CFBB2039F018
:1044D00080915312882319F080E2981669F08A2D92
:1044E000DF91CF911F910F91FF90EF90DF90CF90D0
:1044F000BF90AF909F9008951092531281E090E08A
:1045000001C0880FCA94EAF7A82680919B168061A3
:1045100080939B162FB7F89480914515909146157E
:104520002FBF9093C40D8093C30DD9CF4F925F924C
:104530006F927F92AF92BF92CF92DF92EF92FF92F3
:104540000F931F93CF93DF93782FC901DA01ABBF8D
:10455000FC01B79029013A0122E0420E511C611C76
:10456000711C0196A11DB11DABBFFC018791282FC5
:1045700030E0295F3F4F359527953595279535953F
:104580002795A22E91E0E1FC04C09E2D9170E0FCE5
:1045900061C00B9D80011124029F6001039FD00C1C
:1045A000129FD00C11240D2C000CEE08FF08C40C37
:1045B000D51CE61CF71CAA2009F43DC0669566953B
:1045C000669580E8689FA0011124470F511D2AEFCE
:1045D00031E1241B350B44244A944B0C2419310936
:1045E000CAEFD1E1C41BD50B10E0512C712C612C0A
:1045F0008FEF481A580A680A780ABB20A9F0DE0132
:104600001196B701A6016BBFFA0187914F5F5F4F0B
:104610006F4F7F4F911180958E932A173B0799F723
:10462000C40CD51CE61CF71C1F5F20583109C0586C
:10463000D109A112E2CFDF91CF911F910F91FF908D
:10464000EF90DF90CF90BF90AF907F906F905F9092
:104650004F9008959091451590749BCFFC019081E7
:10466000990F21812F5F8281662309F440C09160F8
:1046700090832183882309F47EC0482F50E08F3532
:1046800009F458C060F0813609F45EC0823609F042
:1046900088C0203488F088E08283118208958130B8
:1046A000B9F0893050F4825091E001C0990F8A9599
:1046B000EAF7892F857429F40895803191F540E156
:1046C00050E08181803370F1559547954283118286
:1046D000E55CFD402BEA3AEAE29FC001E39F900DC2
:1046E000F29F900D112480648093F80D08959083BB
:1046F0002183882309F3911155C0833679F0AF01E6
:10470000455C5D402BEA3AEA429FC001439F900D11
:10471000529F900D112480628093F80D11821282B5
:10472000089508954150510990E048235923452B9D
:1047300079F208958181803221F1883209F0BCCF6D
:1047400080E1828311820895AF01455C5D402BEAD0
:104750003AEA429FC001439F900D529F900D112451
:1047600080668093F80D1092F60D1092F50D8FE58E
:104770008283118208959F3099F481E682831182A9
:104780000895E55CFD402BEA3AEAE29FC001E39F11
:10479000900DF29F900D112480688093F80D08957C
:1047A00008950895482F50E08F3521F250F481305C
:1047B00009F48ECF893008F476CF803109F47FCFA9
:1047C0000895813609F2823609F463CF0895CF93B4
:1047D000DF93CEE9D6E142EA5CE030E020E0F90187
:1047E000EE0FFF1FE20FF31FEE0FFF1FE055F94E14
:1047F00080818695869586958370D1F0FA018581B2
:1048000096816B897C896817790791F09C8B8B8BDB
:1048100080919B16806180939B166FB7F89480916E
:104820004515909146156FBF9093C40D8093C30DAD
:104830002696485F5F4F2130310519F4DF91CF9103
:10484000089521E030E0CBCF8091411B8F70109212
:10485000C500833011F18FEC8093C4008091C000BB
:1048600082608093C0001092C10086E08093C200F5
:104870008091C10080618093C1008091C00087FF5A
:1048800006C08091C6008091C00087FDFACF80915C
:10489000C10080688093C100089581E28093C400C4
:1048A0008091C00082608093C000DDCF8091160CA3
:1048B0009091170C20912E0C30912F0C0097E9F05D
:1048C000820F931F90932F0C80932E0C2091730CCA
:1048D0003091740C2817390724F49093740C80934A
:1048E000730C2091710C3091720C8217930724F491
:1048F0009093720C8093710C089531952195310934
:104900003093170C2093160CDDCFFC01262F8081ED
:10491000811111C060838181882359F0281748F0E4
:10492000411120838281882311F0821708F42283A9
:1049300008952183F5CF90E0880F991F860F911D70
:1049400063E070E00F94D862621708F46F5F6083D1
:10495000E2CF8091421B85958595835D0895ECE1BA
:10496000F5E190E0892F806480937C0080917A004B
:10497000806480937A0080917A0086FDFCCF20913C
:1049800078003091790080917A00806480937A0079
:1049900080917A0086FDFCCF40917800509179009B
:1049A000240F351F219331939F5F9830D9F60895D6
:1049B00080E190E00895CF9380916A1D90916B1DE6
:1049C0009093E01C8093DF1C80916C1D90916D1D75
:1049D0009093E21C8093E11C8FEF9FEF9093E41C77
:1049E0008093E31C9093E61C8093E51C1092E81CD6
:1049F000E9EEFCE1858D81938CE1E93FF807D1F781
:104A00004AE050E06FEF70E089EF9CE10F9421677E
:104A10001092031D8091691D882399F0CFEFC80F74
:104A2000C33068F49CEB9093DE1C833091F0C0930C
:104A3000E71C81E08093F91C80E88093FA1CCF91F9
:104A400008958BEB8093DE1C81E08093E71CCF916F
:104A500008958091A61C9091A71CA091A81CB091CC
:104A6000A91C8093E31C9093E41CA093E51CB093D5
:104A7000E61C40E150E06FEF70E089EE9CE10F949E
:104A80002167D5CFEFE6F0E080818D7F8083B19AFA
:104A90001092381610923716EEEDFCE180E9DF0136
:104AA0001D928A95E9F708958091090190E080951B
:104AB00090958F739927892B11F4959902C0A89529
:104AC000F3CF639BFCCFE5ECFDE080E3DF011D92BB
:104AD0008A95E9F71092F80D08958091B0168871C3
:104AE000803161F01092A60C8091AE169091AF16B5
:104AF0009093A80C8093A70C1092A90C8091B616E5
:104B00008871803161F01092AE0C8091B416909152
:104B1000B5169093B00C8093AF0C1092B10CECE0F2
:104B2000FCE081E8DF011D928A95E9F710928D0C77
:104B300080919C16877F80939C161092141510927A
:104B400013151092121510921115109291141092C3
:104B50009014109293141092921410929414109234
:104B6000971410929614109295140895CF93DF9392
:104B7000D82FC92F87DF10923E1410923D140E9447
:104B80004719ECE0FCE081E8DF011D928A95E9F726
:104B900010928D0C809103028F3F39F0E091DA1C66
:104BA000F091DB1C82E090E019959091A816392FC6
:104BB00032953695369533708091A916282F2F702F
:104BC000220F220F232B203108F064C0822F90E0A7
:104BD000FC01EE0FFF1FE80FF91FEE0FFF1FE6535A
:104BE000F64F0480F581E02D20930302F093DB1C47
:104BF000E093DA1C83E090E01995209139168091BA
:104C0000A91682958F7022952F70821708F4282F8D
:104C10002295207F8091A9168F70282B2093A916AA
:104C200080913B162091AA1628170CF4282F80910A
:104C30003C1682170CF4282F2093AA1680913D165B
:104C40002091AB1628170CF4282F80913E1682175E
:104C50000CF4282F2093AB1620913A16220F220F26
:104C6000220F8091AC168F71259525952595821779
:104C70000CF4282F2F718091AC16807E282B209366
:104C8000AC16E091DA1CF091DB1C8D2F9C2FDF918C
:104C9000CF9119949F739093A816807F8093A91643
:104CA000E1E5FEEA20E0A0CF6F927F928F929F9283
:104CB000AF92BF92CF92DF92EF92FF920F931F932A
:104CC000CF93DF93CDB7DEB72D970FB6F894DEBF45
:104CD0000FBECDBF6C013701D701ED90FC90F30101
:104CE00082819381809693838283D6018C91853EC5
:104CF00009F4BEC0882309F4BBC0F6019384FFE029
:104D00009F1609F4B9C0F7019081992391F0F3013E
:104D1000848011965601FBE0AF0EB11C80FB879595
:104D200087F99D91890FAA15BB05C1F7881609F46B
:104D30005FC081E3D7011D928A95E9F7F70101A7CA
:104D400012A723A734A745A756A767A770ABD7011B
:104D5000960180E0F90191919F01AD019032B1F08F
:104D60009C93F601448543FF0AC0A90141505109B3
:104D7000FA01408141544A3110F4905E9C938F5F58
:104D80001196883039F7A701485F5F4FD7019C9192
:104D9000953009F4B9C0F6019085903229F191E07F
:104DA000980F2EE2DA012C93D60118968C5F2D9184
:104DB000A701490F511D2032B9F0FA012083F601F5
:104DC000348534FF0BC0BD0161507109FB01308196
:104DD00031543A3118F4205EFA0120839F5F981312
:104DE000E6CFA701490F511DDA011C92F601938409
:104DF000F70190A2F601428D538D70E060E0F7015B
:104E000041A352A363A374A3F60184899589B0E0FA
:104E1000A0E0DC0199278827842B952BA62BB72BA4
:104E2000F70181A392A3A3A3B4A3F601848D958D6A
:104E3000A68DB78DF70185A396A3A7A3B0A781E0A0
:104E4000F301858380E02D960FB6F894DEBF0FBE88
:104E5000CDBFDF91CF911F910F91FF90EF90DF9029
:104E6000CF90BF90AF909F908F907F906F9008955C
:104E7000F301148281E0E7CFF3019481992321F0BB
:104E8000F601A5859A17A1F081E3D7011D928A95B5
:104E9000E9F7F6018585F3018483F70101A712A7DD
:104EA00023A734A745A756A767A770ABD6018C9157
:104EB0008F738150990B4DE0489F9001499F300DB1
:104EC0001124EAE2FAE0DE01119601900D924A9572
:104ED000E1F7E20EF31EAE01425F5F4FFE01319635
:104EE0002E1B3F0BC9018E0F9F1F4F9758F4A191A6
:104EF000AC0DBD2DB11D8C91D7018D937D01E417B3
:104F0000F50781F781E09FCF95EE9C9344CFCF9337
:104F1000262F30E0882371F1C5E06C9FC001112479
:104F20008456974E4FE050E0421B530B9A01220FDC
:104F3000331F220F331F420F531FBC016B5F7F4F84
:104F40000F941067E7EEF8E1DF011D92CA95E9F7CB
:104F500080919B16806180939B162FB7F894809167
:104F60004515909146152FBF9093C40D8093C30DA6
:104F7000CF910895CAE06C9FC00111248454994ECA
:104F800047E250E0BA01621B730B9B01AB01440F77
:104F9000551F440F551F420F531F440F551FBC018F
:104FA000665F7F4F0F941067E2E4F8E1DF011D9226
:104FB000CA95E9F7CDCFDF92EF92FF920F931F933F
:104FC000CF93DF930091FE111FEF100FE62EF12C0F
:104FD000882309F448C005E0609FE0011124C4560D
:104FE000D74E4FE050E04E195F09CA01880F991F54
:104FF000880F991F480F591FBE01CE0105960F94C7
:105000001067FE0111920A95E9F7F701EE0FFF1FF5
:10501000EE0FFF1FEE0DFF1DDF01A456B74E110F5F
:10502000110F1C7013608C91807F182B1C93E1561C
:10503000F74E84E6808380919B16806180939B1657
:105040002FB7F89480914515909146152FBF9093F6
:10505000C40D8093C30DDF91CF911F910F91FF90ED
:10506000EF90DF9008955AE0D52E6D9DE001112458
:10507000C454D94E87E290E08E199F09AC01440FC9
:10508000551F440F551F480F591F440F551FBE0190
:10509000CE010A960F941067FE011192DA94E9F797
:1050A000C701880F991F880F991FFC01EE0DFF1D86
:1050B000EE0FFF1FE454F94E212F2F701081107F47
:1050C000122B10830530ACF4E091C71BF0E0E056E2
:1050D000F44EE491F0E024E030E0201B3109220F8F
:1050E000331F8F0102C0159507952A95E2F70370CB
:1050F0000F5FFC01EE0DFF1DEE0FFF1FE256F94E94
:10510000078F84E680A397CFDF92EF92FF920F93F1
:105110001F93CF93DF939C01C0910412EC2EF12CCE
:10512000F701EE0FFF1FE65FFD4E008111816091D8
:10513000FF11862F90E0FC01EE0FFF1FEE0FFF1F07
:10514000E80FF91F47E7063D140709F477C0EE0F93
:10515000FF1FE454F94E80818F70D1E0D80F47E0F3
:10516000263B3407B1F1DD24D39487E7063D1807C9
:1051700009F0D12C47E0283A3407E1F087E02A39DA
:10518000380709F46BC087E02339380709F443C0B6
:1051900082E047E02A38340709F43EC020583740FF
:1051A00091F58D2DDF91CF911F910F91FF90EF9091
:1051B000DF90ADCE8D2D0E94841F811124C0D0932D
:1051C000FE116091FF118D2DF6DE065D174709F483
:1051D00042C08CE59CE723E62093C70DCC2331F039
:1051E000F701EB5FFD4E209150122083CF5FC093FB
:1051F0000412D0E0CC0FDD1FC65FDD4E998388839B
:105200008FEB80930912DF91CF911F910F91FF9047
:10521000EF90DF90089581E0809302126093FD117A
:10522000D093FC118091501280930112DF91CF91A5
:105230001F910F91FF90EF90DF900895E456F74E85
:105240008081869586958370D1E0D80F87E0263BD4
:10525000380709F088CF86EB9CEDBDCF8D2D0E94DD
:10526000841F8111D0CFD093FE116091FF116F5F29
:105270006093FF118091501290915112019690937A
:105280005112809350129FCFBF92CF92DF92EF9234
:10529000FF920F931F93CF93DF93C82EB62EE42E69
:1052A0008091BD16882309F47DC00C2D10E030E0FC
:1052B00020E0CCEBD6E1F12C90E080E0BAE0DB2EF0
:1052C0001CC0F39488E2F81609F467C02F2D30E073
:1052D000FD9CE0011124C454D94EC901880F991FC7
:1052E000880F991FFC01E20FF31FEE0FFF1FE2561C
:1052F000F94E478D442309F442C0FC01E20FF31F2D
:10530000EE0FFF1FE454F94E20812F7030E002179A
:1053100013074CF0EE20A9F22017310791F66F2DFC
:1053200080E0F5DDD3CF87E290E08F199109AC01E1
:10533000440F551F440F551F480F591F440F551F49
:10534000BE01CE010A960F9410678AE0FE01119209
:105350008A95E9F7FC2DFF70CF2E9881907FC92A9E
:10536000C882B98284E68A83CE01DF91CF911F91F2
:105370000F91FF90EF90DF90CF90BF90089587E25C
:1053800090E0821B930BAC01440F551F440F551F37
:10539000480F591F440F551FD3CF46EF5FEFCCEB9B
:1053A000D6E1CECF46E851E0CCEBD6E1C9CFEF92C3
:1053B000FF920F931F93CF93DF9300D00F92CDB73F
:1053C000DEB71A8219821C821B82E091C71BF0E0B3
:1053D000E056F44E66E070E010E0012F1F5F962F5C
:1053E00041E050E0249130E0092E02C03595279528
:1053F0000A94E2F723702F5F2417150649F4DA01A7
:10540000119721E030E02C0F3D1FA20FB31F0C932A
:105410004F5F5F4F4530510529F7625071091430D5
:10542000E1F68230A8F4ECEBF6E120E931E0DF01AF
:10543000A9011D9241505040E1F78150873068F436
:10544000E82FF0E08827EC58F5498E4F0D9429633A
:10545000863049F38150873098F380919B168061A4
:1054600080939B162FB7F89480914515909146151F
:105470002FBF9093C40D8093C30D0F900F900F908A
:105480000F90DF91CF911F910F91FF90EF900895B2
:1054900088E0E82EECEEF8E1DF012E2D1D922A9532
:1054A000E9F7E4EFF8E188E6DF011D928A95E9F774
:1054B00040E06BE080E0E8DE40E06CE081E0E4DECC
:1054C00040E06DE082E0E0DE40E061E083E0DCDED1
:1054D00040E063E084E0D8DEFC01FF24F394F38233
:1054E00080818061808387E080878581837E84607E
:1054F000858340E063E084E0C7DEFC0102E00383D3
:10550000808180618083E0868581837E846085835D
:1055100040E063E084E0B8DEFC0113E013838081A7
:105520008061808389E080878581837E8460858334
:1055300040E06AE084E0A8DEFC018CE9828380819F
:105540008064808384E0838385818C7F826085830F
:1055500040E06AE085E098DEFC018EE1828388EF1E
:10556000838340E06AE085E08FDEFC0182EE828387
:10557000808180648083E38240E063E08AE084DEAF
:10558000FC01F3828081806180838AE0808785814D
:10559000837E8460858340E063E08AE075DEFC0101
:1055A00003838081806180838BE080878581837E17
:1055B0008460858340E063E08AE066DEFC0113835B
:1055C0008081806180838CE080878581837E846098
:1055D00085838FE38093381B8091371B87708860A9
:1055E0008093371BE5E2F2E0E491E093F418E6E201
:1055F000F2E0E491E093F518E7E2F2E0E491E09361
:10560000F618E8E2F2E0E491E093F718E9E2F2E05C
:10561000E491E093F818E0E2F2E0A091EC180A2E91
:10562000000CBB0BA750B74E84918D93319622E0AE
:10563000E532F207C9F7EBE1F2E0A091ED180A2E8E
:10564000000CBB0BA250B74E84918D93319632E083
:10565000E032F307C9F7E6E1F2E0A091EE180A2E76
:10566000000CBB0BAD5FB64E84918D93319642E03A
:10567000EB31F407C9F781E192E0A091EF180A2E0F
:10568000000CBB0BA85FB64EFC0124912D93319604
:1056900052E0E631F507C9F7A091F0180A2E000C88
:1056A000BB0BA35FB64EFC0124912D930196F2E053
:1056B00086319F07C1F7D1CE41E069E18FE0E4DD9B
:1056C000FC018EE6828385818C7F858386E68683D6
:1056D00088E8878384E480935C1910925D1980E2E6
:1056E00080935E19BACE40E061E08981CDDD40E073
:1056F00062E08A81C9DD40E063E08B81C5DD40E086
:1057000064E08C81C1DDA9CE40E06AE08B81BCDD24
:10571000FC011CE9128380818064808383E283839F
:1057200085818C7F8260858340E062E48DE0ACDD22
:1057300040E06AE08DE0A8DDFC0112838081806496
:10574000808382E2838385818C7F8260858340E0D1
:105750006AE08DE099DDFC0184E0838385818C7FA4
:105760008260858383E0809384198DE98093851915
:1057700087E28093861982E48093881910928919B0
:1057800088E180938A1969CE198141E061E0812F17
:105790007BDD40E062E0812F77DDFC018CE98283D4
:1057A0008081806480831A8141E061E0812F6CDD1B
:1057B00040E062E0812F68DD50CE1A8141E062E076
:1057C000812F62DD40E064E0812F5EDD1C8141E0DD
:1057D00062E0812F59DD40E064E0812F55DDFC015E
:1057E0008CE9828380818064808337CE1A8141E096
:1057F00062E0812F49DD28E4FC01228340E063E080
:10580000812F42DD17E3FC0112830C8141E062E04D
:10581000802F3ADDFC019CEDF92EF28280818064BC
:10582000808340E064E0802F2FDD2EE3FC012283A3
:1058300040E063E0802F28DDFC01128341E062E05C
:1058400085E022DDFC01F28280818064808340E07B
:1058500064E085E019DDFC0182EC82838081806454
:10586000808340E063E085E00FDDFC011283F5CD2D
:10587000CF93C82FEEE9F6E181EE94E0DF019C01C1
:105880001D9221503040E1F781E091DDE8EAF6E138
:1058900081818F7080628183CF5FCF738081807CB4
:1058A000C82BC083CF910895DC01FC01019000203A
:1058B000E9F73197E81BF90B8E2FE150EA0FFB2F28
:1058C000F11D03C03197882379F0282F81509081F2
:1058D0009F32C1F71082A20FB11D8C91882311F065
:1058E000822F08959C93089508952F923F924F928E
:1058F0005F927F928F929F92AF92BF92CF92DF92F0
:10590000EF92FF920F931F93CF93DF9300D00F92EC
:10591000CDB7DEB71C012B0164E670E08091340C3A
:105920009091350C0F94D862762E172FDC0120E170
:1059300037E20F944D6369837A838B839C838091D4
:10594000420C9091430CC980DA80EB80FC80C80E39
:10595000D91EE11CF11CD701C601A601B701440FF5
:10596000551F661F771F440F551F661F771F6A015B
:105970007B01C80ED91EEA1EFB1EC701B6012BEA29
:105980003AEA4AEA5AEA0F94B36300E20F94536486
:1059900049015A01B694A79497948794A72DB12FE3
:1059A00020E432E44FE050E00F945D6369837A8332
:1059B0008B839C83860E971EA81EB91ED1018D92E3
:1059C0009D92AD92BC92139764E670E08091320C88
:1059D0009091330C0F94D862762E172FDC0120E1C2
:1059E00037E20F944D6369837A838B839C83809124
:1059F000400C9091410CC980DA80EB80FC80C80E8D
:105A0000D91EE11CF11CD701C601A601B701440F44
:105A1000551F661F771F440F551F661F771F6A01AA
:105A20007B01C80ED91EEA1EFB1EC701B6012BEA78
:105A30003AEA4AEA5AEA0F94B3630F94536449016D
:105A40005A01B694A79497948794A72DB12F20E478
:105A500032E44FE050E00F945D63860E971EA81E5F
:105A6000B91ED2018D929D92AD92BC9213970F9068
:105A70000F900F900F90DF91CF911F910F91FF909A
:105A8000EF90DF90CF90BF90AF909F908F907F90DE
:105A90005F904F903F902F900895CF92DF92EF92BA
:105AA000FF920F931F93CF93DF93CDB7DEB760972D
:105AB0000FB6F894DEBF0FBECDBF8091560C982F65
:105AC000927081FD0EC020914E0C30914F0C232B13
:105AD00009F479C082FF7BC0897F82608093560C75
